{
	"data": {
		"bytecode": {
			"linkReferences": {},
			"object": "60806040523480156200001157600080fd5b50604051620015f3380380620015f383398101604081905262000034916200007c565b600080546001600160a01b039092166001600160a01b03199283168117825560029190915560048054909216179055620000e5565b80516200007681620000cb565b92915050565b6000602082840312156200008f57600080fd5b60006200009d848462000069565b949350505050565b60006200007682620000bf565b60006200007682620000a5565b6001600160a01b031690565b620000d681620000b2565b8114620000e257600080fd5b50565b6114fe80620000f56000396000f3fe60806040526004361061009c5760003560e01c80637cc0c9bd116100645780637cc0c9bd1461014e57806380a279c41461017b578063a2793daf1461019b578063a9f752e5146101c9578063ab7a6c3e146101f9578063ec039514146102265761009c565b806316f946ef146100a1578063493c2176146100ca57806349b1d3e7146100ec5780634fe71d131461010c578063759c4bf31461012e575b600080fd5b6100b46100af366004610eba565b610248565b6040516100c1919061129c565b60405180910390f35b3480156100d657600080fd5b506100ea6100e5366004610f12565b610608565b005b3480156100f857600080fd5b506100ea610107366004610f55565b6106f6565b34801561011857600080fd5b50610121610801565b6040516100c191906111c4565b34801561013a57600080fd5b506100ea610149366004610ed8565b610810565b34801561015a57600080fd5b5061016e610169366004610fbc565b610993565b6040516100c19190611394565b34801561018757600080fd5b506100ea610196366004610ed8565b610999565b3480156101a757600080fd5b506101bb6101b6366004610e4f565b610ae9565b6040516100c19291906113a2565b3480156101d557600080fd5b506101e96101e4366004610e0b565b610af4565b6040516100c1949392919061125e565b34801561020557600080fd5b50610219610214366004610eba565b610b28565b6040516100c19190611386565b34801561023257600080fd5b5061023b610b86565b6040516100c191906112aa565b600081610253610bc5565b60048054604051637fd6c40560e01b81526001600160a01b0390911691637fd6c40591610282918691016112aa565b60006040518083038186803b15801561029a57600080fd5b505afa1580156102ae573d6000803e3d6000fd5b505050506040513d6000823e601f3d908101601f191682016040526102d69190810190610f87565b6060810151608082015191925090819034811461030e5760405162461bcd60e51b815260040161030590611376565b60405180910390fd5b6040516001600160a01b0383169082156108fc029083906000818181858888f19350505050158015610344573d6000803e3d6000fd5b5060405163095ea7b360e01b815233906001906001600160a01b0388169063095ea7b390610378908590859060040161123c565b600060405180830381600087803b15801561039257600080fd5b505af11580156103a6573d6000803e3d6000fd5b50506040516331a9108f60e11b8152600092506001600160a01b038a169150636352211e906103d9908590600401611394565b60206040518083038186803b1580156103f157600080fd5b505afa158015610405573d6000803e3d6000fd5b505050506040513d601f19601f820116820180604052506104299190810190610e31565b9050610436888385610608565b60048054604051637cb1479b60e01b81526001600160a01b0390911691637cb1479b91610467918c918891016112b8565b602060405180830381600087803b15801561048157600080fd5b505af1158015610495573d6000803e3d6000fd5b505050506040513d601f19601f820116820180604052506104b99190810190610e9c565b5060048054604051634dd5bfa560e11b81526001600160a01b0390911691639bab7f4a916104e9918c91016112d3565b602060405180830381600087803b15801561050357600080fd5b505af1158015610517573d6000803e3d6000fd5b505050506040513d601f19601f8201168201806040525061053b9190810190610e9c565b506040516331a9108f60e11b81526000906001600160a01b038a1690636352211e9061056b908690600401611394565b60206040518083038186803b15801561058357600080fd5b505afa158015610597573d6000803e3d6000fd5b505050506040513d601f19601f820116820180604052506105bb9190810190610e31565b90507fa8ffd0052cf94298cdb4d728ccaebde44f94e7568e31b2129a24a8b2e10fea8c898484846040516105f29493929190611311565b60405180910390a1505050505050505050919050565b82610611610c1c565b61061a85610b28565b905080606001516327b832b760e11b146106465760405162461bcd60e51b815260040161030590611366565b610651858585610b95565b60208101516040516323b872dd60e01b81526001600160a01b038416916323b872dd916106859130918891906004016111fa565b600060405180830381600087803b15801561069f57600080fd5b505af11580156106b3573d6000803e3d6000fd5b50506810d85b98d95b1b195960ba1b6060840152505060405160008051602061149c833981519152906106e7908790611208565b60405180910390a15050505050565b6040516323b872dd60e01b81526001600160a01b038416906323b872dd90610726903390309087906004016111d2565b600060405180830381600087803b15801561074057600080fd5b505af1158015610754573d6000803e3d6000fd5b505060028054600190810182556040805160808101825233815260208082018981528284018981526327b832b760e11b606085019081526001600160a01b038d811660009081529488905293869020945185546001600160a01b031916941693909317845590519483019490945592519381019390935590516003909201919091555160008051602061149c83398151915292506107f491508590611222565b60405180910390a1505050565b6003546001600160a01b031681565b600054604051634dd5bfa560e11b81526001600160a01b0390911690639bab7f4a906108409085906004016112d3565b602060405180830381600087803b15801561085a57600080fd5b505af115801561086e573d6000803e3d6000fd5b505050506040513d601f19601f820116820180604052506108929190810190610e9c565b506001600160a01b038281166000908152600160205260409020805490911633146108cf5760405162461bcd60e51b815260040161030590611346565b80600301546327b832b760e11b146108f95760405162461bcd60e51b815260040161030590611366565b805460018201546040516323b872dd60e01b81526001600160a01b03868116936323b872dd93610931933093909216916004016111fa565b600060405180830381600087803b15801561094b57600080fd5b505af115801561095f573d6000803e3d6000fd5b50506810d85b98d95b1b195960ba1b6003840155505060405160008051602061149c833981519152906107f4908590611208565b50600090565b600054604051634dd5bfa560e11b81526001600160a01b0390911690639bab7f4a906109c99085906004016112f2565b602060405180830381600087803b1580156109e357600080fd5b505af11580156109f7573d6000803e3d6000fd5b505050506040513d601f19601f82011682018060405250610a1b9190810190610e9c565b506001600160a01b03828116600090815260016020526040902080549091163314610a585760405162461bcd60e51b815260040161030590611356565b60018101546040516323b872dd60e01b81526001600160a01b038516916323b872dd91610a8c9133913091906004016111d2565b600060405180830381600087803b158015610aa657600080fd5b505af1158015610aba573d6000803e3d6000fd5b50506327b832b760e11b6003840155505060405160008051602061149c833981519152906107f4908590611222565b600080935093915050565b600160208190526000918252604090912080549181015460028201546003909201546001600160a01b039093169290919084565b610b30610c1c565b610b38610c1c565b50506001600160a01b03908116600090815260016020818152604092839020835160808101855281549095168552918201549084015260028101549183019190915260030154606082015290565b6004546001600160a01b031681565b6001600160a01b03928316600090815260016020526040902080546001600160a01b031916919093161790915550565b60405180610100016040528060006001600160a01b03168152602001606081526020016060815260200160006001600160a01b03168152602001600081526020016060815260200160608152602001600081525090565b60408051608081018252600080825260208201819052918101829052606081019190915290565b8035610c4e81611469565b92915050565b8051610c4e81611469565b8051610c4e81611480565b8035610c4e81611489565b8051610c4e81611489565b600082601f830112610c9157600080fd5b8151610ca4610c9f826113d7565b6113b0565b91508082526020830160208301858383011115610cc057600080fd5b610ccb83828461143d565b50505092915050565b60006101008284031215610ce757600080fd5b610cf26101006113b0565b90506000610d008484610c75565b825250602082015167ffffffffffffffff811115610d1d57600080fd5b610d2984828501610c80565b602083015250604082015167ffffffffffffffff811115610d4957600080fd5b610d5584828501610c80565b6040830152506060610d6984828501610c54565b6060830152506080610d7d84828501610e00565b60808301525060a082015167ffffffffffffffff811115610d9d57600080fd5b610da984828501610c80565b60a08301525060c082015167ffffffffffffffff811115610dc957600080fd5b610dd584828501610c80565b60c08301525060e0610de984828501610e00565b60e08301525092915050565b8035610c4e81611492565b8051610c4e81611492565b600060208284031215610e1d57600080fd5b6000610e298484610c43565b949350505050565b600060208284031215610e4357600080fd5b6000610e298484610c54565b600080600060608486031215610e6457600080fd5b6000610e708686610c43565b9350506020610e8186828701610c43565b9250506040610e9286828701610df5565b9150509250925092565b600060208284031215610eae57600080fd5b6000610e298484610c5f565b600060208284031215610ecc57600080fd5b6000610e298484610c6a565b60008060408385031215610eeb57600080fd5b6000610ef78585610c6a565b9250506020610f0885828601610df5565b9150509250929050565b600080600060608486031215610f2757600080fd5b6000610f338686610c6a565b9350506020610f4486828701610df5565b9250506040610e9286828701610c43565b600080600060608486031215610f6a57600080fd5b6000610f768686610c6a565b9350506020610e8186828701610df5565b600060208284031215610f9957600080fd5b815167ffffffffffffffff811115610fb057600080fd5b610e2984828501610cd4565b600060208284031215610fce57600080fd5b6000610e298484610df5565b610fe381611432565b82525050565b610fe381611408565b610fe381611413565b610fe381611418565b610fe38161141b565b600061101a6026836113ff565b7f54726164652063616e2062652063616e63656c6c6564206f6e6c79206279207381526532b63632b91760d11b602082015260400192915050565b60006110626021836113ff565b7f54726164652063616e206265206f70656e206f6e6c792062792073656c6c65728152601760f91b602082015260400192915050565b60006110a56012836113ff565b712a3930b2329034b9903737ba1027b832b71760711b815260200192915050565b6810d85b98d95b1b195960ba1b9052565b60006110e46009836113ff565b6810d85b98d95b1b195960ba1b815260200192915050565b6327b832b760e11b9052565b60006111156004836113ff565b6327b832b760e11b815260200192915050565b6000611135602a836113ff565b7f6d73672e76616c75652073686f756c6420626520657175616c20746f2074686581526908189d5e505b5bdd5b9d60b21b602082015260400192915050565b805160808301906111858482610fe9565b5060208201516111986020850182610ffb565b5060408201516111ab6040850182610ffb565b5060608201516111be6060850182610ffb565b50505050565b60208101610c4e8284610fe9565b606081016111e08286610fda565b6111ed6020830185610fe9565b610e296040830184610ffb565b606081016111e08286610fe9565b604081016112168284610fe9565b610c4e602083016110c6565b604081016112308284610fe9565b610c4e602083016110fc565b6040810161124a8285610fe9565b6112576020830184610ffb565b9392505050565b6080810161126c8287610fe9565b6112796020830186610ffb565b6112866040830185610ffb565b6112936060830184610ffb565b95945050505050565b60208101610c4e8284610ff2565b60208101610c4e8284611004565b604081016112c68285611004565b6112576020830184610fe9565b604081016112e18284611004565b8181036020830152611257816110d7565b604081016113008284611004565b818103602083015261125781611108565b6080810161131f8287611004565b61132c6020830186610ffb565b6113396040830185610fe9565b6112936060830184610fe9565b60208082528101610c4e8161100d565b60208082528101610c4e81611055565b60208082528101610c4e81611098565b60208082528101610c4e81611128565b60808101610c4e8284611174565b60208101610c4e8284610ffb565b6040810161124a8285610ffb565b60405181810167ffffffffffffffff811182821017156113cf57600080fd5b604052919050565b600067ffffffffffffffff8211156113ee57600080fd5b506020601f91909101601f19160190565b90815260200190565b6000610c4e82611426565b151590565b90565b6000610c4e82611408565b6001600160a01b031690565b6000610c4e8261141b565b60005b83811015611458578181015183820152602001611440565b838111156111be5750506000910152565b61147281611408565b811461147d57600080fd5b50565b61147281611413565b6114728161141b565b6114728161141856feee0bd10dbd5c2151f43ed2fa6af0584fbad842aa901d657f39fffd140822ae70a365627a7a723158205195c9c8c6fbe8a2597cfd0669e642c9894285b88dd3d428becdd661342274be6c6578706572696d656e74616cf564736f6c63430005100040",
			"opcodes": "PUSH1 0x80 PUSH1 0x40 MSTORE CALLVALUE DUP1 ISZERO PUSH3 0x11 JUMPI PUSH1 0x0 DUP1 REVERT JUMPDEST POP PUSH1 0x40 MLOAD PUSH3 0x15F3 CODESIZE SUB DUP1 PUSH3 0x15F3 DUP4 CODECOPY DUP2 ADD PUSH1 0x40 DUP2 SWAP1 MSTORE PUSH3 0x34 SWAP2 PUSH3 0x7C JUMP JUMPDEST PUSH1 0x0 DUP1 SLOAD PUSH1 0x1 PUSH1 0x1 PUSH1 0xA0 SHL SUB SWAP1 SWAP3 AND PUSH1 0x1 PUSH1 0x1 PUSH1 0xA0 SHL SUB NOT SWAP3 DUP4 AND DUP2 OR DUP3 SSTORE PUSH1 0x2 SWAP2 SWAP1 SWAP2 SSTORE PUSH1 0x4 DUP1 SLOAD SWAP1 SWAP3 AND OR SWAP1 SSTORE PUSH3 0xE5 JUMP JUMPDEST DUP1 MLOAD PUSH3 0x76 DUP2 PUSH3 0xCB JUMP JUMPDEST SWAP3 SWAP2 POP POP JUMP JUMPDEST PUSH1 0x0 PUSH1 0x20 DUP3 DUP5 SUB SLT ISZERO PUSH3 0x8F JUMPI PUSH1 0x0 DUP1 REVERT JUMPDEST PUSH1 0x0 PUSH3 0x9D DUP5 DUP5 PUSH3 0x69 JUMP JUMPDEST SWAP5 SWAP4 POP POP POP POP JUMP JUMPDEST PUSH1 0x0 PUSH3 0x76 DUP3 PUSH3 0xBF JUMP JUMPDEST PUSH1 0x0 PUSH3 0x76 DUP3 PUSH3 0xA5 JUMP JUMPDEST PUSH1 0x1 PUSH1 0x1 PUSH1 0xA0 SHL SUB AND SWAP1 JUMP JUMPDEST PUSH3 0xD6 DUP2 PUSH3 0xB2 JUMP JUMPDEST DUP2 EQ PUSH3 0xE2 JUMPI PUSH1 0x0 DUP1 REVERT JUMPDEST POP JUMP JUMPDEST PUSH2 0x14FE DUP1 PUSH3 0xF5 PUSH1 0x0 CODECOPY PUSH1 0x0 RETURN INVALID PUSH1 0x80 PUSH1 0x40 MSTORE PUSH1 0x4 CALLDATASIZE LT PUSH2 0x9C JUMPI PUSH1 0x0 CALLDATALOAD PUSH1 0xE0 SHR DUP1 PUSH4 0x7CC0C9BD GT PUSH2 0x64 JUMPI DUP1 PUSH4 0x7CC0C9BD EQ PUSH2 0x14E JUMPI DUP1 PUSH4 0x80A279C4 EQ PUSH2 0x17B JUMPI DUP1 PUSH4 0xA2793DAF EQ PUSH2 0x19B JUMPI DUP1 PUSH4 0xA9F752E5 EQ PUSH2 0x1C9 JUMPI DUP1 PUSH4 0xAB7A6C3E EQ PUSH2 0x1F9 JUMPI DUP1 PUSH4 0xEC039514 EQ PUSH2 0x226 JUMPI PUSH2 0x9C JUMP JUMPDEST DUP1 PUSH4 0x16F946EF EQ PUSH2 0xA1 JUMPI DUP1 PUSH4 0x493C2176 EQ PUSH2 0xCA JUMPI DUP1 PUSH4 0x49B1D3E7 EQ PUSH2 0xEC JUMPI DUP1 PUSH4 0x4FE71D13 EQ PUSH2 0x10C JUMPI DUP1 PUSH4 0x759C4BF3 EQ PUSH2 0x12E JUMPI JUMPDEST PUSH1 0x0 DUP1 REVERT JUMPDEST PUSH2 0xB4 PUSH2 0xAF CALLDATASIZE PUSH1 0x4 PUSH2 0xEBA JUMP JUMPDEST PUSH2 0x248 JUMP JUMPDEST PUSH1 0x40 MLOAD PUSH2 0xC1 SWAP2 SWAP1 PUSH2 0x129C JUMP JUMPDEST PUSH1 0x40 MLOAD DUP1 SWAP2 SUB SWAP1 RETURN JUMPDEST CALLVALUE DUP1 ISZERO PUSH2 0xD6 JUMPI PUSH1 0x0 DUP1 REVERT JUMPDEST POP PUSH2 0xEA PUSH2 0xE5 CALLDATASIZE PUSH1 0x4 PUSH2 0xF12 JUMP JUMPDEST PUSH2 0x608 JUMP JUMPDEST STOP JUMPDEST CALLVALUE DUP1 ISZERO PUSH2 0xF8 JUMPI PUSH1 0x0 DUP1 REVERT JUMPDEST POP PUSH2 0xEA PUSH2 0x107 CALLDATASIZE PUSH1 0x4 PUSH2 0xF55 JUMP JUMPDEST PUSH2 0x6F6 JUMP JUMPDEST CALLVALUE DUP1 ISZERO PUSH2 0x118 JUMPI PUSH1 0x0 DUP1 REVERT JUMPDEST POP PUSH2 0x121 PUSH2 0x801 JUMP JUMPDEST PUSH1 0x40 MLOAD PUSH2 0xC1 SWAP2 SWAP1 PUSH2 0x11C4 JUMP JUMPDEST CALLVALUE DUP1 ISZERO PUSH2 0x13A JUMPI PUSH1 0x0 DUP1 REVERT JUMPDEST POP PUSH2 0xEA PUSH2 0x149 CALLDATASIZE PUSH1 0x4 PUSH2 0xED8 JUMP JUMPDEST PUSH2 0x810 JUMP JUMPDEST CALLVALUE DUP1 ISZERO PUSH2 0x15A JUMPI PUSH1 0x0 DUP1 REVERT JUMPDEST POP PUSH2 0x16E PUSH2 0x169 CALLDATASIZE PUSH1 0x4 PUSH2 0xFBC JUMP JUMPDEST PUSH2 0x993 JUMP JUMPDEST PUSH1 0x40 MLOAD PUSH2 0xC1 SWAP2 SWAP1 PUSH2 0x1394 JUMP JUMPDEST CALLVALUE DUP1 ISZERO PUSH2 0x187 JUMPI PUSH1 0x0 DUP1 REVERT JUMPDEST POP PUSH2 0xEA PUSH2 0x196 CALLDATASIZE PUSH1 0x4 PUSH2 0xED8 JUMP JUMPDEST PUSH2 0x999 JUMP JUMPDEST CALLVALUE DUP1 ISZERO PUSH2 0x1A7 JUMPI PUSH1 0x0 DUP1 REVERT JUMPDEST POP PUSH2 0x1BB PUSH2 0x1B6 CALLDATASIZE PUSH1 0x4 PUSH2 0xE4F JUMP JUMPDEST PUSH2 0xAE9 JUMP JUMPDEST PUSH1 0x40 MLOAD PUSH2 0xC1 SWAP3 SWAP2 SWAP1 PUSH2 0x13A2 JUMP JUMPDEST CALLVALUE DUP1 ISZERO PUSH2 0x1D5 JUMPI PUSH1 0x0 DUP1 REVERT JUMPDEST POP PUSH2 0x1E9 PUSH2 0x1E4 CALLDATASIZE PUSH1 0x4 PUSH2 0xE0B JUMP JUMPDEST PUSH2 0xAF4 JUMP JUMPDEST PUSH1 0x40 MLOAD PUSH2 0xC1 SWAP5 SWAP4 SWAP3 SWAP2 SWAP1 PUSH2 0x125E JUMP JUMPDEST CALLVALUE DUP1 ISZERO PUSH2 0x205 JUMPI PUSH1 0x0 DUP1 REVERT JUMPDEST POP PUSH2 0x219 PUSH2 0x214 CALLDATASIZE PUSH1 0x4 PUSH2 0xEBA JUMP JUMPDEST PUSH2 0xB28 JUMP JUMPDEST PUSH1 0x40 MLOAD PUSH2 0xC1 SWAP2 SWAP1 PUSH2 0x1386 JUMP JUMPDEST CALLVALUE DUP1 ISZERO PUSH2 0x232 JUMPI PUSH1 0x0 DUP1 REVERT JUMPDEST POP PUSH2 0x23B PUSH2 0xB86 JUMP JUMPDEST PUSH1 0x40 MLOAD PUSH2 0xC1 SWAP2 SWAP1 PUSH2 0x12AA JUMP JUMPDEST PUSH1 0x0 DUP2 PUSH2 0x253 PUSH2 0xBC5 JUMP JUMPDEST PUSH1 0x4 DUP1 SLOAD PUSH1 0x40 MLOAD PUSH4 0x7FD6C405 PUSH1 0xE0 SHL DUP2 MSTORE PUSH1 0x1 PUSH1 0x1 PUSH1 0xA0 SHL SUB SWAP1 SWAP2 AND SWAP2 PUSH4 0x7FD6C405 SWAP2 PUSH2 0x282 SWAP2 DUP7 SWAP2 ADD PUSH2 0x12AA JUMP JUMPDEST PUSH1 0x0 PUSH1 0x40 MLOAD DUP1 DUP4 SUB DUP2 DUP7 DUP1 EXTCODESIZE ISZERO DUP1 ISZERO PUSH2 0x29A JUMPI PUSH1 0x0 DUP1 REVERT JUMPDEST POP GAS STATICCALL ISZERO DUP1 ISZERO PUSH2 0x2AE JUMPI RETURNDATASIZE PUSH1 0x0 DUP1 RETURNDATACOPY RETURNDATASIZE PUSH1 0x0 REVERT JUMPDEST POP POP POP POP PUSH1 0x40 MLOAD RETURNDATASIZE PUSH1 0x0 DUP3 RETURNDATACOPY PUSH1 0x1F RETURNDATASIZE SWAP1 DUP2 ADD PUSH1 0x1F NOT AND DUP3 ADD PUSH1 0x40 MSTORE PUSH2 0x2D6 SWAP2 SWAP1 DUP2 ADD SWAP1 PUSH2 0xF87 JUMP JUMPDEST PUSH1 0x60 DUP2 ADD MLOAD PUSH1 0x80 DUP3 ADD MLOAD SWAP2 SWAP3 POP SWAP1 DUP2 SWAP1 CALLVALUE DUP2 EQ PUSH2 0x30E JUMPI PUSH1 0x40 MLOAD PUSH3 0x461BCD PUSH1 0xE5 SHL DUP2 MSTORE PUSH1 0x4 ADD PUSH2 0x305 SWAP1 PUSH2 0x1376 JUMP JUMPDEST PUSH1 0x40 MLOAD DUP1 SWAP2 SUB SWAP1 REVERT JUMPDEST PUSH1 0x40 MLOAD PUSH1 0x1 PUSH1 0x1 PUSH1 0xA0 SHL SUB DUP4 AND SWAP1 DUP3 ISZERO PUSH2 0x8FC MUL SWAP1 DUP4 SWAP1 PUSH1 0x0 DUP2 DUP2 DUP2 DUP6 DUP9 DUP9 CALL SWAP4 POP POP POP POP ISZERO DUP1 ISZERO PUSH2 0x344 JUMPI RETURNDATASIZE PUSH1 0x0 DUP1 RETURNDATACOPY RETURNDATASIZE PUSH1 0x0 REVERT JUMPDEST POP PUSH1 0x40 MLOAD PUSH4 0x95EA7B3 PUSH1 0xE0 SHL DUP2 MSTORE CALLER SWAP1 PUSH1 0x1 SWAP1 PUSH1 0x1 PUSH1 0x1 PUSH1 0xA0 SHL SUB DUP9 AND SWAP1 PUSH4 0x95EA7B3 SWAP1 PUSH2 0x378 SWAP1 DUP6 SWAP1 DUP6 SWAP1 PUSH1 0x4 ADD PUSH2 0x123C JUMP JUMPDEST PUSH1 0x0 PUSH1 0x40 MLOAD DUP1 DUP4 SUB DUP2 PUSH1 0x0 DUP8 DUP1 EXTCODESIZE ISZERO DUP1 ISZERO PUSH2 0x392 JUMPI PUSH1 0x0 DUP1 REVERT JUMPDEST POP GAS CALL ISZERO DUP1 ISZERO PUSH2 0x3A6 JUMPI RETURNDATASIZE PUSH1 0x0 DUP1 RETURNDATACOPY RETURNDATASIZE PUSH1 0x0 REVERT JUMPDEST POP POP PUSH1 0x40 MLOAD PUSH4 0x31A9108F PUSH1 0xE1 SHL DUP2 MSTORE PUSH1 0x0 SWAP3 POP PUSH1 0x1 PUSH1 0x1 PUSH1 0xA0 SHL SUB DUP11 AND SWAP2 POP PUSH4 0x6352211E SWAP1 PUSH2 0x3D9 SWAP1 DUP6 SWAP1 PUSH1 0x4 ADD PUSH2 0x1394 JUMP JUMPDEST PUSH1 0x20 PUSH1 0x40 MLOAD DUP1 DUP4 SUB DUP2 DUP7 DUP1 EXTCODESIZE ISZERO DUP1 ISZERO PUSH2 0x3F1 JUMPI PUSH1 0x0 DUP1 REVERT JUMPDEST POP GAS STATICCALL ISZERO DUP1 ISZERO PUSH2 0x405 JUMPI RETURNDATASIZE PUSH1 0x0 DUP1 RETURNDATACOPY RETURNDATASIZE PUSH1 0x0 REVERT JUMPDEST POP POP POP POP PUSH1 0x40 MLOAD RETURNDATASIZE PUSH1 0x1F NOT PUSH1 0x1F DUP3 ADD AND DUP3 ADD DUP1 PUSH1 0x40 MSTORE POP PUSH2 0x429 SWAP2 SWAP1 DUP2 ADD SWAP1 PUSH2 0xE31 JUMP JUMPDEST SWAP1 POP PUSH2 0x436 DUP9 DUP4 DUP6 PUSH2 0x608 JUMP JUMPDEST PUSH1 0x4 DUP1 SLOAD PUSH1 0x40 MLOAD PUSH4 0x7CB1479B PUSH1 0xE0 SHL DUP2 MSTORE PUSH1 0x1 PUSH1 0x1 PUSH1 0xA0 SHL SUB SWAP1 SWAP2 AND SWAP2 PUSH4 0x7CB1479B SWAP2 PUSH2 0x467 SWAP2 DUP13 SWAP2 DUP9 SWAP2 ADD PUSH2 0x12B8 JUMP JUMPDEST PUSH1 0x20 PUSH1 0x40 MLOAD DUP1 DUP4 SUB DUP2 PUSH1 0x0 DUP8 DUP1 EXTCODESIZE ISZERO DUP1 ISZERO PUSH2 0x481 JUMPI PUSH1 0x0 DUP1 REVERT JUMPDEST POP GAS CALL ISZERO DUP1 ISZERO PUSH2 0x495 JUMPI RETURNDATASIZE PUSH1 0x0 DUP1 RETURNDATACOPY RETURNDATASIZE PUSH1 0x0 REVERT JUMPDEST POP POP POP POP PUSH1 0x40 MLOAD RETURNDATASIZE PUSH1 0x1F NOT PUSH1 0x1F DUP3 ADD AND DUP3 ADD DUP1 PUSH1 0x40 MSTORE POP PUSH2 0x4B9 SWAP2 SWAP1 DUP2 ADD SWAP1 PUSH2 0xE9C JUMP JUMPDEST POP PUSH1 0x4 DUP1 SLOAD PUSH1 0x40 MLOAD PUSH4 0x4DD5BFA5 PUSH1 0xE1 SHL DUP2 MSTORE PUSH1 0x1 PUSH1 0x1 PUSH1 0xA0 SHL SUB SWAP1 SWAP2 AND SWAP2 PUSH4 0x9BAB7F4A SWAP2 PUSH2 0x4E9 SWAP2 DUP13 SWAP2 ADD PUSH2 0x12D3 JUMP JUMPDEST PUSH1 0x20 PUSH1 0x40 MLOAD DUP1 DUP4 SUB DUP2 PUSH1 0x0 DUP8 DUP1 EXTCODESIZE ISZERO DUP1 ISZERO PUSH2 0x503 JUMPI PUSH1 0x0 DUP1 REVERT JUMPDEST POP GAS CALL ISZERO DUP1 ISZERO PUSH2 0x517 JUMPI RETURNDATASIZE PUSH1 0x0 DUP1 RETURNDATACOPY RETURNDATASIZE PUSH1 0x0 REVERT JUMPDEST POP POP POP POP PUSH1 0x40 MLOAD RETURNDATASIZE PUSH1 0x1F NOT PUSH1 0x1F DUP3 ADD AND DUP3 ADD DUP1 PUSH1 0x40 MSTORE POP PUSH2 0x53B SWAP2 SWAP1 DUP2 ADD SWAP1 PUSH2 0xE9C JUMP JUMPDEST POP PUSH1 0x40 MLOAD PUSH4 0x31A9108F PUSH1 0xE1 SHL DUP2 MSTORE PUSH1 0x0 SWAP1 PUSH1 0x1 PUSH1 0x1 PUSH1 0xA0 SHL SUB DUP11 AND SWAP1 PUSH4 0x6352211E SWAP1 PUSH2 0x56B SWAP1 DUP7 SWAP1 PUSH1 0x4 ADD PUSH2 0x1394 JUMP JUMPDEST PUSH1 0x20 PUSH1 0x40 MLOAD DUP1 DUP4 SUB DUP2 DUP7 DUP1 EXTCODESIZE ISZERO DUP1 ISZERO PUSH2 0x583 JUMPI PUSH1 0x0 DUP1 REVERT JUMPDEST POP GAS STATICCALL ISZERO DUP1 ISZERO PUSH2 0x597 JUMPI RETURNDATASIZE PUSH1 0x0 DUP1 RETURNDATACOPY RETURNDATASIZE PUSH1 0x0 REVERT JUMPDEST POP POP POP POP PUSH1 0x40 MLOAD RETURNDATASIZE PUSH1 0x1F NOT PUSH1 0x1F DUP3 ADD AND DUP3 ADD DUP1 PUSH1 0x40 MSTORE POP PUSH2 0x5BB SWAP2 SWAP1 DUP2 ADD SWAP1 PUSH2 0xE31 JUMP JUMPDEST SWAP1 POP PUSH32 0xA8FFD0052CF94298CDB4D728CCAEBDE44F94E7568E31B2129A24A8B2E10FEA8C DUP10 DUP5 DUP5 DUP5 PUSH1 0x40 MLOAD PUSH2 0x5F2 SWAP5 SWAP4 SWAP3 SWAP2 SWAP1 PUSH2 0x1311 JUMP JUMPDEST PUSH1 0x40 MLOAD DUP1 SWAP2 SUB SWAP1 LOG1 POP POP POP POP POP POP POP POP POP SWAP2 SWAP1 POP JUMP JUMPDEST DUP3 PUSH2 0x611 PUSH2 0xC1C JUMP JUMPDEST PUSH2 0x61A DUP6 PUSH2 0xB28 JUMP JUMPDEST SWAP1 POP DUP1 PUSH1 0x60 ADD MLOAD PUSH4 0x27B832B7 PUSH1 0xE1 SHL EQ PUSH2 0x646 JUMPI PUSH1 0x40 MLOAD PUSH3 0x461BCD PUSH1 0xE5 SHL DUP2 MSTORE PUSH1 0x4 ADD PUSH2 0x305 SWAP1 PUSH2 0x1366 JUMP JUMPDEST PUSH2 0x651 DUP6 DUP6 DUP6 PUSH2 0xB95 JUMP JUMPDEST PUSH1 0x20 DUP2 ADD MLOAD PUSH1 0x40 MLOAD PUSH4 0x23B872DD PUSH1 0xE0 SHL DUP2 MSTORE PUSH1 0x1 PUSH1 0x1 PUSH1 0xA0 SHL SUB DUP5 AND SWAP2 PUSH4 0x23B872DD SWAP2 PUSH2 0x685 SWAP2 ADDRESS SWAP2 DUP9 SWAP2 SWAP1 PUSH1 0x4 ADD PUSH2 0x11FA JUMP JUMPDEST PUSH1 0x0 PUSH1 0x40 MLOAD DUP1 DUP4 SUB DUP2 PUSH1 0x0 DUP8 DUP1 EXTCODESIZE ISZERO DUP1 ISZERO PUSH2 0x69F JUMPI PUSH1 0x0 DUP1 REVERT JUMPDEST POP GAS CALL ISZERO DUP1 ISZERO PUSH2 0x6B3 JUMPI RETURNDATASIZE PUSH1 0x0 DUP1 RETURNDATACOPY RETURNDATASIZE PUSH1 0x0 REVERT JUMPDEST POP POP PUSH9 0x10D85B98D95B1B1959 PUSH1 0xBA SHL PUSH1 0x60 DUP5 ADD MSTORE POP POP PUSH1 0x40 MLOAD PUSH1 0x0 DUP1 MLOAD PUSH1 0x20 PUSH2 0x149C DUP4 CODECOPY DUP2 MLOAD SWAP2 MSTORE SWAP1 PUSH2 0x6E7 SWAP1 DUP8 SWAP1 PUSH2 0x1208 JUMP JUMPDEST PUSH1 0x40 MLOAD DUP1 SWAP2 SUB SWAP1 LOG1 POP POP POP POP POP JUMP JUMPDEST PUSH1 0x40 MLOAD PUSH4 0x23B872DD PUSH1 0xE0 SHL DUP2 MSTORE PUSH1 0x1 PUSH1 0x1 PUSH1 0xA0 SHL SUB DUP5 AND SWAP1 PUSH4 0x23B872DD SWAP1 PUSH2 0x726 SWAP1 CALLER SWAP1 ADDRESS SWAP1 DUP8 SWAP1 PUSH1 0x4 ADD PUSH2 0x11D2 JUMP JUMPDEST PUSH1 0x0 PUSH1 0x40 MLOAD DUP1 DUP4 SUB DUP2 PUSH1 0x0 DUP8 DUP1 EXTCODESIZE ISZERO DUP1 ISZERO PUSH2 0x740 JUMPI PUSH1 0x0 DUP1 REVERT JUMPDEST POP GAS CALL ISZERO DUP1 ISZERO PUSH2 0x754 JUMPI RETURNDATASIZE PUSH1 0x0 DUP1 RETURNDATACOPY RETURNDATASIZE PUSH1 0x0 REVERT JUMPDEST POP POP PUSH1 0x2 DUP1 SLOAD PUSH1 0x1 SWAP1 DUP2 ADD DUP3 SSTORE PUSH1 0x40 DUP1 MLOAD PUSH1 0x80 DUP2 ADD DUP3 MSTORE CALLER DUP2 MSTORE PUSH1 0x20 DUP1 DUP3 ADD DUP10 DUP2 MSTORE DUP3 DUP5 ADD DUP10 DUP2 MSTORE PUSH4 0x27B832B7 PUSH1 0xE1 SHL PUSH1 0x60 DUP6 ADD SWAP1 DUP2 MSTORE PUSH1 0x1 PUSH1 0x1 PUSH1 0xA0 SHL SUB DUP14 DUP2 AND PUSH1 0x0 SWAP1 DUP2 MSTORE SWAP5 DUP9 SWAP1 MSTORE SWAP4 DUP7 SWAP1 KECCAK256 SWAP5 MLOAD DUP6 SLOAD PUSH1 0x1 PUSH1 0x1 PUSH1 0xA0 SHL SUB NOT AND SWAP5 AND SWAP4 SWAP1 SWAP4 OR DUP5 SSTORE SWAP1 MLOAD SWAP5 DUP4 ADD SWAP5 SWAP1 SWAP5 SSTORE SWAP3 MLOAD SWAP4 DUP2 ADD SWAP4 SWAP1 SWAP4 SSTORE SWAP1 MLOAD PUSH1 0x3 SWAP1 SWAP3 ADD SWAP2 SWAP1 SWAP2 SSTORE MLOAD PUSH1 0x0 DUP1 MLOAD PUSH1 0x20 PUSH2 0x149C DUP4 CODECOPY DUP2 MLOAD SWAP2 MSTORE SWAP3 POP PUSH2 0x7F4 SWAP2 POP DUP6 SWAP1 PUSH2 0x1222 JUMP JUMPDEST PUSH1 0x40 MLOAD DUP1 SWAP2 SUB SWAP1 LOG1 POP POP POP JUMP JUMPDEST PUSH1 0x3 SLOAD PUSH1 0x1 PUSH1 0x1 PUSH1 0xA0 SHL SUB AND DUP2 JUMP JUMPDEST PUSH1 0x0 SLOAD PUSH1 0x40 MLOAD PUSH4 0x4DD5BFA5 PUSH1 0xE1 SHL DUP2 MSTORE PUSH1 0x1 PUSH1 0x1 PUSH1 0xA0 SHL SUB SWAP1 SWAP2 AND SWAP1 PUSH4 0x9BAB7F4A SWAP1 PUSH2 0x840 SWAP1 DUP6 SWAP1 PUSH1 0x4 ADD PUSH2 0x12D3 JUMP JUMPDEST PUSH1 0x20 PUSH1 0x40 MLOAD DUP1 DUP4 SUB DUP2 PUSH1 0x0 DUP8 DUP1 EXTCODESIZE ISZERO DUP1 ISZERO PUSH2 0x85A JUMPI PUSH1 0x0 DUP1 REVERT JUMPDEST POP GAS CALL ISZERO DUP1 ISZERO PUSH2 0x86E JUMPI RETURNDATASIZE PUSH1 0x0 DUP1 RETURNDATACOPY RETURNDATASIZE PUSH1 0x0 REVERT JUMPDEST POP POP POP POP PUSH1 0x40 MLOAD RETURNDATASIZE PUSH1 0x1F NOT PUSH1 0x1F DUP3 ADD AND DUP3 ADD DUP1 PUSH1 0x40 MSTORE POP PUSH2 0x892 SWAP2 SWAP1 DUP2 ADD SWAP1 PUSH2 0xE9C JUMP JUMPDEST POP PUSH1 0x1 PUSH1 0x1 PUSH1 0xA0 SHL SUB DUP3 DUP2 AND PUSH1 0x0 SWAP1 DUP2 MSTORE PUSH1 0x1 PUSH1 0x20 MSTORE PUSH1 0x40 SWAP1 KECCAK256 DUP1 SLOAD SWAP1 SWAP2 AND CALLER EQ PUSH2 0x8CF JUMPI PUSH1 0x40 MLOAD PUSH3 0x461BCD PUSH1 0xE5 SHL DUP2 MSTORE PUSH1 0x4 ADD PUSH2 0x305 SWAP1 PUSH2 0x1346 JUMP JUMPDEST DUP1 PUSH1 0x3 ADD SLOAD PUSH4 0x27B832B7 PUSH1 0xE1 SHL EQ PUSH2 0x8F9 JUMPI PUSH1 0x40 MLOAD PUSH3 0x461BCD PUSH1 0xE5 SHL DUP2 MSTORE PUSH1 0x4 ADD PUSH2 0x305 SWAP1 PUSH2 0x1366 JUMP JUMPDEST DUP1 SLOAD PUSH1 0x1 DUP3 ADD SLOAD PUSH1 0x40 MLOAD PUSH4 0x23B872DD PUSH1 0xE0 SHL DUP2 MSTORE PUSH1 0x1 PUSH1 0x1 PUSH1 0xA0 SHL SUB DUP7 DUP2 AND SWAP4 PUSH4 0x23B872DD SWAP4 PUSH2 0x931 SWAP4 ADDRESS SWAP4 SWAP1 SWAP3 AND SWAP2 PUSH1 0x4 ADD PUSH2 0x11FA JUMP JUMPDEST PUSH1 0x0 PUSH1 0x40 MLOAD DUP1 DUP4 SUB DUP2 PUSH1 0x0 DUP8 DUP1 EXTCODESIZE ISZERO DUP1 ISZERO PUSH2 0x94B JUMPI PUSH1 0x0 DUP1 REVERT JUMPDEST POP GAS CALL ISZERO DUP1 ISZERO PUSH2 0x95F JUMPI RETURNDATASIZE PUSH1 0x0 DUP1 RETURNDATACOPY RETURNDATASIZE PUSH1 0x0 REVERT JUMPDEST POP POP PUSH9 0x10D85B98D95B1B1959 PUSH1 0xBA SHL PUSH1 0x3 DUP5 ADD SSTORE POP POP PUSH1 0x40 MLOAD PUSH1 0x0 DUP1 MLOAD PUSH1 0x20 PUSH2 0x149C DUP4 CODECOPY DUP2 MLOAD SWAP2 MSTORE SWAP1 PUSH2 0x7F4 SWAP1 DUP6 SWAP1 PUSH2 0x1208 JUMP JUMPDEST POP PUSH1 0x0 SWAP1 JUMP JUMPDEST PUSH1 0x0 SLOAD PUSH1 0x40 MLOAD PUSH4 0x4DD5BFA5 PUSH1 0xE1 SHL DUP2 MSTORE PUSH1 0x1 PUSH1 0x1 PUSH1 0xA0 SHL SUB SWAP1 SWAP2 AND SWAP1 PUSH4 0x9BAB7F4A SWAP1 PUSH2 0x9C9 SWAP1 DUP6 SWAP1 PUSH1 0x4 ADD PUSH2 0x12F2 JUMP JUMPDEST PUSH1 0x20 PUSH1 0x40 MLOAD DUP1 DUP4 SUB DUP2 PUSH1 0x0 DUP8 DUP1 EXTCODESIZE ISZERO DUP1 ISZERO PUSH2 0x9E3 JUMPI PUSH1 0x0 DUP1 REVERT JUMPDEST POP GAS CALL ISZERO DUP1 ISZERO PUSH2 0x9F7 JUMPI RETURNDATASIZE PUSH1 0x0 DUP1 RETURNDATACOPY RETURNDATASIZE PUSH1 0x0 REVERT JUMPDEST POP POP POP POP PUSH1 0x40 MLOAD RETURNDATASIZE PUSH1 0x1F NOT PUSH1 0x1F DUP3 ADD AND DUP3 ADD DUP1 PUSH1 0x40 MSTORE POP PUSH2 0xA1B SWAP2 SWAP1 DUP2 ADD SWAP1 PUSH2 0xE9C JUMP JUMPDEST POP PUSH1 0x1 PUSH1 0x1 PUSH1 0xA0 SHL SUB DUP3 DUP2 AND PUSH1 0x0 SWAP1 DUP2 MSTORE PUSH1 0x1 PUSH1 0x20 MSTORE PUSH1 0x40 SWAP1 KECCAK256 DUP1 SLOAD SWAP1 SWAP2 AND CALLER EQ PUSH2 0xA58 JUMPI PUSH1 0x40 MLOAD PUSH3 0x461BCD PUSH1 0xE5 SHL DUP2 MSTORE PUSH1 0x4 ADD PUSH2 0x305 SWAP1 PUSH2 0x1356 JUMP JUMPDEST PUSH1 0x1 DUP2 ADD SLOAD PUSH1 0x40 MLOAD PUSH4 0x23B872DD PUSH1 0xE0 SHL DUP2 MSTORE PUSH1 0x1 PUSH1 0x1 PUSH1 0xA0 SHL SUB DUP6 AND SWAP2 PUSH4 0x23B872DD SWAP2 PUSH2 0xA8C SWAP2 CALLER SWAP2 ADDRESS SWAP2 SWAP1 PUSH1 0x4 ADD PUSH2 0x11D2 JUMP JUMPDEST PUSH1 0x0 PUSH1 0x40 MLOAD DUP1 DUP4 SUB DUP2 PUSH1 0x0 DUP8 DUP1 EXTCODESIZE ISZERO DUP1 ISZERO PUSH2 0xAA6 JUMPI PUSH1 0x0 DUP1 REVERT JUMPDEST POP GAS CALL ISZERO DUP1 ISZERO PUSH2 0xABA JUMPI RETURNDATASIZE PUSH1 0x0 DUP1 RETURNDATACOPY RETURNDATASIZE PUSH1 0x0 REVERT JUMPDEST POP POP PUSH4 0x27B832B7 PUSH1 0xE1 SHL PUSH1 0x3 DUP5 ADD SSTORE POP POP PUSH1 0x40 MLOAD PUSH1 0x0 DUP1 MLOAD PUSH1 0x20 PUSH2 0x149C DUP4 CODECOPY DUP2 MLOAD SWAP2 MSTORE SWAP1 PUSH2 0x7F4 SWAP1 DUP6 SWAP1 PUSH2 0x1222 JUMP JUMPDEST PUSH1 0x0 DUP1 SWAP4 POP SWAP4 SWAP2 POP POP JUMP JUMPDEST PUSH1 0x1 PUSH1 0x20 DUP2 SWAP1 MSTORE PUSH1 0x0 SWAP2 DUP3 MSTORE PUSH1 0x40 SWAP1 SWAP2 KECCAK256 DUP1 SLOAD SWAP2 DUP2 ADD SLOAD PUSH1 0x2 DUP3 ADD SLOAD PUSH1 0x3 SWAP1 SWAP3 ADD SLOAD PUSH1 0x1 PUSH1 0x1 PUSH1 0xA0 SHL SUB SWAP1 SWAP4 AND SWAP3 SWAP1 SWAP2 SWAP1 DUP5 JUMP JUMPDEST PUSH2 0xB30 PUSH2 0xC1C JUMP JUMPDEST PUSH2 0xB38 PUSH2 0xC1C JUMP JUMPDEST POP POP PUSH1 0x1 PUSH1 0x1 PUSH1 0xA0 SHL SUB SWAP1 DUP2 AND PUSH1 0x0 SWAP1 DUP2 MSTORE PUSH1 0x1 PUSH1 0x20 DUP2 DUP2 MSTORE PUSH1 0x40 SWAP3 DUP4 SWAP1 KECCAK256 DUP4 MLOAD PUSH1 0x80 DUP2 ADD DUP6 MSTORE DUP2 SLOAD SWAP1 SWAP6 AND DUP6 MSTORE SWAP2 DUP3 ADD SLOAD SWAP1 DUP5 ADD MSTORE PUSH1 0x2 DUP2 ADD SLOAD SWAP2 DUP4 ADD SWAP2 SWAP1 SWAP2 MSTORE PUSH1 0x3 ADD SLOAD PUSH1 0x60 DUP3 ADD MSTORE SWAP1 JUMP JUMPDEST PUSH1 0x4 SLOAD PUSH1 0x1 PUSH1 0x1 PUSH1 0xA0 SHL SUB AND DUP2 JUMP JUMPDEST PUSH1 0x1 PUSH1 0x1 PUSH1 0xA0 SHL SUB SWAP3 DUP4 AND PUSH1 0x0 SWAP1 DUP2 MSTORE PUSH1 0x1 PUSH1 0x20 MSTORE PUSH1 0x40 SWAP1 KECCAK256 DUP1 SLOAD PUSH1 0x1 PUSH1 0x1 PUSH1 0xA0 SHL SUB NOT AND SWAP2 SWAP1 SWAP4 AND OR SWAP1 SWAP2 SSTORE POP JUMP JUMPDEST PUSH1 0x40 MLOAD DUP1 PUSH2 0x100 ADD PUSH1 0x40 MSTORE DUP1 PUSH1 0x0 PUSH1 0x1 PUSH1 0x1 PUSH1 0xA0 SHL SUB AND DUP2 MSTORE PUSH1 0x20 ADD PUSH1 0x60 DUP2 MSTORE PUSH1 0x20 ADD PUSH1 0x60 DUP2 MSTORE PUSH1 0x20 ADD PUSH1 0x0 PUSH1 0x1 PUSH1 0x1 PUSH1 0xA0 SHL SUB AND DUP2 MSTORE PUSH1 0x20 ADD PUSH1 0x0 DUP2 MSTORE PUSH1 0x20 ADD PUSH1 0x60 DUP2 MSTORE PUSH1 0x20 ADD PUSH1 0x60 DUP2 MSTORE PUSH1 0x20 ADD PUSH1 0x0 DUP2 MSTORE POP SWAP1 JUMP JUMPDEST PUSH1 0x40 DUP1 MLOAD PUSH1 0x80 DUP2 ADD DUP3 MSTORE PUSH1 0x0 DUP1 DUP3 MSTORE PUSH1 0x20 DUP3 ADD DUP2 SWAP1 MSTORE SWAP2 DUP2 ADD DUP3 SWAP1 MSTORE PUSH1 0x60 DUP2 ADD SWAP2 SWAP1 SWAP2 MSTORE SWAP1 JUMP JUMPDEST DUP1 CALLDATALOAD PUSH2 0xC4E DUP2 PUSH2 0x1469 JUMP JUMPDEST SWAP3 SWAP2 POP POP JUMP JUMPDEST DUP1 MLOAD PUSH2 0xC4E DUP2 PUSH2 0x1469 JUMP JUMPDEST DUP1 MLOAD PUSH2 0xC4E DUP2 PUSH2 0x1480 JUMP JUMPDEST DUP1 CALLDATALOAD PUSH2 0xC4E DUP2 PUSH2 0x1489 JUMP JUMPDEST DUP1 MLOAD PUSH2 0xC4E DUP2 PUSH2 0x1489 JUMP JUMPDEST PUSH1 0x0 DUP3 PUSH1 0x1F DUP4 ADD SLT PUSH2 0xC91 JUMPI PUSH1 0x0 DUP1 REVERT JUMPDEST DUP2 MLOAD PUSH2 0xCA4 PUSH2 0xC9F DUP3 PUSH2 0x13D7 JUMP JUMPDEST PUSH2 0x13B0 JUMP JUMPDEST SWAP2 POP DUP1 DUP3 MSTORE PUSH1 0x20 DUP4 ADD PUSH1 0x20 DUP4 ADD DUP6 DUP4 DUP4 ADD GT ISZERO PUSH2 0xCC0 JUMPI PUSH1 0x0 DUP1 REVERT JUMPDEST PUSH2 0xCCB DUP4 DUP3 DUP5 PUSH2 0x143D JUMP JUMPDEST POP POP POP SWAP3 SWAP2 POP POP JUMP JUMPDEST PUSH1 0x0 PUSH2 0x100 DUP3 DUP5 SUB SLT ISZERO PUSH2 0xCE7 JUMPI PUSH1 0x0 DUP1 REVERT JUMPDEST PUSH2 0xCF2 PUSH2 0x100 PUSH2 0x13B0 JUMP JUMPDEST SWAP1 POP PUSH1 0x0 PUSH2 0xD00 DUP5 DUP5 PUSH2 0xC75 JUMP JUMPDEST DUP3 MSTORE POP PUSH1 0x20 DUP3 ADD MLOAD PUSH8 0xFFFFFFFFFFFFFFFF DUP2 GT ISZERO PUSH2 0xD1D JUMPI PUSH1 0x0 DUP1 REVERT JUMPDEST PUSH2 0xD29 DUP5 DUP3 DUP6 ADD PUSH2 0xC80 JUMP JUMPDEST PUSH1 0x20 DUP4 ADD MSTORE POP PUSH1 0x40 DUP3 ADD MLOAD PUSH8 0xFFFFFFFFFFFFFFFF DUP2 GT ISZERO PUSH2 0xD49 JUMPI PUSH1 0x0 DUP1 REVERT JUMPDEST PUSH2 0xD55 DUP5 DUP3 DUP6 ADD PUSH2 0xC80 JUMP JUMPDEST PUSH1 0x40 DUP4 ADD MSTORE POP PUSH1 0x60 PUSH2 0xD69 DUP5 DUP3 DUP6 ADD PUSH2 0xC54 JUMP JUMPDEST PUSH1 0x60 DUP4 ADD MSTORE POP PUSH1 0x80 PUSH2 0xD7D DUP5 DUP3 DUP6 ADD PUSH2 0xE00 JUMP JUMPDEST PUSH1 0x80 DUP4 ADD MSTORE POP PUSH1 0xA0 DUP3 ADD MLOAD PUSH8 0xFFFFFFFFFFFFFFFF DUP2 GT ISZERO PUSH2 0xD9D JUMPI PUSH1 0x0 DUP1 REVERT JUMPDEST PUSH2 0xDA9 DUP5 DUP3 DUP6 ADD PUSH2 0xC80 JUMP JUMPDEST PUSH1 0xA0 DUP4 ADD MSTORE POP PUSH1 0xC0 DUP3 ADD MLOAD PUSH8 0xFFFFFFFFFFFFFFFF DUP2 GT ISZERO PUSH2 0xDC9 JUMPI PUSH1 0x0 DUP1 REVERT JUMPDEST PUSH2 0xDD5 DUP5 DUP3 DUP6 ADD PUSH2 0xC80 JUMP JUMPDEST PUSH1 0xC0 DUP4 ADD MSTORE POP PUSH1 0xE0 PUSH2 0xDE9 DUP5 DUP3 DUP6 ADD PUSH2 0xE00 JUMP JUMPDEST PUSH1 0xE0 DUP4 ADD MSTORE POP SWAP3 SWAP2 POP POP JUMP JUMPDEST DUP1 CALLDATALOAD PUSH2 0xC4E DUP2 PUSH2 0x1492 JUMP JUMPDEST DUP1 MLOAD PUSH2 0xC4E DUP2 PUSH2 0x1492 JUMP JUMPDEST PUSH1 0x0 PUSH1 0x20 DUP3 DUP5 SUB SLT ISZERO PUSH2 0xE1D JUMPI PUSH1 0x0 DUP1 REVERT JUMPDEST PUSH1 0x0 PUSH2 0xE29 DUP5 DUP5 PUSH2 0xC43 JUMP JUMPDEST SWAP5 SWAP4 POP POP POP POP JUMP JUMPDEST PUSH1 0x0 PUSH1 0x20 DUP3 DUP5 SUB SLT ISZERO PUSH2 0xE43 JUMPI PUSH1 0x0 DUP1 REVERT JUMPDEST PUSH1 0x0 PUSH2 0xE29 DUP5 DUP5 PUSH2 0xC54 JUMP JUMPDEST PUSH1 0x0 DUP1 PUSH1 0x0 PUSH1 0x60 DUP5 DUP7 SUB SLT ISZERO PUSH2 0xE64 JUMPI PUSH1 0x0 DUP1 REVERT JUMPDEST PUSH1 0x0 PUSH2 0xE70 DUP7 DUP7 PUSH2 0xC43 JUMP JUMPDEST SWAP4 POP POP PUSH1 0x20 PUSH2 0xE81 DUP7 DUP3 DUP8 ADD PUSH2 0xC43 JUMP JUMPDEST SWAP3 POP POP PUSH1 0x40 PUSH2 0xE92 DUP7 DUP3 DUP8 ADD PUSH2 0xDF5 JUMP JUMPDEST SWAP2 POP POP SWAP3 POP SWAP3 POP SWAP3 JUMP JUMPDEST PUSH1 0x0 PUSH1 0x20 DUP3 DUP5 SUB SLT ISZERO PUSH2 0xEAE JUMPI PUSH1 0x0 DUP1 REVERT JUMPDEST PUSH1 0x0 PUSH2 0xE29 DUP5 DUP5 PUSH2 0xC5F JUMP JUMPDEST PUSH1 0x0 PUSH1 0x20 DUP3 DUP5 SUB SLT ISZERO PUSH2 0xECC JUMPI PUSH1 0x0 DUP1 REVERT JUMPDEST PUSH1 0x0 PUSH2 0xE29 DUP5 DUP5 PUSH2 0xC6A JUMP JUMPDEST PUSH1 0x0 DUP1 PUSH1 0x40 DUP4 DUP6 SUB SLT ISZERO PUSH2 0xEEB JUMPI PUSH1 0x0 DUP1 REVERT JUMPDEST PUSH1 0x0 PUSH2 0xEF7 DUP6 DUP6 PUSH2 0xC6A JUMP JUMPDEST SWAP3 POP POP PUSH1 0x20 PUSH2 0xF08 DUP6 DUP3 DUP7 ADD PUSH2 0xDF5 JUMP JUMPDEST SWAP2 POP POP SWAP3 POP SWAP3 SWAP1 POP JUMP JUMPDEST PUSH1 0x0 DUP1 PUSH1 0x0 PUSH1 0x60 DUP5 DUP7 SUB SLT ISZERO PUSH2 0xF27 JUMPI PUSH1 0x0 DUP1 REVERT JUMPDEST PUSH1 0x0 PUSH2 0xF33 DUP7 DUP7 PUSH2 0xC6A JUMP JUMPDEST SWAP4 POP POP PUSH1 0x20 PUSH2 0xF44 DUP7 DUP3 DUP8 ADD PUSH2 0xDF5 JUMP JUMPDEST SWAP3 POP POP PUSH1 0x40 PUSH2 0xE92 DUP7 DUP3 DUP8 ADD PUSH2 0xC43 JUMP JUMPDEST PUSH1 0x0 DUP1 PUSH1 0x0 PUSH1 0x60 DUP5 DUP7 SUB SLT ISZERO PUSH2 0xF6A JUMPI PUSH1 0x0 DUP1 REVERT JUMPDEST PUSH1 0x0 PUSH2 0xF76 DUP7 DUP7 PUSH2 0xC6A JUMP JUMPDEST SWAP4 POP POP PUSH1 0x20 PUSH2 0xE81 DUP7 DUP3 DUP8 ADD PUSH2 0xDF5 JUMP JUMPDEST PUSH1 0x0 PUSH1 0x20 DUP3 DUP5 SUB SLT ISZERO PUSH2 0xF99 JUMPI PUSH1 0x0 DUP1 REVERT JUMPDEST DUP2 MLOAD PUSH8 0xFFFFFFFFFFFFFFFF DUP2 GT ISZERO PUSH2 0xFB0 JUMPI PUSH1 0x0 DUP1 REVERT JUMPDEST PUSH2 0xE29 DUP5 DUP3 DUP6 ADD PUSH2 0xCD4 JUMP JUMPDEST PUSH1 0x0 PUSH1 0x20 DUP3 DUP5 SUB SLT ISZERO PUSH2 0xFCE JUMPI PUSH1 0x0 DUP1 REVERT JUMPDEST PUSH1 0x0 PUSH2 0xE29 DUP5 DUP5 PUSH2 0xDF5 JUMP JUMPDEST PUSH2 0xFE3 DUP2 PUSH2 0x1432 JUMP JUMPDEST DUP3 MSTORE POP POP JUMP JUMPDEST PUSH2 0xFE3 DUP2 PUSH2 0x1408 JUMP JUMPDEST PUSH2 0xFE3 DUP2 PUSH2 0x1413 JUMP JUMPDEST PUSH2 0xFE3 DUP2 PUSH2 0x1418 JUMP JUMPDEST PUSH2 0xFE3 DUP2 PUSH2 0x141B JUMP JUMPDEST PUSH1 0x0 PUSH2 0x101A PUSH1 0x26 DUP4 PUSH2 0x13FF JUMP JUMPDEST PUSH32 0x54726164652063616E2062652063616E63656C6C6564206F6E6C792062792073 DUP2 MSTORE PUSH6 0x32B63632B917 PUSH1 0xD1 SHL PUSH1 0x20 DUP3 ADD MSTORE PUSH1 0x40 ADD SWAP3 SWAP2 POP POP JUMP JUMPDEST PUSH1 0x0 PUSH2 0x1062 PUSH1 0x21 DUP4 PUSH2 0x13FF JUMP JUMPDEST PUSH32 0x54726164652063616E206265206F70656E206F6E6C792062792073656C6C6572 DUP2 MSTORE PUSH1 0x17 PUSH1 0xF9 SHL PUSH1 0x20 DUP3 ADD MSTORE PUSH1 0x40 ADD SWAP3 SWAP2 POP POP JUMP JUMPDEST PUSH1 0x0 PUSH2 0x10A5 PUSH1 0x12 DUP4 PUSH2 0x13FF JUMP JUMPDEST PUSH18 0x2A3930B2329034B9903737BA1027B832B717 PUSH1 0x71 SHL DUP2 MSTORE PUSH1 0x20 ADD SWAP3 SWAP2 POP POP JUMP JUMPDEST PUSH9 0x10D85B98D95B1B1959 PUSH1 0xBA SHL SWAP1 MSTORE JUMP JUMPDEST PUSH1 0x0 PUSH2 0x10E4 PUSH1 0x9 DUP4 PUSH2 0x13FF JUMP JUMPDEST PUSH9 0x10D85B98D95B1B1959 PUSH1 0xBA SHL DUP2 MSTORE PUSH1 0x20 ADD SWAP3 SWAP2 POP POP JUMP JUMPDEST PUSH4 0x27B832B7 PUSH1 0xE1 SHL SWAP1 MSTORE JUMP JUMPDEST PUSH1 0x0 PUSH2 0x1115 PUSH1 0x4 DUP4 PUSH2 0x13FF JUMP JUMPDEST PUSH4 0x27B832B7 PUSH1 0xE1 SHL DUP2 MSTORE PUSH1 0x20 ADD SWAP3 SWAP2 POP POP JUMP JUMPDEST PUSH1 0x0 PUSH2 0x1135 PUSH1 0x2A DUP4 PUSH2 0x13FF JUMP JUMPDEST PUSH32 0x6D73672E76616C75652073686F756C6420626520657175616C20746F20746865 DUP2 MSTORE PUSH10 0x8189D5E505B5BDD5B9D PUSH1 0xB2 SHL PUSH1 0x20 DUP3 ADD MSTORE PUSH1 0x40 ADD SWAP3 SWAP2 POP POP JUMP JUMPDEST DUP1 MLOAD PUSH1 0x80 DUP4 ADD SWAP1 PUSH2 0x1185 DUP5 DUP3 PUSH2 0xFE9 JUMP JUMPDEST POP PUSH1 0x20 DUP3 ADD MLOAD PUSH2 0x1198 PUSH1 0x20 DUP6 ADD DUP3 PUSH2 0xFFB JUMP JUMPDEST POP PUSH1 0x40 DUP3 ADD MLOAD PUSH2 0x11AB PUSH1 0x40 DUP6 ADD DUP3 PUSH2 0xFFB JUMP JUMPDEST POP PUSH1 0x60 DUP3 ADD MLOAD PUSH2 0x11BE PUSH1 0x60 DUP6 ADD DUP3 PUSH2 0xFFB JUMP JUMPDEST POP POP POP POP JUMP JUMPDEST PUSH1 0x20 DUP2 ADD PUSH2 0xC4E DUP3 DUP5 PUSH2 0xFE9 JUMP JUMPDEST PUSH1 0x60 DUP2 ADD PUSH2 0x11E0 DUP3 DUP7 PUSH2 0xFDA JUMP JUMPDEST PUSH2 0x11ED PUSH1 0x20 DUP4 ADD DUP6 PUSH2 0xFE9 JUMP JUMPDEST PUSH2 0xE29 PUSH1 0x40 DUP4 ADD DUP5 PUSH2 0xFFB JUMP JUMPDEST PUSH1 0x60 DUP2 ADD PUSH2 0x11E0 DUP3 DUP7 PUSH2 0xFE9 JUMP JUMPDEST PUSH1 0x40 DUP2 ADD PUSH2 0x1216 DUP3 DUP5 PUSH2 0xFE9 JUMP JUMPDEST PUSH2 0xC4E PUSH1 0x20 DUP4 ADD PUSH2 0x10C6 JUMP JUMPDEST PUSH1 0x40 DUP2 ADD PUSH2 0x1230 DUP3 DUP5 PUSH2 0xFE9 JUMP JUMPDEST PUSH2 0xC4E PUSH1 0x20 DUP4 ADD PUSH2 0x10FC JUMP JUMPDEST PUSH1 0x40 DUP2 ADD PUSH2 0x124A DUP3 DUP6 PUSH2 0xFE9 JUMP JUMPDEST PUSH2 0x1257 PUSH1 0x20 DUP4 ADD DUP5 PUSH2 0xFFB JUMP JUMPDEST SWAP4 SWAP3 POP POP POP JUMP JUMPDEST PUSH1 0x80 DUP2 ADD PUSH2 0x126C DUP3 DUP8 PUSH2 0xFE9 JUMP JUMPDEST PUSH2 0x1279 PUSH1 0x20 DUP4 ADD DUP7 PUSH2 0xFFB JUMP JUMPDEST PUSH2 0x1286 PUSH1 0x40 DUP4 ADD DUP6 PUSH2 0xFFB JUMP JUMPDEST PUSH2 0x1293 PUSH1 0x60 DUP4 ADD DUP5 PUSH2 0xFFB JUMP JUMPDEST SWAP6 SWAP5 POP POP POP POP POP JUMP JUMPDEST PUSH1 0x20 DUP2 ADD PUSH2 0xC4E DUP3 DUP5 PUSH2 0xFF2 JUMP JUMPDEST PUSH1 0x20 DUP2 ADD PUSH2 0xC4E DUP3 DUP5 PUSH2 0x1004 JUMP JUMPDEST PUSH1 0x40 DUP2 ADD PUSH2 0x12C6 DUP3 DUP6 PUSH2 0x1004 JUMP JUMPDEST PUSH2 0x1257 PUSH1 0x20 DUP4 ADD DUP5 PUSH2 0xFE9 JUMP JUMPDEST PUSH1 0x40 DUP2 ADD PUSH2 0x12E1 DUP3 DUP5 PUSH2 0x1004 JUMP JUMPDEST DUP2 DUP2 SUB PUSH1 0x20 DUP4 ADD MSTORE PUSH2 0x1257 DUP2 PUSH2 0x10D7 JUMP JUMPDEST PUSH1 0x40 DUP2 ADD PUSH2 0x1300 DUP3 DUP5 PUSH2 0x1004 JUMP JUMPDEST DUP2 DUP2 SUB PUSH1 0x20 DUP4 ADD MSTORE PUSH2 0x1257 DUP2 PUSH2 0x1108 JUMP JUMPDEST PUSH1 0x80 DUP2 ADD PUSH2 0x131F DUP3 DUP8 PUSH2 0x1004 JUMP JUMPDEST PUSH2 0x132C PUSH1 0x20 DUP4 ADD DUP7 PUSH2 0xFFB JUMP JUMPDEST PUSH2 0x1339 PUSH1 0x40 DUP4 ADD DUP6 PUSH2 0xFE9 JUMP JUMPDEST PUSH2 0x1293 PUSH1 0x60 DUP4 ADD DUP5 PUSH2 0xFE9 JUMP JUMPDEST PUSH1 0x20 DUP1 DUP3 MSTORE DUP2 ADD PUSH2 0xC4E DUP2 PUSH2 0x100D JUMP JUMPDEST PUSH1 0x20 DUP1 DUP3 MSTORE DUP2 ADD PUSH2 0xC4E DUP2 PUSH2 0x1055 JUMP JUMPDEST PUSH1 0x20 DUP1 DUP3 MSTORE DUP2 ADD PUSH2 0xC4E DUP2 PUSH2 0x1098 JUMP JUMPDEST PUSH1 0x20 DUP1 DUP3 MSTORE DUP2 ADD PUSH2 0xC4E DUP2 PUSH2 0x1128 JUMP JUMPDEST PUSH1 0x80 DUP2 ADD PUSH2 0xC4E DUP3 DUP5 PUSH2 0x1174 JUMP JUMPDEST PUSH1 0x20 DUP2 ADD PUSH2 0xC4E DUP3 DUP5 PUSH2 0xFFB JUMP JUMPDEST PUSH1 0x40 DUP2 ADD PUSH2 0x124A DUP3 DUP6 PUSH2 0xFFB JUMP JUMPDEST PUSH1 0x40 MLOAD DUP2 DUP2 ADD PUSH8 0xFFFFFFFFFFFFFFFF DUP2 GT DUP3 DUP3 LT OR ISZERO PUSH2 0x13CF JUMPI PUSH1 0x0 DUP1 REVERT JUMPDEST PUSH1 0x40 MSTORE SWAP2 SWAP1 POP JUMP JUMPDEST PUSH1 0x0 PUSH8 0xFFFFFFFFFFFFFFFF DUP3 GT ISZERO PUSH2 0x13EE JUMPI PUSH1 0x0 DUP1 REVERT JUMPDEST POP PUSH1 0x20 PUSH1 0x1F SWAP2 SWAP1 SWAP2 ADD PUSH1 0x1F NOT AND ADD SWAP1 JUMP JUMPDEST SWAP1 DUP2 MSTORE PUSH1 0x20 ADD SWAP1 JUMP JUMPDEST PUSH1 0x0 PUSH2 0xC4E DUP3 PUSH2 0x1426 JUMP JUMPDEST ISZERO ISZERO SWAP1 JUMP JUMPDEST SWAP1 JUMP JUMPDEST PUSH1 0x0 PUSH2 0xC4E DUP3 PUSH2 0x1408 JUMP JUMPDEST PUSH1 0x1 PUSH1 0x1 PUSH1 0xA0 SHL SUB AND SWAP1 JUMP JUMPDEST PUSH1 0x0 PUSH2 0xC4E DUP3 PUSH2 0x141B JUMP JUMPDEST PUSH1 0x0 JUMPDEST DUP4 DUP2 LT ISZERO PUSH2 0x1458 JUMPI DUP2 DUP2 ADD MLOAD DUP4 DUP3 ADD MSTORE PUSH1 0x20 ADD PUSH2 0x1440 JUMP JUMPDEST DUP4 DUP2 GT ISZERO PUSH2 0x11BE JUMPI POP POP PUSH1 0x0 SWAP2 ADD MSTORE JUMP JUMPDEST PUSH2 0x1472 DUP2 PUSH2 0x1408 JUMP JUMPDEST DUP2 EQ PUSH2 0x147D JUMPI PUSH1 0x0 DUP1 REVERT JUMPDEST POP JUMP JUMPDEST PUSH2 0x1472 DUP2 PUSH2 0x1413 JUMP JUMPDEST PUSH2 0x1472 DUP2 PUSH2 0x141B JUMP JUMPDEST PUSH2 0x1472 DUP2 PUSH2 0x1418 JUMP INVALID 0xEE SIGNEXTEND 0xD1 0xD 0xBD 0x5C 0x21 MLOAD DELEGATECALL RETURNDATACOPY 0xD2 STATICCALL PUSH11 0xF0584FBAD842AA901D657F CODECOPY SELFDESTRUCT REVERT EQ ADDMOD 0x22 0xAE PUSH17 0xA365627A7A723158205195C9C8C6FBE8A2 MSIZE PUSH29 0xFD0669E642C9894285B88DD3D428BECDD661342274BE6C657870657269 PUSH14 0x656E74616CF564736F6C63430005 LT STOP BLOCKHASH "
		},
		"gasEstimates": {
			"creation": {
				"codeDepositCost": "1074800",
				"executionCost": "infinite",
				"totalCost": "infinite"
			},
			"external": {
				"PHOTO_NFT_MARKETPLACE()": "infinite",
				"buyPhotoNFT(address)": "infinite",
				"cancelTrade(address,uint256)": "infinite",
				"getReputationCount(uint256)": "infinite",
				"getTrade(address)": "infinite",
				"openTrade(address,uint256)": "infinite",
				"openTradeWhenCreateNewPhotoNFT(address,uint256,uint256)": "infinite",
				"photoNFTData()": "infinite",
				"reputation(address,address,uint256)": "infinite",
				"trades(address)": "infinite",
				"transferOwnershipOfPhotoNFT(address,uint256,address)": "infinite"
			}
		},
		"methodIdentifiers": {
			"PHOTO_NFT_MARKETPLACE()": "4fe71d13",
			"buyPhotoNFT(address)": "16f946ef",
			"cancelTrade(address,uint256)": "759c4bf3",
			"getReputationCount(uint256)": "7cc0c9bd",
			"getTrade(address)": "ab7a6c3e",
			"openTrade(address,uint256)": "80a279c4",
			"openTradeWhenCreateNewPhotoNFT(address,uint256,uint256)": "49b1d3e7",
			"photoNFTData()": "ec039514",
			"reputation(address,address,uint256)": "a2793daf",
			"trades(address)": "a9f752e5",
			"transferOwnershipOfPhotoNFT(address,uint256,address)": "493c2176"
		}
	},
	"abi": [
		{
			"inputs": [
				{
					"internalType": "contract PhotoNFTData",
					"name": "_photoNFTData",
					"type": "address"
				}
			],
			"payable": false,
			"stateMutability": "nonpayable",
			"type": "constructor"
		},
		{
			"anonymous": false,
			"inputs": [
				{
					"indexed": false,
					"internalType": "contract PhotoNFT",
					"name": "photoNFT",
					"type": "address"
				},
				{
					"indexed": false,
					"internalType": "uint256",
					"name": "photoId",
					"type": "uint256"
				},
				{
					"indexed": false,
					"internalType": "address",
					"name": "ownerBeforeOwnershipTransferred",
					"type": "address"
				},
				{
					"indexed": false,
					"internalType": "address",
					"name": "ownerAfterOwnershipTransferred",
					"type": "address"
				}
			],
			"name": "PhotoNFTOwnershipChanged",
			"type": "event"
		},
		{
			"anonymous": false,
			"inputs": [
				{
					"indexed": false,
					"internalType": "address",
					"name": "ad",
					"type": "address"
				},
				{
					"indexed": false,
					"internalType": "bytes32",
					"name": "status",
					"type": "bytes32"
				}
			],
			"name": "TradeStatusChange",
			"type": "event"
		},
		{
			"constant": true,
			"inputs": [],
			"name": "PHOTO_NFT_MARKETPLACE",
			"outputs": [
				{
					"internalType": "address",
					"name": "",
					"type": "address"
				}
			],
			"payable": false,
			"stateMutability": "view",
			"type": "function"
		},
		{
			"constant": false,
			"inputs": [
				{
					"internalType": "contract PhotoNFT",
					"name": "_photoNFT",
					"type": "address"
				}
			],
			"name": "buyPhotoNFT",
			"outputs": [
				{
					"internalType": "bool",
					"name": "",
					"type": "bool"
				}
			],
			"payable": true,
			"stateMutability": "payable",
			"type": "function"
		},
		{
			"constant": false,
			"inputs": [
				{
					"internalType": "contract PhotoNFT",
					"name": "photoNFT",
					"type": "address"
				},
				{
					"internalType": "uint256",
					"name": "_photoId",
					"type": "uint256"
				}
			],
			"name": "cancelTrade",
			"outputs": [],
			"payable": false,
			"stateMutability": "nonpayable",
			"type": "function"
		},
		{
			"constant": true,
			"inputs": [
				{
					"internalType": "uint256",
					"name": "photoId",
					"type": "uint256"
				}
			],
			"name": "getReputationCount",
			"outputs": [
				{
					"internalType": "uint256",
					"name": "",
					"type": "uint256"
				}
			],
			"payable": false,
			"stateMutability": "view",
			"type": "function"
		},
		{
			"constant": true,
			"inputs": [
				{
					"internalType": "contract PhotoNFT",
					"name": "photoNFT",
					"type": "address"
				}
			],
			"name": "getTrade",
			"outputs": [
				{
					"components": [
						{
							"internalType": "address",
							"name": "seller",
							"type": "address"
						},
						{
							"internalType": "uint256",
							"name": "photoId",
							"type": "uint256"
						},
						{
							"internalType": "uint256",
							"name": "photoPrice",
							"type": "uint256"
						},
						{
							"internalType": "bytes32",
							"name": "status",
							"type": "bytes32"
						}
					],
					"internalType": "struct PhotoNFTTradable.Trade",
					"name": "trade_",
					"type": "tuple"
				}
			],
			"payable": false,
			"stateMutability": "view",
			"type": "function"
		},
		{
			"constant": false,
			"inputs": [
				{
					"internalType": "contract PhotoNFT",
					"name": "photoNFT",
					"type": "address"
				},
				{
					"internalType": "uint256",
					"name": "_photoId",
					"type": "uint256"
				}
			],
			"name": "openTrade",
			"outputs": [],
			"payable": false,
			"stateMutability": "nonpayable",
			"type": "function"
		},
		{
			"constant": false,
			"inputs": [
				{
					"internalType": "contract PhotoNFT",
					"name": "photoNFT",
					"type": "address"
				},
				{
					"internalType": "uint256",
					"name": "_photoId",
					"type": "uint256"
				},
				{
					"internalType": "uint256",
					"name": "_photoPrice",
					"type": "uint256"
				}
			],
			"name": "openTradeWhenCreateNewPhotoNFT",
			"outputs": [],
			"payable": false,
			"stateMutability": "nonpayable",
			"type": "function"
		},
		{
			"constant": true,
			"inputs": [],
			"name": "photoNFTData",
			"outputs": [
				{
					"internalType": "contract PhotoNFTData",
					"name": "",
					"type": "address"
				}
			],
			"payable": false,
			"stateMutability": "view",
			"type": "function"
		},
		{
			"constant": false,
			"inputs": [
				{
					"internalType": "address",
					"name": "from",
					"type": "address"
				},
				{
					"internalType": "address",
					"name": "to",
					"type": "address"
				},
				{
					"internalType": "uint256",
					"name": "photoId",
					"type": "uint256"
				}
			],
			"name": "reputation",
			"outputs": [
				{
					"internalType": "uint256",
					"name": "",
					"type": "uint256"
				},
				{
					"internalType": "uint256",
					"name": "",
					"type": "uint256"
				}
			],
			"payable": false,
			"stateMutability": "nonpayable",
			"type": "function"
		},
		{
			"constant": true,
			"inputs": [
				{
					"internalType": "address",
					"name": "",
					"type": "address"
				}
			],
			"name": "trades",
			"outputs": [
				{
					"internalType": "address",
					"name": "seller",
					"type": "address"
				},
				{
					"internalType": "uint256",
					"name": "photoId",
					"type": "uint256"
				},
				{
					"internalType": "uint256",
					"name": "photoPrice",
					"type": "uint256"
				},
				{
					"internalType": "bytes32",
					"name": "status",
					"type": "bytes32"
				}
			],
			"payable": false,
			"stateMutability": "view",
			"type": "function"
		},
		{
			"constant": false,
			"inputs": [
				{
					"internalType": "contract PhotoNFT",
					"name": "_photoNFT",
					"type": "address"
				},
				{
					"internalType": "uint256",
					"name": "_photoId",
					"type": "uint256"
				},
				{
					"internalType": "address",
					"name": "_buyer",
					"type": "address"
				}
			],
			"name": "transferOwnershipOfPhotoNFT",
			"outputs": [],
			"payable": false,
			"stateMutability": "nonpayable",
			"type": "function"
		}
	]
}