{
	"data": {
		"bytecode": {
			"linkReferences": {},
			"object": "608060405234801561001057600080fd5b50604051620026103803806200261083398101604081905261003191610084565b600280546001600160a01b03199081166001600160a01b03948516179182905560038054821693851693909317909255600180549190931691161790556100f7565b805161007e816100e0565b92915050565b6000806040838503121561009757600080fd5b60006100a38585610073565b92505060206100b485828601610073565b9150509250929050565b600061007e826100d4565b600061007e826100be565b6001600160a01b031690565b6100e9816100c9565b81146100f457600080fd5b50565b61250980620001076000396000f3fe60806040523480156200001157600080fd5b50600436106200006a5760003560e01c806371552f6c146200006f578063c4188f11146200009e578063d3e1f6e314620000b7578063d547cfb714620000dd578063dc0985c314620000e7578063ec039514146200010d575b600080fd5b620000866200008036600462000702565b62000117565b60405162000095919062000a7e565b60405180910390f35b620000a86200031c565b60405162000095919062000a8e565b620000ce620000c8366004620006c9565b6200032b565b60405162000095919062000ac1565b620000ce62000348565b620000fe620000f8366004620007b6565b62000377565b604051620000959190620008fa565b620000a86200039f565b600033606062000127846200032b565b9050600082888884896040516200013e906200061c565b6200014e95949392919062000984565b604051809103906000f0801580156200016b573d6000803e3d6000fd5b50600080546001810182558180527f290decd9548b62a8d60345a988386fc84ba6bc95484008f6362f93160ef3e5630180546001600160a01b0319166001600160a01b0384811691909117909155600354604051630633d55360e01b81529394501691630633d55391620001ee9185908d908d9033908e908e90600401620009ef565b602060405180830381600087803b1580156200020957600080fd5b505af11580156200021e573d6000803e3d6000fd5b505050506040513d601f19601f82011682018060405250620002449190810190620006a0565b50600354604051634dd5bfa560e11b81526001600160a01b0390911690639bab7f4a906200027790849060040162000a9e565b602060405180830381600087803b1580156200029257600080fd5b505af1158015620002a7573d6000803e3d6000fd5b505050506040513d601f19601f82011682018060405250620002cd9190810190620006a0565b507f15da3952715f46312a55e03dc9ea5ce0ca9e2b8297f7c8f329d378b195ab173333828a8a8a8a60405162000309969594939291906200090a565b60405180910390a1505050949350505050565b6002546001600160a01b031681565b6060620003426200033b62000348565b83620003ae565b92915050565b60408051808201909152601581527468747470733a2f2f697066732e696f2f697066732f60581b602082015290565b600081815481106200038557fe5b6000918252602090912001546001600160a01b0316905081565b6003546001600160a01b031681565b6060620003ec8383604051806020016040528060008152506040518060200160405280600081525060405180602001604052806000815250620003f3565b9392505050565b6060808690506060869050606086905060608690506060869050606081518351855187518951010101016040519080825280601f01601f19166020018201604052801562000448576020820181803883390190505b509050806000805b8851811015620004a5578881815181106200046757fe5b602001015160f81c60f81b8383806001019450815181106200048557fe5b60200101906001600160f81b031916908160001a90535060010162000450565b5060005b8751811015620004fe57878181518110620004c057fe5b602001015160f81c60f81b838380600101945081518110620004de57fe5b60200101906001600160f81b031916908160001a905350600101620004a9565b5060005b865181101562000557578681815181106200051957fe5b602001015160f81c60f81b8383806001019450815181106200053757fe5b60200101906001600160f81b031916908160001a90535060010162000502565b5060005b8551811015620005b0578581815181106200057257fe5b602001015160f81c60f81b8383806001019450815181106200059057fe5b60200101906001600160f81b031916908160001a9053506001016200055b565b5060005b84518110156200060957848181518110620005cb57fe5b602001015160f81c60f81b838380600101945081518110620005e957fe5b60200101906001600160f81b031916908160001a905350600101620005b4565b50909d9c50505050505050505050505050565b6118b58062000c1283390190565b8051620003428162000bec565b600082601f8301126200064957600080fd5b8135620006606200065a8262000afc565b62000ad4565b915080825260208301602083018583830111156200067d57600080fd5b6200068a83828462000b7e565b50505092915050565b8035620003428162000c06565b600060208284031215620006b357600080fd5b6000620006c184846200062a565b949350505050565b600060208284031215620006dc57600080fd5b813567ffffffffffffffff811115620006f457600080fd5b620006c18482850162000637565b600080600080608085870312156200071957600080fd5b843567ffffffffffffffff8111156200073157600080fd5b6200073f8782880162000637565b945050602085013567ffffffffffffffff8111156200075d57600080fd5b6200076b8782880162000637565b93505060406200077e8782880162000693565b925050606085013567ffffffffffffffff8111156200079c57600080fd5b620007aa8782880162000637565b91505092959194509250565b600060208284031215620007c957600080fd5b6000620006c1848462000693565b6000620007e58383620007fe565b505060200190565b620007f88162000b69565b82525050565b620007f88162000b54565b6000620008168262000b31565b62000822818562000b3f565b93506200082f8362000b25565b8060005b838110156200086c57620008478262000bd4565b620008538882620007d7565b9750620008608362000b39565b92505060010162000833565b509495945050505050565b620007f88162000b61565b620007f88162000b71565b60006200089a8262000b35565b620008a6818562000b3f565b9350620008b881856020860162000b8a565b620008c38162000be2565b9093019392505050565b6000620008dc60048362000b3f565b6327b832b760e11b815260200192915050565b620007f88162000b66565b60208101620003428284620007fe565b60c081016200091a8289620007ed565b62000929602083018862000882565b81810360408301526200093d81876200088d565b905081810360608301526200095381866200088d565b9050620009646080830185620008ef565b81810360a08301526200097881846200088d565b98975050505050505050565b60a08101620009948288620007fe565b8181036020830152620009a881876200088d565b90508181036040830152620009be81866200088d565b90508181036060830152620009d481856200088d565b9050620009e56080830184620008ef565b9695505050505050565b60e0808252810162000a02818a62000809565b905062000a13602083018962000882565b818103604083015262000a2781886200088d565b9050818103606083015262000a3d81876200088d565b905062000a4e6080830186620007ed565b62000a5d60a0830185620008ef565b81810360c083015262000a7181846200088d565b9998505050505050505050565b6020810162000342828462000877565b6020810162000342828462000882565b6040810162000aae828462000882565b8181036020830152620003ec81620008cd565b60208082528101620003ec81846200088d565b60405181810167ffffffffffffffff8111828210171562000af457600080fd5b604052919050565b600067ffffffffffffffff82111562000b1457600080fd5b506020601f91909101601f19160190565b60009081526020902090565b5490565b5190565b60010190565b90815260200190565b6001600160a01b031690565b6000620003428262000b48565b151590565b90565b600062000342825b6000620003428262000b54565b82818337506000910152565b60005b8381101562000ba757818101518382015260200162000b8d565b8381111562000bb7576000848401525b50505050565b60006200034262000bce8362000b66565b62000b48565b600062000342825462000bbd565b601f01601f191690565b62000bf78162000b61565b811462000c0357600080fd5b50565b62000bf78162000b6656fe60806040523480156200001157600080fd5b50604051620018b5380380620018b58339810160408190526200003491620004cd565b83838181620000536301ffc9a760e01b6001600160e01b03620000f216565b6200006e6380ac58cd60e01b6001600160e01b03620000f216565b6200008963780e9d6360e01b6001600160e01b03620000f216565b81516200009e906009906020850190620003b5565b508051620000b490600a906020840190620003b5565b50620000d0635b5e139f60e01b6001600160e01b03620000f216565b50505050620000e685836200012f60201b60201c565b5050505050506200064e565b6001600160e01b031980821614156200010a57600080fd5b6001600160e01b0319166000908152602081905260409020805460ff19166001179055565b600080620001456001600160e01b036200018116565b600c8054600101905590506200016584826001600160e01b03620001a616565b6200017a81846001600160e01b03620001ea16565b5092915050565b6000620001a06001600c546200022e60201b62000b681790919060201c565b90505b90565b620001bd82826200024a60201b62000b811760201c565b620001d282826001600160e01b036200031616565b620001e6816001600160e01b036200035416565b5050565b620001fe826001600160e01b036200039816565b6200020857600080fd5b6000828152600b6020908152604090912082516200022992840190620003b5565b505050565b6000828201838110156200024157600080fd5b90505b92915050565b6001600160a01b0382166200025e57600080fd5b62000272816001600160e01b036200039816565b156200027d57600080fd5b600081815260016020818152604080842080546001600160a01b0319166001600160a01b03881690811790915584526003825290922054620002cb929091906200022e811b62000b6817901c565b6001600160a01b0383166000818152600360205260408082209390935591518392907fddf252ad1be2c89b69c2b068fc378daa952ba7f163c4a11628f55a4df523b3ef908290a45050565b6001600160a01b0390911660009081526005602081815260408084208054868652600684529185208290559282526001810183559183529091200155565b600780546000838152600860205260408120829055600182018355919091527fa66cc928b5edb82af9bd49922954155ab7b0942694bea4ce44661d9a8736c6880155565b6000908152600160205260409020546001600160a01b0316151590565b828054600181600116156101000203166002900490600052602060002090601f016020900481019282601f10620003f857805160ff191683800117855562000428565b8280016001018555821562000428579182015b82811115620004285782518255916020019190600101906200040b565b50620004369291506200043a565b5090565b620001a391905b8082111562000436576000815560010162000441565b8051620002448162000629565b600082601f8301126200047657600080fd5b81516200048d6200048782620005bc565b62000595565b91508082526020830160208301858383011115620004aa57600080fd5b620004b7838284620005f6565b50505092915050565b8051620002448162000643565b600080600080600060a08688031215620004e657600080fd5b6000620004f4888862000457565b95505060208601516001600160401b038111156200051157600080fd5b6200051f8882890162000464565b94505060408601516001600160401b038111156200053c57600080fd5b6200054a8882890162000464565b93505060608601516001600160401b038111156200056757600080fd5b620005758882890162000464565b92505060806200058888828901620004c0565b9150509295509295909350565b6040518181016001600160401b0381118282101715620005b457600080fd5b604052919050565b60006001600160401b03821115620005d357600080fd5b506020601f91909101601f19160190565b60006001600160a01b03821662000244565b60005b8381101562000613578181015183820152602001620005f9565b8381111562000623576000848401525b50505050565b6200063481620005e4565b81146200064057600080fd5b50565b6200063481620001a3565b611257806200065e6000396000f3fe608060405234801561001057600080fd5b50600436106101165760003560e01c80636352211e116100a2578063b4a5b64611610071578063b4a5b64614610230578063b88d4fde14610238578063c87b56dd1461024b578063d0def5211461025e578063e985e9c51461027157610116565b80636352211e146101ef57806370a082311461020257806395d89b4114610215578063a22cb4651461021d57610116565b806318160ddd116100e957806318160ddd1461018e57806323b872dd146101a35780632f745c59146101b657806342842e0e146101c95780634f6ccce7146101dc57610116565b806301ffc9a71461011b57806306fdde0314610144578063081812fc14610159578063095ea7b314610179575b600080fd5b61012e610129366004610fd2565b610284565b60405161013b91906110e0565b60405180910390f35b61014c6102a3565b60405161013b91906110ee565b61016c61016736600461100e565b61033a565b60405161013b919061108e565b61018c610187366004610fa2565b61036a565b005b610196610417565b60405161013b91906110ff565b61018c6101b1366004610e64565b61041d565b6101966101c4366004610fa2565b610440565b61018c6101d7366004610e64565b61048e565b6101966101ea36600461100e565b6104a9565b61016c6101fd36600461100e565b6104dd565b610196610210366004610e0c565b6104ff565b61014c610530565b61018c61022b366004610f2a565b610591565b610196610616565b61018c610246366004610eb1565b61061c565b61014c61025936600461100e565b610642565b61012e61026c366004610f5a565b6106f5565b61012e61027f366004610e2a565b610726565b6001600160e01b03191660009081526020819052604090205460ff1690565b60098054604080516020601f600260001961010060018816150201909516949094049384018190048102820181019092528281526060939092909183018282801561032f5780601f106103045761010080835404028352916020019161032f565b820191906000526020600020905b81548152906001019060200180831161031257829003601f168201915b505050505090505b90565b600061034582610754565b61034e57600080fd5b506000908152600260205260409020546001600160a01b031690565b6000610375826104dd565b9050806001600160a01b0316836001600160a01b0316141561039657600080fd5b336001600160a01b03821614806103b257506103b28133610726565b6103bb57600080fd5b60008281526002602052604080822080546001600160a01b0319166001600160a01b0387811691821790925591518593918516917f8c5be1e5ebec7d5bd14f71427d1e84f3dd0314c0f7b2291e5b200ac8c7c3b92591a4505050565b60075490565b6104273382610771565b61043057600080fd5b61043b8383836107d0565b505050565b600061044b836104ff565b821061045657600080fd5b6001600160a01b038316600090815260056020526040902080548390811061047a57fe5b906000526020600020015490505b92915050565b61043b8383836040518060200160405280600081525061061c565b60006104b3610417565b82106104be57600080fd5b600782815481106104cb57fe5b90600052602060002001549050919050565b6000818152600160205260408120546001600160a01b03168061048857600080fd5b60006001600160a01b03821661051457600080fd5b506001600160a01b031660009081526003602052604090205490565b600a8054604080516020601f600260001961010060018816150201909516949094049384018190048102820181019092528281526060939092909183018282801561032f5780601f106103045761010080835404028352916020019161032f565b6001600160a01b0382163314156105a757600080fd5b3360008181526004602090815260408083206001600160a01b038716808552925291829020805460ff191685151517905590519091907f17307eab39ab6107e8899845ad3d59bd9653f200f220920489ca2b5937696c319061060a9085906110e0565b60405180910390a35050565b600c5481565b61062784848461041d565b610633848484846107ef565b61063c57600080fd5b50505050565b606061064d82610754565b61065657600080fd5b6000828152600b602090815260409182902080548351601f6002600019610100600186161502019093169290920491820184900484028101840190945280845290918301828280156106e95780601f106106be576101008083540402835291602001916106e9565b820191906000526020600020905b8154815290600101906020018083116106cc57829003601f168201915b50505050509050919050565b6000806107006108b4565b600c80546001019055905061071584826108d0565b61071f81846108f1565b5092915050565b6001600160a01b03918216600090815260046020908152604080832093909416825291909152205460ff1690565b6000908152600160205260409020546001600160a01b0316151590565b60008061077d836104dd565b9050806001600160a01b0316846001600160a01b031614806107b85750836001600160a01b03166107ad8461033a565b6001600160a01b0316145b806107c857506107c88185610726565b949350505050565b6107db838383610922565b6107e58382610a2f565b61043b8282610b24565b6000610803846001600160a01b0316610b62565b61080f575060016107c8565b604051630a85bd0160e11b81526000906001600160a01b0386169063150b7a02906108449033908a908990899060040161109c565b602060405180830381600087803b15801561085e57600080fd5b505af1158015610872573d6000803e3d6000fd5b505050506040513d601f19601f820116820180604052506108969190810190610ff0565b6001600160e01b031916630a85bd0160e11b14915050949350505050565b600c546000906108cb90600163ffffffff610b6816565b905090565b6108da8282610b81565b6108e48282610b24565b6108ed81610c33565b5050565b6108fa82610754565b61090357600080fd5b6000828152600b60209081526040909120825161043b92840190610cc9565b826001600160a01b0316610935826104dd565b6001600160a01b03161461094857600080fd5b6001600160a01b03821661095b57600080fd5b61096481610c77565b6001600160a01b03831660009081526003602052604090205461098e90600163ffffffff610cb416565b6001600160a01b0380851660009081526003602052604080822093909355908416815220546109c490600163ffffffff610b6816565b6001600160a01b038084166000818152600360209081526040808320959095558582526001905283812080546001600160a01b031916831790559251849391928716917fddf252ad1be2c89b69c2b068fc378daa952ba7f163c4a11628f55a4df523b3ef91a4505050565b6001600160a01b038216600090815260056020526040812054610a5990600163ffffffff610cb416565b600083815260066020526040902054909150808214610af4576001600160a01b0384166000908152600560205260408120805484908110610a9657fe5b906000526020600020015490508060056000876001600160a01b03166001600160a01b031681526020019081526020016000208381548110610ad457fe5b600091825260208083209091019290925591825260069052604090208190555b6001600160a01b0384166000908152600560205260409020805490610b1d906000198301610d47565b5050505050565b6001600160a01b0390911660009081526005602081815260408084208054868652600684529185208290559282526001810183559183529091200155565b3b151590565b600082820183811015610b7a57600080fd5b9392505050565b6001600160a01b038216610b9457600080fd5b610b9d81610754565b15610ba757600080fd5b600081815260016020818152604080842080546001600160a01b0319166001600160a01b0388169081179091558452600390915290912054610be891610b68565b6001600160a01b0383166000818152600360205260408082209390935591518392907fddf252ad1be2c89b69c2b068fc378daa952ba7f163c4a11628f55a4df523b3ef908290a45050565b600780546000838152600860205260408120829055600182018355919091527fa66cc928b5edb82af9bd49922954155ab7b0942694bea4ce44661d9a8736c6880155565b6000818152600260205260409020546001600160a01b031615610cb157600081815260026020526040902080546001600160a01b03191690555b50565b600082821115610cc357600080fd5b50900390565b828054600181600116156101000203166002900490600052602060002090601f016020900481019282601f10610d0a57805160ff1916838001178555610d37565b82800160010185558215610d37579182015b82811115610d37578251825591602001919060010190610d1c565b50610d43929150610d67565b5090565b81548183558181111561043b5760008381526020902061043b9181019083015b61033791905b80821115610d435760008155600101610d6d565b8035610488816111e5565b8035610488816111f9565b803561048881611202565b805161048881611202565b600082601f830112610dbe57600080fd5b8135610dd1610dcc82611134565b61110d565b91508082526020830160208301858383011115610ded57600080fd5b610df88382846111a3565b50505092915050565b80356104888161120b565b600060208284031215610e1e57600080fd5b60006107c88484610d81565b60008060408385031215610e3d57600080fd5b6000610e498585610d81565b9250506020610e5a85828601610d81565b9150509250929050565b600080600060608486031215610e7957600080fd5b6000610e858686610d81565b9350506020610e9686828701610d81565b9250506040610ea786828701610e01565b9150509250925092565b60008060008060808587031215610ec757600080fd5b6000610ed38787610d81565b9450506020610ee487828801610d81565b9350506040610ef587828801610e01565b925050606085013567ffffffffffffffff811115610f1257600080fd5b610f1e87828801610dad565b91505092959194509250565b60008060408385031215610f3d57600080fd5b6000610f498585610d81565b9250506020610e5a85828601610d8c565b60008060408385031215610f6d57600080fd5b6000610f798585610d81565b925050602083013567ffffffffffffffff811115610f9657600080fd5b610e5a85828601610dad565b60008060408385031215610fb557600080fd5b6000610fc18585610d81565b9250506020610e5a85828601610e01565b600060208284031215610fe457600080fd5b60006107c88484610d97565b60006020828403121561100257600080fd5b60006107c88484610da2565b60006020828403121561102057600080fd5b60006107c88484610e01565b61103581611192565b82525050565b61103581611169565b61103581611174565b60006110588261115c565b6110628185611160565b93506110728185602086016111af565b61107b816111db565b9093019392505050565b61103581610337565b60208101610488828461103b565b608081016110aa828761102c565b6110b7602083018661103b565b6110c46040830185611085565b81810360608301526110d6818461104d565b9695505050505050565b602081016104888284611044565b60208082528101610b7a818461104d565b602081016104888284611085565b60405181810167ffffffffffffffff8111828210171561112c57600080fd5b604052919050565b600067ffffffffffffffff82111561114b57600080fd5b506020601f91909101601f19160190565b5190565b90815260200190565b600061048882611186565b151590565b6001600160e01b03191690565b6001600160a01b031690565b600061048882600061048882611169565b82818337506000910152565b60005b838110156111ca5781810151838201526020016111b2565b8381111561063c5750506000910152565b601f01601f191690565b6111ee81611169565b8114610cb157600080fd5b6111ee81611174565b6111ee81611179565b6111ee8161033756fea365627a7a723158207ecc7066c395900ae5913214bdd7e4a59d618395e445f12620243fdeaedd086a6c6578706572696d656e74616cf564736f6c63430005100040a365627a7a72315820599097c0826e44267b1cf5fda47d4617cb7fbed741f62be9eeda0380df6989406c6578706572696d656e74616cf564736f6c63430005100040",
			"opcodes": "PUSH1 0x80 PUSH1 0x40 MSTORE CALLVALUE DUP1 ISZERO PUSH2 0x10 JUMPI PUSH1 0x0 DUP1 REVERT JUMPDEST POP PUSH1 0x40 MLOAD PUSH3 0x2610 CODESIZE SUB DUP1 PUSH3 0x2610 DUP4 CODECOPY DUP2 ADD PUSH1 0x40 DUP2 SWAP1 MSTORE PUSH2 0x31 SWAP2 PUSH2 0x84 JUMP JUMPDEST PUSH1 0x2 DUP1 SLOAD PUSH1 0x1 PUSH1 0x1 PUSH1 0xA0 SHL SUB NOT SWAP1 DUP2 AND PUSH1 0x1 PUSH1 0x1 PUSH1 0xA0 SHL SUB SWAP5 DUP6 AND OR SWAP2 DUP3 SWAP1 SSTORE PUSH1 0x3 DUP1 SLOAD DUP3 AND SWAP4 DUP6 AND SWAP4 SWAP1 SWAP4 OR SWAP1 SWAP3 SSTORE PUSH1 0x1 DUP1 SLOAD SWAP2 SWAP1 SWAP4 AND SWAP2 AND OR SWAP1 SSTORE PUSH2 0xF7 JUMP JUMPDEST DUP1 MLOAD PUSH2 0x7E DUP2 PUSH2 0xE0 JUMP JUMPDEST SWAP3 SWAP2 POP POP JUMP JUMPDEST PUSH1 0x0 DUP1 PUSH1 0x40 DUP4 DUP6 SUB SLT ISZERO PUSH2 0x97 JUMPI PUSH1 0x0 DUP1 REVERT JUMPDEST PUSH1 0x0 PUSH2 0xA3 DUP6 DUP6 PUSH2 0x73 JUMP JUMPDEST SWAP3 POP POP PUSH1 0x20 PUSH2 0xB4 DUP6 DUP3 DUP7 ADD PUSH2 0x73 JUMP JUMPDEST SWAP2 POP POP SWAP3 POP SWAP3 SWAP1 POP JUMP JUMPDEST PUSH1 0x0 PUSH2 0x7E DUP3 PUSH2 0xD4 JUMP JUMPDEST PUSH1 0x0 PUSH2 0x7E DUP3 PUSH2 0xBE JUMP JUMPDEST PUSH1 0x1 PUSH1 0x1 PUSH1 0xA0 SHL SUB AND SWAP1 JUMP JUMPDEST PUSH2 0xE9 DUP2 PUSH2 0xC9 JUMP JUMPDEST DUP2 EQ PUSH2 0xF4 JUMPI PUSH1 0x0 DUP1 REVERT JUMPDEST POP JUMP JUMPDEST PUSH2 0x2509 DUP1 PUSH3 0x107 PUSH1 0x0 CODECOPY PUSH1 0x0 RETURN INVALID PUSH1 0x80 PUSH1 0x40 MSTORE CALLVALUE DUP1 ISZERO PUSH3 0x11 JUMPI PUSH1 0x0 DUP1 REVERT JUMPDEST POP PUSH1 0x4 CALLDATASIZE LT PUSH3 0x6A JUMPI PUSH1 0x0 CALLDATALOAD PUSH1 0xE0 SHR DUP1 PUSH4 0x71552F6C EQ PUSH3 0x6F JUMPI DUP1 PUSH4 0xC4188F11 EQ PUSH3 0x9E JUMPI DUP1 PUSH4 0xD3E1F6E3 EQ PUSH3 0xB7 JUMPI DUP1 PUSH4 0xD547CFB7 EQ PUSH3 0xDD JUMPI DUP1 PUSH4 0xDC0985C3 EQ PUSH3 0xE7 JUMPI DUP1 PUSH4 0xEC039514 EQ PUSH3 0x10D JUMPI JUMPDEST PUSH1 0x0 DUP1 REVERT JUMPDEST PUSH3 0x86 PUSH3 0x80 CALLDATASIZE PUSH1 0x4 PUSH3 0x702 JUMP JUMPDEST PUSH3 0x117 JUMP JUMPDEST PUSH1 0x40 MLOAD PUSH3 0x95 SWAP2 SWAP1 PUSH3 0xA7E JUMP JUMPDEST PUSH1 0x40 MLOAD DUP1 SWAP2 SUB SWAP1 RETURN JUMPDEST PUSH3 0xA8 PUSH3 0x31C JUMP JUMPDEST PUSH1 0x40 MLOAD PUSH3 0x95 SWAP2 SWAP1 PUSH3 0xA8E JUMP JUMPDEST PUSH3 0xCE PUSH3 0xC8 CALLDATASIZE PUSH1 0x4 PUSH3 0x6C9 JUMP JUMPDEST PUSH3 0x32B JUMP JUMPDEST PUSH1 0x40 MLOAD PUSH3 0x95 SWAP2 SWAP1 PUSH3 0xAC1 JUMP JUMPDEST PUSH3 0xCE PUSH3 0x348 JUMP JUMPDEST PUSH3 0xFE PUSH3 0xF8 CALLDATASIZE PUSH1 0x4 PUSH3 0x7B6 JUMP JUMPDEST PUSH3 0x377 JUMP JUMPDEST PUSH1 0x40 MLOAD PUSH3 0x95 SWAP2 SWAP1 PUSH3 0x8FA JUMP JUMPDEST PUSH3 0xA8 PUSH3 0x39F JUMP JUMPDEST PUSH1 0x0 CALLER PUSH1 0x60 PUSH3 0x127 DUP5 PUSH3 0x32B JUMP JUMPDEST SWAP1 POP PUSH1 0x0 DUP3 DUP9 DUP9 DUP5 DUP10 PUSH1 0x40 MLOAD PUSH3 0x13E SWAP1 PUSH3 0x61C JUMP JUMPDEST PUSH3 0x14E SWAP6 SWAP5 SWAP4 SWAP3 SWAP2 SWAP1 PUSH3 0x984 JUMP JUMPDEST PUSH1 0x40 MLOAD DUP1 SWAP2 SUB SWAP1 PUSH1 0x0 CREATE DUP1 ISZERO DUP1 ISZERO PUSH3 0x16B JUMPI RETURNDATASIZE PUSH1 0x0 DUP1 RETURNDATACOPY RETURNDATASIZE PUSH1 0x0 REVERT JUMPDEST POP PUSH1 0x0 DUP1 SLOAD PUSH1 0x1 DUP2 ADD DUP3 SSTORE DUP2 DUP1 MSTORE PUSH32 0x290DECD9548B62A8D60345A988386FC84BA6BC95484008F6362F93160EF3E563 ADD DUP1 SLOAD PUSH1 0x1 PUSH1 0x1 PUSH1 0xA0 SHL SUB NOT AND PUSH1 0x1 PUSH1 0x1 PUSH1 0xA0 SHL SUB DUP5 DUP2 AND SWAP2 SWAP1 SWAP2 OR SWAP1 SWAP2 SSTORE PUSH1 0x3 SLOAD PUSH1 0x40 MLOAD PUSH4 0x633D553 PUSH1 0xE0 SHL DUP2 MSTORE SWAP4 SWAP5 POP AND SWAP2 PUSH4 0x633D553 SWAP2 PUSH3 0x1EE SWAP2 DUP6 SWAP1 DUP14 SWAP1 DUP14 SWAP1 CALLER SWAP1 DUP15 SWAP1 DUP15 SWAP1 PUSH1 0x4 ADD PUSH3 0x9EF JUMP JUMPDEST PUSH1 0x20 PUSH1 0x40 MLOAD DUP1 DUP4 SUB DUP2 PUSH1 0x0 DUP8 DUP1 EXTCODESIZE ISZERO DUP1 ISZERO PUSH3 0x209 JUMPI PUSH1 0x0 DUP1 REVERT JUMPDEST POP GAS CALL ISZERO DUP1 ISZERO PUSH3 0x21E JUMPI RETURNDATASIZE PUSH1 0x0 DUP1 RETURNDATACOPY RETURNDATASIZE PUSH1 0x0 REVERT JUMPDEST POP POP POP POP PUSH1 0x40 MLOAD RETURNDATASIZE PUSH1 0x1F NOT PUSH1 0x1F DUP3 ADD AND DUP3 ADD DUP1 PUSH1 0x40 MSTORE POP PUSH3 0x244 SWAP2 SWAP1 DUP2 ADD SWAP1 PUSH3 0x6A0 JUMP JUMPDEST POP PUSH1 0x3 SLOAD PUSH1 0x40 MLOAD PUSH4 0x4DD5BFA5 PUSH1 0xE1 SHL DUP2 MSTORE PUSH1 0x1 PUSH1 0x1 PUSH1 0xA0 SHL SUB SWAP1 SWAP2 AND SWAP1 PUSH4 0x9BAB7F4A SWAP1 PUSH3 0x277 SWAP1 DUP5 SWAP1 PUSH1 0x4 ADD PUSH3 0xA9E JUMP JUMPDEST PUSH1 0x20 PUSH1 0x40 MLOAD DUP1 DUP4 SUB DUP2 PUSH1 0x0 DUP8 DUP1 EXTCODESIZE ISZERO DUP1 ISZERO PUSH3 0x292 JUMPI PUSH1 0x0 DUP1 REVERT JUMPDEST POP GAS CALL ISZERO DUP1 ISZERO PUSH3 0x2A7 JUMPI RETURNDATASIZE PUSH1 0x0 DUP1 RETURNDATACOPY RETURNDATASIZE PUSH1 0x0 REVERT JUMPDEST POP POP POP POP PUSH1 0x40 MLOAD RETURNDATASIZE PUSH1 0x1F NOT PUSH1 0x1F DUP3 ADD AND DUP3 ADD DUP1 PUSH1 0x40 MSTORE POP PUSH3 0x2CD SWAP2 SWAP1 DUP2 ADD SWAP1 PUSH3 0x6A0 JUMP JUMPDEST POP PUSH32 0x15DA3952715F46312A55E03DC9EA5CE0CA9E2B8297F7C8F329D378B195AB1733 CALLER DUP3 DUP11 DUP11 DUP11 DUP11 PUSH1 0x40 MLOAD PUSH3 0x309 SWAP7 SWAP6 SWAP5 SWAP4 SWAP3 SWAP2 SWAP1 PUSH3 0x90A JUMP JUMPDEST PUSH1 0x40 MLOAD DUP1 SWAP2 SUB SWAP1 LOG1 POP POP POP SWAP5 SWAP4 POP POP POP POP JUMP JUMPDEST PUSH1 0x2 SLOAD PUSH1 0x1 PUSH1 0x1 PUSH1 0xA0 SHL SUB AND DUP2 JUMP JUMPDEST PUSH1 0x60 PUSH3 0x342 PUSH3 0x33B PUSH3 0x348 JUMP JUMPDEST DUP4 PUSH3 0x3AE JUMP JUMPDEST SWAP3 SWAP2 POP POP JUMP JUMPDEST PUSH1 0x40 DUP1 MLOAD DUP1 DUP3 ADD SWAP1 SWAP2 MSTORE PUSH1 0x15 DUP2 MSTORE PUSH21 0x68747470733A2F2F697066732E696F2F697066732F PUSH1 0x58 SHL PUSH1 0x20 DUP3 ADD MSTORE SWAP1 JUMP JUMPDEST PUSH1 0x0 DUP2 DUP2 SLOAD DUP2 LT PUSH3 0x385 JUMPI INVALID JUMPDEST PUSH1 0x0 SWAP2 DUP3 MSTORE PUSH1 0x20 SWAP1 SWAP2 KECCAK256 ADD SLOAD PUSH1 0x1 PUSH1 0x1 PUSH1 0xA0 SHL SUB AND SWAP1 POP DUP2 JUMP JUMPDEST PUSH1 0x3 SLOAD PUSH1 0x1 PUSH1 0x1 PUSH1 0xA0 SHL SUB AND DUP2 JUMP JUMPDEST PUSH1 0x60 PUSH3 0x3EC DUP4 DUP4 PUSH1 0x40 MLOAD DUP1 PUSH1 0x20 ADD PUSH1 0x40 MSTORE DUP1 PUSH1 0x0 DUP2 MSTORE POP PUSH1 0x40 MLOAD DUP1 PUSH1 0x20 ADD PUSH1 0x40 MSTORE DUP1 PUSH1 0x0 DUP2 MSTORE POP PUSH1 0x40 MLOAD DUP1 PUSH1 0x20 ADD PUSH1 0x40 MSTORE DUP1 PUSH1 0x0 DUP2 MSTORE POP PUSH3 0x3F3 JUMP JUMPDEST SWAP4 SWAP3 POP POP POP JUMP JUMPDEST PUSH1 0x60 DUP1 DUP7 SWAP1 POP PUSH1 0x60 DUP7 SWAP1 POP PUSH1 0x60 DUP7 SWAP1 POP PUSH1 0x60 DUP7 SWAP1 POP PUSH1 0x60 DUP7 SWAP1 POP PUSH1 0x60 DUP2 MLOAD DUP4 MLOAD DUP6 MLOAD DUP8 MLOAD DUP10 MLOAD ADD ADD ADD ADD PUSH1 0x40 MLOAD SWAP1 DUP1 DUP3 MSTORE DUP1 PUSH1 0x1F ADD PUSH1 0x1F NOT AND PUSH1 0x20 ADD DUP3 ADD PUSH1 0x40 MSTORE DUP1 ISZERO PUSH3 0x448 JUMPI PUSH1 0x20 DUP3 ADD DUP2 DUP1 CODESIZE DUP4 CODECOPY ADD SWAP1 POP JUMPDEST POP SWAP1 POP DUP1 PUSH1 0x0 DUP1 JUMPDEST DUP9 MLOAD DUP2 LT ISZERO PUSH3 0x4A5 JUMPI DUP9 DUP2 DUP2 MLOAD DUP2 LT PUSH3 0x467 JUMPI INVALID JUMPDEST PUSH1 0x20 ADD ADD MLOAD PUSH1 0xF8 SHR PUSH1 0xF8 SHL DUP4 DUP4 DUP1 PUSH1 0x1 ADD SWAP5 POP DUP2 MLOAD DUP2 LT PUSH3 0x485 JUMPI INVALID JUMPDEST PUSH1 0x20 ADD ADD SWAP1 PUSH1 0x1 PUSH1 0x1 PUSH1 0xF8 SHL SUB NOT AND SWAP1 DUP2 PUSH1 0x0 BYTE SWAP1 MSTORE8 POP PUSH1 0x1 ADD PUSH3 0x450 JUMP JUMPDEST POP PUSH1 0x0 JUMPDEST DUP8 MLOAD DUP2 LT ISZERO PUSH3 0x4FE JUMPI DUP8 DUP2 DUP2 MLOAD DUP2 LT PUSH3 0x4C0 JUMPI INVALID JUMPDEST PUSH1 0x20 ADD ADD MLOAD PUSH1 0xF8 SHR PUSH1 0xF8 SHL DUP4 DUP4 DUP1 PUSH1 0x1 ADD SWAP5 POP DUP2 MLOAD DUP2 LT PUSH3 0x4DE JUMPI INVALID JUMPDEST PUSH1 0x20 ADD ADD SWAP1 PUSH1 0x1 PUSH1 0x1 PUSH1 0xF8 SHL SUB NOT AND SWAP1 DUP2 PUSH1 0x0 BYTE SWAP1 MSTORE8 POP PUSH1 0x1 ADD PUSH3 0x4A9 JUMP JUMPDEST POP PUSH1 0x0 JUMPDEST DUP7 MLOAD DUP2 LT ISZERO PUSH3 0x557 JUMPI DUP7 DUP2 DUP2 MLOAD DUP2 LT PUSH3 0x519 JUMPI INVALID JUMPDEST PUSH1 0x20 ADD ADD MLOAD PUSH1 0xF8 SHR PUSH1 0xF8 SHL DUP4 DUP4 DUP1 PUSH1 0x1 ADD SWAP5 POP DUP2 MLOAD DUP2 LT PUSH3 0x537 JUMPI INVALID JUMPDEST PUSH1 0x20 ADD ADD SWAP1 PUSH1 0x1 PUSH1 0x1 PUSH1 0xF8 SHL SUB NOT AND SWAP1 DUP2 PUSH1 0x0 BYTE SWAP1 MSTORE8 POP PUSH1 0x1 ADD PUSH3 0x502 JUMP JUMPDEST POP PUSH1 0x0 JUMPDEST DUP6 MLOAD DUP2 LT ISZERO PUSH3 0x5B0 JUMPI DUP6 DUP2 DUP2 MLOAD DUP2 LT PUSH3 0x572 JUMPI INVALID JUMPDEST PUSH1 0x20 ADD ADD MLOAD PUSH1 0xF8 SHR PUSH1 0xF8 SHL DUP4 DUP4 DUP1 PUSH1 0x1 ADD SWAP5 POP DUP2 MLOAD DUP2 LT PUSH3 0x590 JUMPI INVALID JUMPDEST PUSH1 0x20 ADD ADD SWAP1 PUSH1 0x1 PUSH1 0x1 PUSH1 0xF8 SHL SUB NOT AND SWAP1 DUP2 PUSH1 0x0 BYTE SWAP1 MSTORE8 POP PUSH1 0x1 ADD PUSH3 0x55B JUMP JUMPDEST POP PUSH1 0x0 JUMPDEST DUP5 MLOAD DUP2 LT ISZERO PUSH3 0x609 JUMPI DUP5 DUP2 DUP2 MLOAD DUP2 LT PUSH3 0x5CB JUMPI INVALID JUMPDEST PUSH1 0x20 ADD ADD MLOAD PUSH1 0xF8 SHR PUSH1 0xF8 SHL DUP4 DUP4 DUP1 PUSH1 0x1 ADD SWAP5 POP DUP2 MLOAD DUP2 LT PUSH3 0x5E9 JUMPI INVALID JUMPDEST PUSH1 0x20 ADD ADD SWAP1 PUSH1 0x1 PUSH1 0x1 PUSH1 0xF8 SHL SUB NOT AND SWAP1 DUP2 PUSH1 0x0 BYTE SWAP1 MSTORE8 POP PUSH1 0x1 ADD PUSH3 0x5B4 JUMP JUMPDEST POP SWAP1 SWAP14 SWAP13 POP POP POP POP POP POP POP POP POP POP POP POP POP JUMP JUMPDEST PUSH2 0x18B5 DUP1 PUSH3 0xC12 DUP4 CODECOPY ADD SWAP1 JUMP JUMPDEST DUP1 MLOAD PUSH3 0x342 DUP2 PUSH3 0xBEC JUMP JUMPDEST PUSH1 0x0 DUP3 PUSH1 0x1F DUP4 ADD SLT PUSH3 0x649 JUMPI PUSH1 0x0 DUP1 REVERT JUMPDEST DUP2 CALLDATALOAD PUSH3 0x660 PUSH3 0x65A DUP3 PUSH3 0xAFC JUMP JUMPDEST PUSH3 0xAD4 JUMP JUMPDEST SWAP2 POP DUP1 DUP3 MSTORE PUSH1 0x20 DUP4 ADD PUSH1 0x20 DUP4 ADD DUP6 DUP4 DUP4 ADD GT ISZERO PUSH3 0x67D JUMPI PUSH1 0x0 DUP1 REVERT JUMPDEST PUSH3 0x68A DUP4 DUP3 DUP5 PUSH3 0xB7E JUMP JUMPDEST POP POP POP SWAP3 SWAP2 POP POP JUMP JUMPDEST DUP1 CALLDATALOAD PUSH3 0x342 DUP2 PUSH3 0xC06 JUMP JUMPDEST PUSH1 0x0 PUSH1 0x20 DUP3 DUP5 SUB SLT ISZERO PUSH3 0x6B3 JUMPI PUSH1 0x0 DUP1 REVERT JUMPDEST PUSH1 0x0 PUSH3 0x6C1 DUP5 DUP5 PUSH3 0x62A JUMP JUMPDEST SWAP5 SWAP4 POP POP POP POP JUMP JUMPDEST PUSH1 0x0 PUSH1 0x20 DUP3 DUP5 SUB SLT ISZERO PUSH3 0x6DC JUMPI PUSH1 0x0 DUP1 REVERT JUMPDEST DUP2 CALLDATALOAD PUSH8 0xFFFFFFFFFFFFFFFF DUP2 GT ISZERO PUSH3 0x6F4 JUMPI PUSH1 0x0 DUP1 REVERT JUMPDEST PUSH3 0x6C1 DUP5 DUP3 DUP6 ADD PUSH3 0x637 JUMP JUMPDEST PUSH1 0x0 DUP1 PUSH1 0x0 DUP1 PUSH1 0x80 DUP6 DUP8 SUB SLT ISZERO PUSH3 0x719 JUMPI PUSH1 0x0 DUP1 REVERT JUMPDEST DUP5 CALLDATALOAD PUSH8 0xFFFFFFFFFFFFFFFF DUP2 GT ISZERO PUSH3 0x731 JUMPI PUSH1 0x0 DUP1 REVERT JUMPDEST PUSH3 0x73F DUP8 DUP3 DUP9 ADD PUSH3 0x637 JUMP JUMPDEST SWAP5 POP POP PUSH1 0x20 DUP6 ADD CALLDATALOAD PUSH8 0xFFFFFFFFFFFFFFFF DUP2 GT ISZERO PUSH3 0x75D JUMPI PUSH1 0x0 DUP1 REVERT JUMPDEST PUSH3 0x76B DUP8 DUP3 DUP9 ADD PUSH3 0x637 JUMP JUMPDEST SWAP4 POP POP PUSH1 0x40 PUSH3 0x77E DUP8 DUP3 DUP9 ADD PUSH3 0x693 JUMP JUMPDEST SWAP3 POP POP PUSH1 0x60 DUP6 ADD CALLDATALOAD PUSH8 0xFFFFFFFFFFFFFFFF DUP2 GT ISZERO PUSH3 0x79C JUMPI PUSH1 0x0 DUP1 REVERT JUMPDEST PUSH3 0x7AA DUP8 DUP3 DUP9 ADD PUSH3 0x637 JUMP JUMPDEST SWAP2 POP POP SWAP3 SWAP6 SWAP2 SWAP5 POP SWAP3 POP JUMP JUMPDEST PUSH1 0x0 PUSH1 0x20 DUP3 DUP5 SUB SLT ISZERO PUSH3 0x7C9 JUMPI PUSH1 0x0 DUP1 REVERT JUMPDEST PUSH1 0x0 PUSH3 0x6C1 DUP5 DUP5 PUSH3 0x693 JUMP JUMPDEST PUSH1 0x0 PUSH3 0x7E5 DUP4 DUP4 PUSH3 0x7FE JUMP JUMPDEST POP POP PUSH1 0x20 ADD SWAP1 JUMP JUMPDEST PUSH3 0x7F8 DUP2 PUSH3 0xB69 JUMP JUMPDEST DUP3 MSTORE POP POP JUMP JUMPDEST PUSH3 0x7F8 DUP2 PUSH3 0xB54 JUMP JUMPDEST PUSH1 0x0 PUSH3 0x816 DUP3 PUSH3 0xB31 JUMP JUMPDEST PUSH3 0x822 DUP2 DUP6 PUSH3 0xB3F JUMP JUMPDEST SWAP4 POP PUSH3 0x82F DUP4 PUSH3 0xB25 JUMP JUMPDEST DUP1 PUSH1 0x0 JUMPDEST DUP4 DUP2 LT ISZERO PUSH3 0x86C JUMPI PUSH3 0x847 DUP3 PUSH3 0xBD4 JUMP JUMPDEST PUSH3 0x853 DUP9 DUP3 PUSH3 0x7D7 JUMP JUMPDEST SWAP8 POP PUSH3 0x860 DUP4 PUSH3 0xB39 JUMP JUMPDEST SWAP3 POP POP PUSH1 0x1 ADD PUSH3 0x833 JUMP JUMPDEST POP SWAP5 SWAP6 SWAP5 POP POP POP POP POP JUMP JUMPDEST PUSH3 0x7F8 DUP2 PUSH3 0xB61 JUMP JUMPDEST PUSH3 0x7F8 DUP2 PUSH3 0xB71 JUMP JUMPDEST PUSH1 0x0 PUSH3 0x89A DUP3 PUSH3 0xB35 JUMP JUMPDEST PUSH3 0x8A6 DUP2 DUP6 PUSH3 0xB3F JUMP JUMPDEST SWAP4 POP PUSH3 0x8B8 DUP2 DUP6 PUSH1 0x20 DUP7 ADD PUSH3 0xB8A JUMP JUMPDEST PUSH3 0x8C3 DUP2 PUSH3 0xBE2 JUMP JUMPDEST SWAP1 SWAP4 ADD SWAP4 SWAP3 POP POP POP JUMP JUMPDEST PUSH1 0x0 PUSH3 0x8DC PUSH1 0x4 DUP4 PUSH3 0xB3F JUMP JUMPDEST PUSH4 0x27B832B7 PUSH1 0xE1 SHL DUP2 MSTORE PUSH1 0x20 ADD SWAP3 SWAP2 POP POP JUMP JUMPDEST PUSH3 0x7F8 DUP2 PUSH3 0xB66 JUMP JUMPDEST PUSH1 0x20 DUP2 ADD PUSH3 0x342 DUP3 DUP5 PUSH3 0x7FE JUMP JUMPDEST PUSH1 0xC0 DUP2 ADD PUSH3 0x91A DUP3 DUP10 PUSH3 0x7ED JUMP JUMPDEST PUSH3 0x929 PUSH1 0x20 DUP4 ADD DUP9 PUSH3 0x882 JUMP JUMPDEST DUP2 DUP2 SUB PUSH1 0x40 DUP4 ADD MSTORE PUSH3 0x93D DUP2 DUP8 PUSH3 0x88D JUMP JUMPDEST SWAP1 POP DUP2 DUP2 SUB PUSH1 0x60 DUP4 ADD MSTORE PUSH3 0x953 DUP2 DUP7 PUSH3 0x88D JUMP JUMPDEST SWAP1 POP PUSH3 0x964 PUSH1 0x80 DUP4 ADD DUP6 PUSH3 0x8EF JUMP JUMPDEST DUP2 DUP2 SUB PUSH1 0xA0 DUP4 ADD MSTORE PUSH3 0x978 DUP2 DUP5 PUSH3 0x88D JUMP JUMPDEST SWAP9 SWAP8 POP POP POP POP POP POP POP POP JUMP JUMPDEST PUSH1 0xA0 DUP2 ADD PUSH3 0x994 DUP3 DUP9 PUSH3 0x7FE JUMP JUMPDEST DUP2 DUP2 SUB PUSH1 0x20 DUP4 ADD MSTORE PUSH3 0x9A8 DUP2 DUP8 PUSH3 0x88D JUMP JUMPDEST SWAP1 POP DUP2 DUP2 SUB PUSH1 0x40 DUP4 ADD MSTORE PUSH3 0x9BE DUP2 DUP7 PUSH3 0x88D JUMP JUMPDEST SWAP1 POP DUP2 DUP2 SUB PUSH1 0x60 DUP4 ADD MSTORE PUSH3 0x9D4 DUP2 DUP6 PUSH3 0x88D JUMP JUMPDEST SWAP1 POP PUSH3 0x9E5 PUSH1 0x80 DUP4 ADD DUP5 PUSH3 0x8EF JUMP JUMPDEST SWAP7 SWAP6 POP POP POP POP POP POP JUMP JUMPDEST PUSH1 0xE0 DUP1 DUP3 MSTORE DUP2 ADD PUSH3 0xA02 DUP2 DUP11 PUSH3 0x809 JUMP JUMPDEST SWAP1 POP PUSH3 0xA13 PUSH1 0x20 DUP4 ADD DUP10 PUSH3 0x882 JUMP JUMPDEST DUP2 DUP2 SUB PUSH1 0x40 DUP4 ADD MSTORE PUSH3 0xA27 DUP2 DUP9 PUSH3 0x88D JUMP JUMPDEST SWAP1 POP DUP2 DUP2 SUB PUSH1 0x60 DUP4 ADD MSTORE PUSH3 0xA3D DUP2 DUP8 PUSH3 0x88D JUMP JUMPDEST SWAP1 POP PUSH3 0xA4E PUSH1 0x80 DUP4 ADD DUP7 PUSH3 0x7ED JUMP JUMPDEST PUSH3 0xA5D PUSH1 0xA0 DUP4 ADD DUP6 PUSH3 0x8EF JUMP JUMPDEST DUP2 DUP2 SUB PUSH1 0xC0 DUP4 ADD MSTORE PUSH3 0xA71 DUP2 DUP5 PUSH3 0x88D JUMP JUMPDEST SWAP10 SWAP9 POP POP POP POP POP POP POP POP POP JUMP JUMPDEST PUSH1 0x20 DUP2 ADD PUSH3 0x342 DUP3 DUP5 PUSH3 0x877 JUMP JUMPDEST PUSH1 0x20 DUP2 ADD PUSH3 0x342 DUP3 DUP5 PUSH3 0x882 JUMP JUMPDEST PUSH1 0x40 DUP2 ADD PUSH3 0xAAE DUP3 DUP5 PUSH3 0x882 JUMP JUMPDEST DUP2 DUP2 SUB PUSH1 0x20 DUP4 ADD MSTORE PUSH3 0x3EC DUP2 PUSH3 0x8CD JUMP JUMPDEST PUSH1 0x20 DUP1 DUP3 MSTORE DUP2 ADD PUSH3 0x3EC DUP2 DUP5 PUSH3 0x88D JUMP JUMPDEST PUSH1 0x40 MLOAD DUP2 DUP2 ADD PUSH8 0xFFFFFFFFFFFFFFFF DUP2 GT DUP3 DUP3 LT OR ISZERO PUSH3 0xAF4 JUMPI PUSH1 0x0 DUP1 REVERT JUMPDEST PUSH1 0x40 MSTORE SWAP2 SWAP1 POP JUMP JUMPDEST PUSH1 0x0 PUSH8 0xFFFFFFFFFFFFFFFF DUP3 GT ISZERO PUSH3 0xB14 JUMPI PUSH1 0x0 DUP1 REVERT JUMPDEST POP PUSH1 0x20 PUSH1 0x1F SWAP2 SWAP1 SWAP2 ADD PUSH1 0x1F NOT AND ADD SWAP1 JUMP JUMPDEST PUSH1 0x0 SWAP1 DUP2 MSTORE PUSH1 0x20 SWAP1 KECCAK256 SWAP1 JUMP JUMPDEST SLOAD SWAP1 JUMP JUMPDEST MLOAD SWAP1 JUMP JUMPDEST PUSH1 0x1 ADD SWAP1 JUMP JUMPDEST SWAP1 DUP2 MSTORE PUSH1 0x20 ADD SWAP1 JUMP JUMPDEST PUSH1 0x1 PUSH1 0x1 PUSH1 0xA0 SHL SUB AND SWAP1 JUMP JUMPDEST PUSH1 0x0 PUSH3 0x342 DUP3 PUSH3 0xB48 JUMP JUMPDEST ISZERO ISZERO SWAP1 JUMP JUMPDEST SWAP1 JUMP JUMPDEST PUSH1 0x0 PUSH3 0x342 DUP3 JUMPDEST PUSH1 0x0 PUSH3 0x342 DUP3 PUSH3 0xB54 JUMP JUMPDEST DUP3 DUP2 DUP4 CALLDATACOPY POP PUSH1 0x0 SWAP2 ADD MSTORE JUMP JUMPDEST PUSH1 0x0 JUMPDEST DUP4 DUP2 LT ISZERO PUSH3 0xBA7 JUMPI DUP2 DUP2 ADD MLOAD DUP4 DUP3 ADD MSTORE PUSH1 0x20 ADD PUSH3 0xB8D JUMP JUMPDEST DUP4 DUP2 GT ISZERO PUSH3 0xBB7 JUMPI PUSH1 0x0 DUP5 DUP5 ADD MSTORE JUMPDEST POP POP POP POP JUMP JUMPDEST PUSH1 0x0 PUSH3 0x342 PUSH3 0xBCE DUP4 PUSH3 0xB66 JUMP JUMPDEST PUSH3 0xB48 JUMP JUMPDEST PUSH1 0x0 PUSH3 0x342 DUP3 SLOAD PUSH3 0xBBD JUMP JUMPDEST PUSH1 0x1F ADD PUSH1 0x1F NOT AND SWAP1 JUMP JUMPDEST PUSH3 0xBF7 DUP2 PUSH3 0xB61 JUMP JUMPDEST DUP2 EQ PUSH3 0xC03 JUMPI PUSH1 0x0 DUP1 REVERT JUMPDEST POP JUMP JUMPDEST PUSH3 0xBF7 DUP2 PUSH3 0xB66 JUMP INVALID PUSH1 0x80 PUSH1 0x40 MSTORE CALLVALUE DUP1 ISZERO PUSH3 0x11 JUMPI PUSH1 0x0 DUP1 REVERT JUMPDEST POP PUSH1 0x40 MLOAD PUSH3 0x18B5 CODESIZE SUB DUP1 PUSH3 0x18B5 DUP4 CODECOPY DUP2 ADD PUSH1 0x40 DUP2 SWAP1 MSTORE PUSH3 0x34 SWAP2 PUSH3 0x4CD JUMP JUMPDEST DUP4 DUP4 DUP2 DUP2 PUSH3 0x53 PUSH4 0x1FFC9A7 PUSH1 0xE0 SHL PUSH1 0x1 PUSH1 0x1 PUSH1 0xE0 SHL SUB PUSH3 0xF2 AND JUMP JUMPDEST PUSH3 0x6E PUSH4 0x80AC58CD PUSH1 0xE0 SHL PUSH1 0x1 PUSH1 0x1 PUSH1 0xE0 SHL SUB PUSH3 0xF2 AND JUMP JUMPDEST PUSH3 0x89 PUSH4 0x780E9D63 PUSH1 0xE0 SHL PUSH1 0x1 PUSH1 0x1 PUSH1 0xE0 SHL SUB PUSH3 0xF2 AND JUMP JUMPDEST DUP2 MLOAD PUSH3 0x9E SWAP1 PUSH1 0x9 SWAP1 PUSH1 0x20 DUP6 ADD SWAP1 PUSH3 0x3B5 JUMP JUMPDEST POP DUP1 MLOAD PUSH3 0xB4 SWAP1 PUSH1 0xA SWAP1 PUSH1 0x20 DUP5 ADD SWAP1 PUSH3 0x3B5 JUMP JUMPDEST POP PUSH3 0xD0 PUSH4 0x5B5E139F PUSH1 0xE0 SHL PUSH1 0x1 PUSH1 0x1 PUSH1 0xE0 SHL SUB PUSH3 0xF2 AND JUMP JUMPDEST POP POP POP POP PUSH3 0xE6 DUP6 DUP4 PUSH3 0x12F PUSH1 0x20 SHL PUSH1 0x20 SHR JUMP JUMPDEST POP POP POP POP POP POP PUSH3 0x64E JUMP JUMPDEST PUSH1 0x1 PUSH1 0x1 PUSH1 0xE0 SHL SUB NOT DUP1 DUP3 AND EQ ISZERO PUSH3 0x10A JUMPI PUSH1 0x0 DUP1 REVERT JUMPDEST PUSH1 0x1 PUSH1 0x1 PUSH1 0xE0 SHL SUB NOT AND PUSH1 0x0 SWAP1 DUP2 MSTORE PUSH1 0x20 DUP2 SWAP1 MSTORE PUSH1 0x40 SWAP1 KECCAK256 DUP1 SLOAD PUSH1 0xFF NOT AND PUSH1 0x1 OR SWAP1 SSTORE JUMP JUMPDEST PUSH1 0x0 DUP1 PUSH3 0x145 PUSH1 0x1 PUSH1 0x1 PUSH1 0xE0 SHL SUB PUSH3 0x181 AND JUMP JUMPDEST PUSH1 0xC DUP1 SLOAD PUSH1 0x1 ADD SWAP1 SSTORE SWAP1 POP PUSH3 0x165 DUP5 DUP3 PUSH1 0x1 PUSH1 0x1 PUSH1 0xE0 SHL SUB PUSH3 0x1A6 AND JUMP JUMPDEST PUSH3 0x17A DUP2 DUP5 PUSH1 0x1 PUSH1 0x1 PUSH1 0xE0 SHL SUB PUSH3 0x1EA AND JUMP JUMPDEST POP SWAP3 SWAP2 POP POP JUMP JUMPDEST PUSH1 0x0 PUSH3 0x1A0 PUSH1 0x1 PUSH1 0xC SLOAD PUSH3 0x22E PUSH1 0x20 SHL PUSH3 0xB68 OR SWAP1 SWAP2 SWAP1 PUSH1 0x20 SHR JUMP JUMPDEST SWAP1 POP JUMPDEST SWAP1 JUMP JUMPDEST PUSH3 0x1BD DUP3 DUP3 PUSH3 0x24A PUSH1 0x20 SHL PUSH3 0xB81 OR PUSH1 0x20 SHR JUMP JUMPDEST PUSH3 0x1D2 DUP3 DUP3 PUSH1 0x1 PUSH1 0x1 PUSH1 0xE0 SHL SUB PUSH3 0x316 AND JUMP JUMPDEST PUSH3 0x1E6 DUP2 PUSH1 0x1 PUSH1 0x1 PUSH1 0xE0 SHL SUB PUSH3 0x354 AND JUMP JUMPDEST POP POP JUMP JUMPDEST PUSH3 0x1FE DUP3 PUSH1 0x1 PUSH1 0x1 PUSH1 0xE0 SHL SUB PUSH3 0x398 AND JUMP JUMPDEST PUSH3 0x208 JUMPI PUSH1 0x0 DUP1 REVERT JUMPDEST PUSH1 0x0 DUP3 DUP2 MSTORE PUSH1 0xB PUSH1 0x20 SWAP1 DUP2 MSTORE PUSH1 0x40 SWAP1 SWAP2 KECCAK256 DUP3 MLOAD PUSH3 0x229 SWAP3 DUP5 ADD SWAP1 PUSH3 0x3B5 JUMP JUMPDEST POP POP POP JUMP JUMPDEST PUSH1 0x0 DUP3 DUP3 ADD DUP4 DUP2 LT ISZERO PUSH3 0x241 JUMPI PUSH1 0x0 DUP1 REVERT JUMPDEST SWAP1 POP JUMPDEST SWAP3 SWAP2 POP POP JUMP JUMPDEST PUSH1 0x1 PUSH1 0x1 PUSH1 0xA0 SHL SUB DUP3 AND PUSH3 0x25E JUMPI PUSH1 0x0 DUP1 REVERT JUMPDEST PUSH3 0x272 DUP2 PUSH1 0x1 PUSH1 0x1 PUSH1 0xE0 SHL SUB PUSH3 0x398 AND JUMP JUMPDEST ISZERO PUSH3 0x27D JUMPI PUSH1 0x0 DUP1 REVERT JUMPDEST PUSH1 0x0 DUP2 DUP2 MSTORE PUSH1 0x1 PUSH1 0x20 DUP2 DUP2 MSTORE PUSH1 0x40 DUP1 DUP5 KECCAK256 DUP1 SLOAD PUSH1 0x1 PUSH1 0x1 PUSH1 0xA0 SHL SUB NOT AND PUSH1 0x1 PUSH1 0x1 PUSH1 0xA0 SHL SUB DUP9 AND SWAP1 DUP2 OR SWAP1 SWAP2 SSTORE DUP5 MSTORE PUSH1 0x3 DUP3 MSTORE SWAP1 SWAP3 KECCAK256 SLOAD PUSH3 0x2CB SWAP3 SWAP1 SWAP2 SWAP1 PUSH3 0x22E DUP2 SHL PUSH3 0xB68 OR SWAP1 SHR JUMP JUMPDEST PUSH1 0x1 PUSH1 0x1 PUSH1 0xA0 SHL SUB DUP4 AND PUSH1 0x0 DUP2 DUP2 MSTORE PUSH1 0x3 PUSH1 0x20 MSTORE PUSH1 0x40 DUP1 DUP3 KECCAK256 SWAP4 SWAP1 SWAP4 SSTORE SWAP2 MLOAD DUP4 SWAP3 SWAP1 PUSH32 0xDDF252AD1BE2C89B69C2B068FC378DAA952BA7F163C4A11628F55A4DF523B3EF SWAP1 DUP3 SWAP1 LOG4 POP POP JUMP JUMPDEST PUSH1 0x1 PUSH1 0x1 PUSH1 0xA0 SHL SUB SWAP1 SWAP2 AND PUSH1 0x0 SWAP1 DUP2 MSTORE PUSH1 0x5 PUSH1 0x20 DUP2 DUP2 MSTORE PUSH1 0x40 DUP1 DUP5 KECCAK256 DUP1 SLOAD DUP7 DUP7 MSTORE PUSH1 0x6 DUP5 MSTORE SWAP2 DUP6 KECCAK256 DUP3 SWAP1 SSTORE SWAP3 DUP3 MSTORE PUSH1 0x1 DUP2 ADD DUP4 SSTORE SWAP2 DUP4 MSTORE SWAP1 SWAP2 KECCAK256 ADD SSTORE JUMP JUMPDEST PUSH1 0x7 DUP1 SLOAD PUSH1 0x0 DUP4 DUP2 MSTORE PUSH1 0x8 PUSH1 0x20 MSTORE PUSH1 0x40 DUP2 KECCAK256 DUP3 SWAP1 SSTORE PUSH1 0x1 DUP3 ADD DUP4 SSTORE SWAP2 SWAP1 SWAP2 MSTORE PUSH32 0xA66CC928B5EDB82AF9BD49922954155AB7B0942694BEA4CE44661D9A8736C688 ADD SSTORE JUMP JUMPDEST PUSH1 0x0 SWAP1 DUP2 MSTORE PUSH1 0x1 PUSH1 0x20 MSTORE PUSH1 0x40 SWAP1 KECCAK256 SLOAD PUSH1 0x1 PUSH1 0x1 PUSH1 0xA0 SHL SUB AND ISZERO ISZERO SWAP1 JUMP JUMPDEST DUP3 DUP1 SLOAD PUSH1 0x1 DUP2 PUSH1 0x1 AND ISZERO PUSH2 0x100 MUL SUB AND PUSH1 0x2 SWAP1 DIV SWAP1 PUSH1 0x0 MSTORE PUSH1 0x20 PUSH1 0x0 KECCAK256 SWAP1 PUSH1 0x1F ADD PUSH1 0x20 SWAP1 DIV DUP2 ADD SWAP3 DUP3 PUSH1 0x1F LT PUSH3 0x3F8 JUMPI DUP1 MLOAD PUSH1 0xFF NOT AND DUP4 DUP1 ADD OR DUP6 SSTORE PUSH3 0x428 JUMP JUMPDEST DUP3 DUP1 ADD PUSH1 0x1 ADD DUP6 SSTORE DUP3 ISZERO PUSH3 0x428 JUMPI SWAP2 DUP3 ADD JUMPDEST DUP3 DUP2 GT ISZERO PUSH3 0x428 JUMPI DUP3 MLOAD DUP3 SSTORE SWAP2 PUSH1 0x20 ADD SWAP2 SWAP1 PUSH1 0x1 ADD SWAP1 PUSH3 0x40B JUMP JUMPDEST POP PUSH3 0x436 SWAP3 SWAP2 POP PUSH3 0x43A JUMP JUMPDEST POP SWAP1 JUMP JUMPDEST PUSH3 0x1A3 SWAP2 SWAP1 JUMPDEST DUP1 DUP3 GT ISZERO PUSH3 0x436 JUMPI PUSH1 0x0 DUP2 SSTORE PUSH1 0x1 ADD PUSH3 0x441 JUMP JUMPDEST DUP1 MLOAD PUSH3 0x244 DUP2 PUSH3 0x629 JUMP JUMPDEST PUSH1 0x0 DUP3 PUSH1 0x1F DUP4 ADD SLT PUSH3 0x476 JUMPI PUSH1 0x0 DUP1 REVERT JUMPDEST DUP2 MLOAD PUSH3 0x48D PUSH3 0x487 DUP3 PUSH3 0x5BC JUMP JUMPDEST PUSH3 0x595 JUMP JUMPDEST SWAP2 POP DUP1 DUP3 MSTORE PUSH1 0x20 DUP4 ADD PUSH1 0x20 DUP4 ADD DUP6 DUP4 DUP4 ADD GT ISZERO PUSH3 0x4AA JUMPI PUSH1 0x0 DUP1 REVERT JUMPDEST PUSH3 0x4B7 DUP4 DUP3 DUP5 PUSH3 0x5F6 JUMP JUMPDEST POP POP POP SWAP3 SWAP2 POP POP JUMP JUMPDEST DUP1 MLOAD PUSH3 0x244 DUP2 PUSH3 0x643 JUMP JUMPDEST PUSH1 0x0 DUP1 PUSH1 0x0 DUP1 PUSH1 0x0 PUSH1 0xA0 DUP7 DUP9 SUB SLT ISZERO PUSH3 0x4E6 JUMPI PUSH1 0x0 DUP1 REVERT JUMPDEST PUSH1 0x0 PUSH3 0x4F4 DUP9 DUP9 PUSH3 0x457 JUMP JUMPDEST SWAP6 POP POP PUSH1 0x20 DUP7 ADD MLOAD PUSH1 0x1 PUSH1 0x1 PUSH1 0x40 SHL SUB DUP2 GT ISZERO PUSH3 0x511 JUMPI PUSH1 0x0 DUP1 REVERT JUMPDEST PUSH3 0x51F DUP9 DUP3 DUP10 ADD PUSH3 0x464 JUMP JUMPDEST SWAP5 POP POP PUSH1 0x40 DUP7 ADD MLOAD PUSH1 0x1 PUSH1 0x1 PUSH1 0x40 SHL SUB DUP2 GT ISZERO PUSH3 0x53C JUMPI PUSH1 0x0 DUP1 REVERT JUMPDEST PUSH3 0x54A DUP9 DUP3 DUP10 ADD PUSH3 0x464 JUMP JUMPDEST SWAP4 POP POP PUSH1 0x60 DUP7 ADD MLOAD PUSH1 0x1 PUSH1 0x1 PUSH1 0x40 SHL SUB DUP2 GT ISZERO PUSH3 0x567 JUMPI PUSH1 0x0 DUP1 REVERT JUMPDEST PUSH3 0x575 DUP9 DUP3 DUP10 ADD PUSH3 0x464 JUMP JUMPDEST SWAP3 POP POP PUSH1 0x80 PUSH3 0x588 DUP9 DUP3 DUP10 ADD PUSH3 0x4C0 JUMP JUMPDEST SWAP2 POP POP SWAP3 SWAP6 POP SWAP3 SWAP6 SWAP1 SWAP4 POP JUMP JUMPDEST PUSH1 0x40 MLOAD DUP2 DUP2 ADD PUSH1 0x1 PUSH1 0x1 PUSH1 0x40 SHL SUB DUP2 GT DUP3 DUP3 LT OR ISZERO PUSH3 0x5B4 JUMPI PUSH1 0x0 DUP1 REVERT JUMPDEST PUSH1 0x40 MSTORE SWAP2 SWAP1 POP JUMP JUMPDEST PUSH1 0x0 PUSH1 0x1 PUSH1 0x1 PUSH1 0x40 SHL SUB DUP3 GT ISZERO PUSH3 0x5D3 JUMPI PUSH1 0x0 DUP1 REVERT JUMPDEST POP PUSH1 0x20 PUSH1 0x1F SWAP2 SWAP1 SWAP2 ADD PUSH1 0x1F NOT AND ADD SWAP1 JUMP JUMPDEST PUSH1 0x0 PUSH1 0x1 PUSH1 0x1 PUSH1 0xA0 SHL SUB DUP3 AND PUSH3 0x244 JUMP JUMPDEST PUSH1 0x0 JUMPDEST DUP4 DUP2 LT ISZERO PUSH3 0x613 JUMPI DUP2 DUP2 ADD MLOAD DUP4 DUP3 ADD MSTORE PUSH1 0x20 ADD PUSH3 0x5F9 JUMP JUMPDEST DUP4 DUP2 GT ISZERO PUSH3 0x623 JUMPI PUSH1 0x0 DUP5 DUP5 ADD MSTORE JUMPDEST POP POP POP POP JUMP JUMPDEST PUSH3 0x634 DUP2 PUSH3 0x5E4 JUMP JUMPDEST DUP2 EQ PUSH3 0x640 JUMPI PUSH1 0x0 DUP1 REVERT JUMPDEST POP JUMP JUMPDEST PUSH3 0x634 DUP2 PUSH3 0x1A3 JUMP JUMPDEST PUSH2 0x1257 DUP1 PUSH3 0x65E PUSH1 0x0 CODECOPY PUSH1 0x0 RETURN INVALID PUSH1 0x80 PUSH1 0x40 MSTORE CALLVALUE DUP1 ISZERO PUSH2 0x10 JUMPI PUSH1 0x0 DUP1 REVERT JUMPDEST POP PUSH1 0x4 CALLDATASIZE LT PUSH2 0x116 JUMPI PUSH1 0x0 CALLDATALOAD PUSH1 0xE0 SHR DUP1 PUSH4 0x6352211E GT PUSH2 0xA2 JUMPI DUP1 PUSH4 0xB4A5B646 GT PUSH2 0x71 JUMPI DUP1 PUSH4 0xB4A5B646 EQ PUSH2 0x230 JUMPI DUP1 PUSH4 0xB88D4FDE EQ PUSH2 0x238 JUMPI DUP1 PUSH4 0xC87B56DD EQ PUSH2 0x24B JUMPI DUP1 PUSH4 0xD0DEF521 EQ PUSH2 0x25E JUMPI DUP1 PUSH4 0xE985E9C5 EQ PUSH2 0x271 JUMPI PUSH2 0x116 JUMP JUMPDEST DUP1 PUSH4 0x6352211E EQ PUSH2 0x1EF JUMPI DUP1 PUSH4 0x70A08231 EQ PUSH2 0x202 JUMPI DUP1 PUSH4 0x95D89B41 EQ PUSH2 0x215 JUMPI DUP1 PUSH4 0xA22CB465 EQ PUSH2 0x21D JUMPI PUSH2 0x116 JUMP JUMPDEST DUP1 PUSH4 0x18160DDD GT PUSH2 0xE9 JUMPI DUP1 PUSH4 0x18160DDD EQ PUSH2 0x18E JUMPI DUP1 PUSH4 0x23B872DD EQ PUSH2 0x1A3 JUMPI DUP1 PUSH4 0x2F745C59 EQ PUSH2 0x1B6 JUMPI DUP1 PUSH4 0x42842E0E EQ PUSH2 0x1C9 JUMPI DUP1 PUSH4 0x4F6CCCE7 EQ PUSH2 0x1DC JUMPI PUSH2 0x116 JUMP JUMPDEST DUP1 PUSH4 0x1FFC9A7 EQ PUSH2 0x11B JUMPI DUP1 PUSH4 0x6FDDE03 EQ PUSH2 0x144 JUMPI DUP1 PUSH4 0x81812FC EQ PUSH2 0x159 JUMPI DUP1 PUSH4 0x95EA7B3 EQ PUSH2 0x179 JUMPI JUMPDEST PUSH1 0x0 DUP1 REVERT JUMPDEST PUSH2 0x12E PUSH2 0x129 CALLDATASIZE PUSH1 0x4 PUSH2 0xFD2 JUMP JUMPDEST PUSH2 0x284 JUMP JUMPDEST PUSH1 0x40 MLOAD PUSH2 0x13B SWAP2 SWAP1 PUSH2 0x10E0 JUMP JUMPDEST PUSH1 0x40 MLOAD DUP1 SWAP2 SUB SWAP1 RETURN JUMPDEST PUSH2 0x14C PUSH2 0x2A3 JUMP JUMPDEST PUSH1 0x40 MLOAD PUSH2 0x13B SWAP2 SWAP1 PUSH2 0x10EE JUMP JUMPDEST PUSH2 0x16C PUSH2 0x167 CALLDATASIZE PUSH1 0x4 PUSH2 0x100E JUMP JUMPDEST PUSH2 0x33A JUMP JUMPDEST PUSH1 0x40 MLOAD PUSH2 0x13B SWAP2 SWAP1 PUSH2 0x108E JUMP JUMPDEST PUSH2 0x18C PUSH2 0x187 CALLDATASIZE PUSH1 0x4 PUSH2 0xFA2 JUMP JUMPDEST PUSH2 0x36A JUMP JUMPDEST STOP JUMPDEST PUSH2 0x196 PUSH2 0x417 JUMP JUMPDEST PUSH1 0x40 MLOAD PUSH2 0x13B SWAP2 SWAP1 PUSH2 0x10FF JUMP JUMPDEST PUSH2 0x18C PUSH2 0x1B1 CALLDATASIZE PUSH1 0x4 PUSH2 0xE64 JUMP JUMPDEST PUSH2 0x41D JUMP JUMPDEST PUSH2 0x196 PUSH2 0x1C4 CALLDATASIZE PUSH1 0x4 PUSH2 0xFA2 JUMP JUMPDEST PUSH2 0x440 JUMP JUMPDEST PUSH2 0x18C PUSH2 0x1D7 CALLDATASIZE PUSH1 0x4 PUSH2 0xE64 JUMP JUMPDEST PUSH2 0x48E JUMP JUMPDEST PUSH2 0x196 PUSH2 0x1EA CALLDATASIZE PUSH1 0x4 PUSH2 0x100E JUMP JUMPDEST PUSH2 0x4A9 JUMP JUMPDEST PUSH2 0x16C PUSH2 0x1FD CALLDATASIZE PUSH1 0x4 PUSH2 0x100E JUMP JUMPDEST PUSH2 0x4DD JUMP JUMPDEST PUSH2 0x196 PUSH2 0x210 CALLDATASIZE PUSH1 0x4 PUSH2 0xE0C JUMP JUMPDEST PUSH2 0x4FF JUMP JUMPDEST PUSH2 0x14C PUSH2 0x530 JUMP JUMPDEST PUSH2 0x18C PUSH2 0x22B CALLDATASIZE PUSH1 0x4 PUSH2 0xF2A JUMP JUMPDEST PUSH2 0x591 JUMP JUMPDEST PUSH2 0x196 PUSH2 0x616 JUMP JUMPDEST PUSH2 0x18C PUSH2 0x246 CALLDATASIZE PUSH1 0x4 PUSH2 0xEB1 JUMP JUMPDEST PUSH2 0x61C JUMP JUMPDEST PUSH2 0x14C PUSH2 0x259 CALLDATASIZE PUSH1 0x4 PUSH2 0x100E JUMP JUMPDEST PUSH2 0x642 JUMP JUMPDEST PUSH2 0x12E PUSH2 0x26C CALLDATASIZE PUSH1 0x4 PUSH2 0xF5A JUMP JUMPDEST PUSH2 0x6F5 JUMP JUMPDEST PUSH2 0x12E PUSH2 0x27F CALLDATASIZE PUSH1 0x4 PUSH2 0xE2A JUMP JUMPDEST PUSH2 0x726 JUMP JUMPDEST PUSH1 0x1 PUSH1 0x1 PUSH1 0xE0 SHL SUB NOT AND PUSH1 0x0 SWAP1 DUP2 MSTORE PUSH1 0x20 DUP2 SWAP1 MSTORE PUSH1 0x40 SWAP1 KECCAK256 SLOAD PUSH1 0xFF AND SWAP1 JUMP JUMPDEST PUSH1 0x9 DUP1 SLOAD PUSH1 0x40 DUP1 MLOAD PUSH1 0x20 PUSH1 0x1F PUSH1 0x2 PUSH1 0x0 NOT PUSH2 0x100 PUSH1 0x1 DUP9 AND ISZERO MUL ADD SWAP1 SWAP6 AND SWAP5 SWAP1 SWAP5 DIV SWAP4 DUP5 ADD DUP2 SWAP1 DIV DUP2 MUL DUP3 ADD DUP2 ADD SWAP1 SWAP3 MSTORE DUP3 DUP2 MSTORE PUSH1 0x60 SWAP4 SWAP1 SWAP3 SWAP1 SWAP2 DUP4 ADD DUP3 DUP3 DUP1 ISZERO PUSH2 0x32F JUMPI DUP1 PUSH1 0x1F LT PUSH2 0x304 JUMPI PUSH2 0x100 DUP1 DUP4 SLOAD DIV MUL DUP4 MSTORE SWAP2 PUSH1 0x20 ADD SWAP2 PUSH2 0x32F JUMP JUMPDEST DUP3 ADD SWAP2 SWAP1 PUSH1 0x0 MSTORE PUSH1 0x20 PUSH1 0x0 KECCAK256 SWAP1 JUMPDEST DUP2 SLOAD DUP2 MSTORE SWAP1 PUSH1 0x1 ADD SWAP1 PUSH1 0x20 ADD DUP1 DUP4 GT PUSH2 0x312 JUMPI DUP3 SWAP1 SUB PUSH1 0x1F AND DUP3 ADD SWAP2 JUMPDEST POP POP POP POP POP SWAP1 POP JUMPDEST SWAP1 JUMP JUMPDEST PUSH1 0x0 PUSH2 0x345 DUP3 PUSH2 0x754 JUMP JUMPDEST PUSH2 0x34E JUMPI PUSH1 0x0 DUP1 REVERT JUMPDEST POP PUSH1 0x0 SWAP1 DUP2 MSTORE PUSH1 0x2 PUSH1 0x20 MSTORE PUSH1 0x40 SWAP1 KECCAK256 SLOAD PUSH1 0x1 PUSH1 0x1 PUSH1 0xA0 SHL SUB AND SWAP1 JUMP JUMPDEST PUSH1 0x0 PUSH2 0x375 DUP3 PUSH2 0x4DD JUMP JUMPDEST SWAP1 POP DUP1 PUSH1 0x1 PUSH1 0x1 PUSH1 0xA0 SHL SUB AND DUP4 PUSH1 0x1 PUSH1 0x1 PUSH1 0xA0 SHL SUB AND EQ ISZERO PUSH2 0x396 JUMPI PUSH1 0x0 DUP1 REVERT JUMPDEST CALLER PUSH1 0x1 PUSH1 0x1 PUSH1 0xA0 SHL SUB DUP3 AND EQ DUP1 PUSH2 0x3B2 JUMPI POP PUSH2 0x3B2 DUP2 CALLER PUSH2 0x726 JUMP JUMPDEST PUSH2 0x3BB JUMPI PUSH1 0x0 DUP1 REVERT JUMPDEST PUSH1 0x0 DUP3 DUP2 MSTORE PUSH1 0x2 PUSH1 0x20 MSTORE PUSH1 0x40 DUP1 DUP3 KECCAK256 DUP1 SLOAD PUSH1 0x1 PUSH1 0x1 PUSH1 0xA0 SHL SUB NOT AND PUSH1 0x1 PUSH1 0x1 PUSH1 0xA0 SHL SUB DUP8 DUP2 AND SWAP2 DUP3 OR SWAP1 SWAP3 SSTORE SWAP2 MLOAD DUP6 SWAP4 SWAP2 DUP6 AND SWAP2 PUSH32 0x8C5BE1E5EBEC7D5BD14F71427D1E84F3DD0314C0F7B2291E5B200AC8C7C3B925 SWAP2 LOG4 POP POP POP JUMP JUMPDEST PUSH1 0x7 SLOAD SWAP1 JUMP JUMPDEST PUSH2 0x427 CALLER DUP3 PUSH2 0x771 JUMP JUMPDEST PUSH2 0x430 JUMPI PUSH1 0x0 DUP1 REVERT JUMPDEST PUSH2 0x43B DUP4 DUP4 DUP4 PUSH2 0x7D0 JUMP JUMPDEST POP POP POP JUMP JUMPDEST PUSH1 0x0 PUSH2 0x44B DUP4 PUSH2 0x4FF JUMP JUMPDEST DUP3 LT PUSH2 0x456 JUMPI PUSH1 0x0 DUP1 REVERT JUMPDEST PUSH1 0x1 PUSH1 0x1 PUSH1 0xA0 SHL SUB DUP4 AND PUSH1 0x0 SWAP1 DUP2 MSTORE PUSH1 0x5 PUSH1 0x20 MSTORE PUSH1 0x40 SWAP1 KECCAK256 DUP1 SLOAD DUP4 SWAP1 DUP2 LT PUSH2 0x47A JUMPI INVALID JUMPDEST SWAP1 PUSH1 0x0 MSTORE PUSH1 0x20 PUSH1 0x0 KECCAK256 ADD SLOAD SWAP1 POP JUMPDEST SWAP3 SWAP2 POP POP JUMP JUMPDEST PUSH2 0x43B DUP4 DUP4 DUP4 PUSH1 0x40 MLOAD DUP1 PUSH1 0x20 ADD PUSH1 0x40 MSTORE DUP1 PUSH1 0x0 DUP2 MSTORE POP PUSH2 0x61C JUMP JUMPDEST PUSH1 0x0 PUSH2 0x4B3 PUSH2 0x417 JUMP JUMPDEST DUP3 LT PUSH2 0x4BE JUMPI PUSH1 0x0 DUP1 REVERT JUMPDEST PUSH1 0x7 DUP3 DUP2 SLOAD DUP2 LT PUSH2 0x4CB JUMPI INVALID JUMPDEST SWAP1 PUSH1 0x0 MSTORE PUSH1 0x20 PUSH1 0x0 KECCAK256 ADD SLOAD SWAP1 POP SWAP2 SWAP1 POP JUMP JUMPDEST PUSH1 0x0 DUP2 DUP2 MSTORE PUSH1 0x1 PUSH1 0x20 MSTORE PUSH1 0x40 DUP2 KECCAK256 SLOAD PUSH1 0x1 PUSH1 0x1 PUSH1 0xA0 SHL SUB AND DUP1 PUSH2 0x488 JUMPI PUSH1 0x0 DUP1 REVERT JUMPDEST PUSH1 0x0 PUSH1 0x1 PUSH1 0x1 PUSH1 0xA0 SHL SUB DUP3 AND PUSH2 0x514 JUMPI PUSH1 0x0 DUP1 REVERT JUMPDEST POP PUSH1 0x1 PUSH1 0x1 PUSH1 0xA0 SHL SUB AND PUSH1 0x0 SWAP1 DUP2 MSTORE PUSH1 0x3 PUSH1 0x20 MSTORE PUSH1 0x40 SWAP1 KECCAK256 SLOAD SWAP1 JUMP JUMPDEST PUSH1 0xA DUP1 SLOAD PUSH1 0x40 DUP1 MLOAD PUSH1 0x20 PUSH1 0x1F PUSH1 0x2 PUSH1 0x0 NOT PUSH2 0x100 PUSH1 0x1 DUP9 AND ISZERO MUL ADD SWAP1 SWAP6 AND SWAP5 SWAP1 SWAP5 DIV SWAP4 DUP5 ADD DUP2 SWAP1 DIV DUP2 MUL DUP3 ADD DUP2 ADD SWAP1 SWAP3 MSTORE DUP3 DUP2 MSTORE PUSH1 0x60 SWAP4 SWAP1 SWAP3 SWAP1 SWAP2 DUP4 ADD DUP3 DUP3 DUP1 ISZERO PUSH2 0x32F JUMPI DUP1 PUSH1 0x1F LT PUSH2 0x304 JUMPI PUSH2 0x100 DUP1 DUP4 SLOAD DIV MUL DUP4 MSTORE SWAP2 PUSH1 0x20 ADD SWAP2 PUSH2 0x32F JUMP JUMPDEST PUSH1 0x1 PUSH1 0x1 PUSH1 0xA0 SHL SUB DUP3 AND CALLER EQ ISZERO PUSH2 0x5A7 JUMPI PUSH1 0x0 DUP1 REVERT JUMPDEST CALLER PUSH1 0x0 DUP2 DUP2 MSTORE PUSH1 0x4 PUSH1 0x20 SWAP1 DUP2 MSTORE PUSH1 0x40 DUP1 DUP4 KECCAK256 PUSH1 0x1 PUSH1 0x1 PUSH1 0xA0 SHL SUB DUP8 AND DUP1 DUP6 MSTORE SWAP3 MSTORE SWAP2 DUP3 SWAP1 KECCAK256 DUP1 SLOAD PUSH1 0xFF NOT AND DUP6 ISZERO ISZERO OR SWAP1 SSTORE SWAP1 MLOAD SWAP1 SWAP2 SWAP1 PUSH32 0x17307EAB39AB6107E8899845AD3D59BD9653F200F220920489CA2B5937696C31 SWAP1 PUSH2 0x60A SWAP1 DUP6 SWAP1 PUSH2 0x10E0 JUMP JUMPDEST PUSH1 0x40 MLOAD DUP1 SWAP2 SUB SWAP1 LOG3 POP POP JUMP JUMPDEST PUSH1 0xC SLOAD DUP2 JUMP JUMPDEST PUSH2 0x627 DUP5 DUP5 DUP5 PUSH2 0x41D JUMP JUMPDEST PUSH2 0x633 DUP5 DUP5 DUP5 DUP5 PUSH2 0x7EF JUMP JUMPDEST PUSH2 0x63C JUMPI PUSH1 0x0 DUP1 REVERT JUMPDEST POP POP POP POP JUMP JUMPDEST PUSH1 0x60 PUSH2 0x64D DUP3 PUSH2 0x754 JUMP JUMPDEST PUSH2 0x656 JUMPI PUSH1 0x0 DUP1 REVERT JUMPDEST PUSH1 0x0 DUP3 DUP2 MSTORE PUSH1 0xB PUSH1 0x20 SWAP1 DUP2 MSTORE PUSH1 0x40 SWAP2 DUP3 SWAP1 KECCAK256 DUP1 SLOAD DUP4 MLOAD PUSH1 0x1F PUSH1 0x2 PUSH1 0x0 NOT PUSH2 0x100 PUSH1 0x1 DUP7 AND ISZERO MUL ADD SWAP1 SWAP4 AND SWAP3 SWAP1 SWAP3 DIV SWAP2 DUP3 ADD DUP5 SWAP1 DIV DUP5 MUL DUP2 ADD DUP5 ADD SWAP1 SWAP5 MSTORE DUP1 DUP5 MSTORE SWAP1 SWAP2 DUP4 ADD DUP3 DUP3 DUP1 ISZERO PUSH2 0x6E9 JUMPI DUP1 PUSH1 0x1F LT PUSH2 0x6BE JUMPI PUSH2 0x100 DUP1 DUP4 SLOAD DIV MUL DUP4 MSTORE SWAP2 PUSH1 0x20 ADD SWAP2 PUSH2 0x6E9 JUMP JUMPDEST DUP3 ADD SWAP2 SWAP1 PUSH1 0x0 MSTORE PUSH1 0x20 PUSH1 0x0 KECCAK256 SWAP1 JUMPDEST DUP2 SLOAD DUP2 MSTORE SWAP1 PUSH1 0x1 ADD SWAP1 PUSH1 0x20 ADD DUP1 DUP4 GT PUSH2 0x6CC JUMPI DUP3 SWAP1 SUB PUSH1 0x1F AND DUP3 ADD SWAP2 JUMPDEST POP POP POP POP POP SWAP1 POP SWAP2 SWAP1 POP JUMP JUMPDEST PUSH1 0x0 DUP1 PUSH2 0x700 PUSH2 0x8B4 JUMP JUMPDEST PUSH1 0xC DUP1 SLOAD PUSH1 0x1 ADD SWAP1 SSTORE SWAP1 POP PUSH2 0x715 DUP5 DUP3 PUSH2 0x8D0 JUMP JUMPDEST PUSH2 0x71F DUP2 DUP5 PUSH2 0x8F1 JUMP JUMPDEST POP SWAP3 SWAP2 POP POP JUMP JUMPDEST PUSH1 0x1 PUSH1 0x1 PUSH1 0xA0 SHL SUB SWAP2 DUP3 AND PUSH1 0x0 SWAP1 DUP2 MSTORE PUSH1 0x4 PUSH1 0x20 SWAP1 DUP2 MSTORE PUSH1 0x40 DUP1 DUP4 KECCAK256 SWAP4 SWAP1 SWAP5 AND DUP3 MSTORE SWAP2 SWAP1 SWAP2 MSTORE KECCAK256 SLOAD PUSH1 0xFF AND SWAP1 JUMP JUMPDEST PUSH1 0x0 SWAP1 DUP2 MSTORE PUSH1 0x1 PUSH1 0x20 MSTORE PUSH1 0x40 SWAP1 KECCAK256 SLOAD PUSH1 0x1 PUSH1 0x1 PUSH1 0xA0 SHL SUB AND ISZERO ISZERO SWAP1 JUMP JUMPDEST PUSH1 0x0 DUP1 PUSH2 0x77D DUP4 PUSH2 0x4DD JUMP JUMPDEST SWAP1 POP DUP1 PUSH1 0x1 PUSH1 0x1 PUSH1 0xA0 SHL SUB AND DUP5 PUSH1 0x1 PUSH1 0x1 PUSH1 0xA0 SHL SUB AND EQ DUP1 PUSH2 0x7B8 JUMPI POP DUP4 PUSH1 0x1 PUSH1 0x1 PUSH1 0xA0 SHL SUB AND PUSH2 0x7AD DUP5 PUSH2 0x33A JUMP JUMPDEST PUSH1 0x1 PUSH1 0x1 PUSH1 0xA0 SHL SUB AND EQ JUMPDEST DUP1 PUSH2 0x7C8 JUMPI POP PUSH2 0x7C8 DUP2 DUP6 PUSH2 0x726 JUMP JUMPDEST SWAP5 SWAP4 POP POP POP POP JUMP JUMPDEST PUSH2 0x7DB DUP4 DUP4 DUP4 PUSH2 0x922 JUMP JUMPDEST PUSH2 0x7E5 DUP4 DUP3 PUSH2 0xA2F JUMP JUMPDEST PUSH2 0x43B DUP3 DUP3 PUSH2 0xB24 JUMP JUMPDEST PUSH1 0x0 PUSH2 0x803 DUP5 PUSH1 0x1 PUSH1 0x1 PUSH1 0xA0 SHL SUB AND PUSH2 0xB62 JUMP JUMPDEST PUSH2 0x80F JUMPI POP PUSH1 0x1 PUSH2 0x7C8 JUMP JUMPDEST PUSH1 0x40 MLOAD PUSH4 0xA85BD01 PUSH1 0xE1 SHL DUP2 MSTORE PUSH1 0x0 SWAP1 PUSH1 0x1 PUSH1 0x1 PUSH1 0xA0 SHL SUB DUP7 AND SWAP1 PUSH4 0x150B7A02 SWAP1 PUSH2 0x844 SWAP1 CALLER SWAP1 DUP11 SWAP1 DUP10 SWAP1 DUP10 SWAP1 PUSH1 0x4 ADD PUSH2 0x109C JUMP JUMPDEST PUSH1 0x20 PUSH1 0x40 MLOAD DUP1 DUP4 SUB DUP2 PUSH1 0x0 DUP8 DUP1 EXTCODESIZE ISZERO DUP1 ISZERO PUSH2 0x85E JUMPI PUSH1 0x0 DUP1 REVERT JUMPDEST POP GAS CALL ISZERO DUP1 ISZERO PUSH2 0x872 JUMPI RETURNDATASIZE PUSH1 0x0 DUP1 RETURNDATACOPY RETURNDATASIZE PUSH1 0x0 REVERT JUMPDEST POP POP POP POP PUSH1 0x40 MLOAD RETURNDATASIZE PUSH1 0x1F NOT PUSH1 0x1F DUP3 ADD AND DUP3 ADD DUP1 PUSH1 0x40 MSTORE POP PUSH2 0x896 SWAP2 SWAP1 DUP2 ADD SWAP1 PUSH2 0xFF0 JUMP JUMPDEST PUSH1 0x1 PUSH1 0x1 PUSH1 0xE0 SHL SUB NOT AND PUSH4 0xA85BD01 PUSH1 0xE1 SHL EQ SWAP2 POP POP SWAP5 SWAP4 POP POP POP POP JUMP JUMPDEST PUSH1 0xC SLOAD PUSH1 0x0 SWAP1 PUSH2 0x8CB SWAP1 PUSH1 0x1 PUSH4 0xFFFFFFFF PUSH2 0xB68 AND JUMP JUMPDEST SWAP1 POP SWAP1 JUMP JUMPDEST PUSH2 0x8DA DUP3 DUP3 PUSH2 0xB81 JUMP JUMPDEST PUSH2 0x8E4 DUP3 DUP3 PUSH2 0xB24 JUMP JUMPDEST PUSH2 0x8ED DUP2 PUSH2 0xC33 JUMP JUMPDEST POP POP JUMP JUMPDEST PUSH2 0x8FA DUP3 PUSH2 0x754 JUMP JUMPDEST PUSH2 0x903 JUMPI PUSH1 0x0 DUP1 REVERT JUMPDEST PUSH1 0x0 DUP3 DUP2 MSTORE PUSH1 0xB PUSH1 0x20 SWAP1 DUP2 MSTORE PUSH1 0x40 SWAP1 SWAP2 KECCAK256 DUP3 MLOAD PUSH2 0x43B SWAP3 DUP5 ADD SWAP1 PUSH2 0xCC9 JUMP JUMPDEST DUP3 PUSH1 0x1 PUSH1 0x1 PUSH1 0xA0 SHL SUB AND PUSH2 0x935 DUP3 PUSH2 0x4DD JUMP JUMPDEST PUSH1 0x1 PUSH1 0x1 PUSH1 0xA0 SHL SUB AND EQ PUSH2 0x948 JUMPI PUSH1 0x0 DUP1 REVERT JUMPDEST PUSH1 0x1 PUSH1 0x1 PUSH1 0xA0 SHL SUB DUP3 AND PUSH2 0x95B JUMPI PUSH1 0x0 DUP1 REVERT JUMPDEST PUSH2 0x964 DUP2 PUSH2 0xC77 JUMP JUMPDEST PUSH1 0x1 PUSH1 0x1 PUSH1 0xA0 SHL SUB DUP4 AND PUSH1 0x0 SWAP1 DUP2 MSTORE PUSH1 0x3 PUSH1 0x20 MSTORE PUSH1 0x40 SWAP1 KECCAK256 SLOAD PUSH2 0x98E SWAP1 PUSH1 0x1 PUSH4 0xFFFFFFFF PUSH2 0xCB4 AND JUMP JUMPDEST PUSH1 0x1 PUSH1 0x1 PUSH1 0xA0 SHL SUB DUP1 DUP6 AND PUSH1 0x0 SWAP1 DUP2 MSTORE PUSH1 0x3 PUSH1 0x20 MSTORE PUSH1 0x40 DUP1 DUP3 KECCAK256 SWAP4 SWAP1 SWAP4 SSTORE SWAP1 DUP5 AND DUP2 MSTORE KECCAK256 SLOAD PUSH2 0x9C4 SWAP1 PUSH1 0x1 PUSH4 0xFFFFFFFF PUSH2 0xB68 AND JUMP JUMPDEST PUSH1 0x1 PUSH1 0x1 PUSH1 0xA0 SHL SUB DUP1 DUP5 AND PUSH1 0x0 DUP2 DUP2 MSTORE PUSH1 0x3 PUSH1 0x20 SWAP1 DUP2 MSTORE PUSH1 0x40 DUP1 DUP4 KECCAK256 SWAP6 SWAP1 SWAP6 SSTORE DUP6 DUP3 MSTORE PUSH1 0x1 SWAP1 MSTORE DUP4 DUP2 KECCAK256 DUP1 SLOAD PUSH1 0x1 PUSH1 0x1 PUSH1 0xA0 SHL SUB NOT AND DUP4 OR SWAP1 SSTORE SWAP3 MLOAD DUP5 SWAP4 SWAP2 SWAP3 DUP8 AND SWAP2 PUSH32 0xDDF252AD1BE2C89B69C2B068FC378DAA952BA7F163C4A11628F55A4DF523B3EF SWAP2 LOG4 POP POP POP JUMP JUMPDEST PUSH1 0x1 PUSH1 0x1 PUSH1 0xA0 SHL SUB DUP3 AND PUSH1 0x0 SWAP1 DUP2 MSTORE PUSH1 0x5 PUSH1 0x20 MSTORE PUSH1 0x40 DUP2 KECCAK256 SLOAD PUSH2 0xA59 SWAP1 PUSH1 0x1 PUSH4 0xFFFFFFFF PUSH2 0xCB4 AND JUMP JUMPDEST PUSH1 0x0 DUP4 DUP2 MSTORE PUSH1 0x6 PUSH1 0x20 MSTORE PUSH1 0x40 SWAP1 KECCAK256 SLOAD SWAP1 SWAP2 POP DUP1 DUP3 EQ PUSH2 0xAF4 JUMPI PUSH1 0x1 PUSH1 0x1 PUSH1 0xA0 SHL SUB DUP5 AND PUSH1 0x0 SWAP1 DUP2 MSTORE PUSH1 0x5 PUSH1 0x20 MSTORE PUSH1 0x40 DUP2 KECCAK256 DUP1 SLOAD DUP5 SWAP1 DUP2 LT PUSH2 0xA96 JUMPI INVALID JUMPDEST SWAP1 PUSH1 0x0 MSTORE PUSH1 0x20 PUSH1 0x0 KECCAK256 ADD SLOAD SWAP1 POP DUP1 PUSH1 0x5 PUSH1 0x0 DUP8 PUSH1 0x1 PUSH1 0x1 PUSH1 0xA0 SHL SUB AND PUSH1 0x1 PUSH1 0x1 PUSH1 0xA0 SHL SUB AND DUP2 MSTORE PUSH1 0x20 ADD SWAP1 DUP2 MSTORE PUSH1 0x20 ADD PUSH1 0x0 KECCAK256 DUP4 DUP2 SLOAD DUP2 LT PUSH2 0xAD4 JUMPI INVALID JUMPDEST PUSH1 0x0 SWAP2 DUP3 MSTORE PUSH1 0x20 DUP1 DUP4 KECCAK256 SWAP1 SWAP2 ADD SWAP3 SWAP1 SWAP3 SSTORE SWAP2 DUP3 MSTORE PUSH1 0x6 SWAP1 MSTORE PUSH1 0x40 SWAP1 KECCAK256 DUP2 SWAP1 SSTORE JUMPDEST PUSH1 0x1 PUSH1 0x1 PUSH1 0xA0 SHL SUB DUP5 AND PUSH1 0x0 SWAP1 DUP2 MSTORE PUSH1 0x5 PUSH1 0x20 MSTORE PUSH1 0x40 SWAP1 KECCAK256 DUP1 SLOAD SWAP1 PUSH2 0xB1D SWAP1 PUSH1 0x0 NOT DUP4 ADD PUSH2 0xD47 JUMP JUMPDEST POP POP POP POP POP JUMP JUMPDEST PUSH1 0x1 PUSH1 0x1 PUSH1 0xA0 SHL SUB SWAP1 SWAP2 AND PUSH1 0x0 SWAP1 DUP2 MSTORE PUSH1 0x5 PUSH1 0x20 DUP2 DUP2 MSTORE PUSH1 0x40 DUP1 DUP5 KECCAK256 DUP1 SLOAD DUP7 DUP7 MSTORE PUSH1 0x6 DUP5 MSTORE SWAP2 DUP6 KECCAK256 DUP3 SWAP1 SSTORE SWAP3 DUP3 MSTORE PUSH1 0x1 DUP2 ADD DUP4 SSTORE SWAP2 DUP4 MSTORE SWAP1 SWAP2 KECCAK256 ADD SSTORE JUMP JUMPDEST EXTCODESIZE ISZERO ISZERO SWAP1 JUMP JUMPDEST PUSH1 0x0 DUP3 DUP3 ADD DUP4 DUP2 LT ISZERO PUSH2 0xB7A JUMPI PUSH1 0x0 DUP1 REVERT JUMPDEST SWAP4 SWAP3 POP POP POP JUMP JUMPDEST PUSH1 0x1 PUSH1 0x1 PUSH1 0xA0 SHL SUB DUP3 AND PUSH2 0xB94 JUMPI PUSH1 0x0 DUP1 REVERT JUMPDEST PUSH2 0xB9D DUP2 PUSH2 0x754 JUMP JUMPDEST ISZERO PUSH2 0xBA7 JUMPI PUSH1 0x0 DUP1 REVERT JUMPDEST PUSH1 0x0 DUP2 DUP2 MSTORE PUSH1 0x1 PUSH1 0x20 DUP2 DUP2 MSTORE PUSH1 0x40 DUP1 DUP5 KECCAK256 DUP1 SLOAD PUSH1 0x1 PUSH1 0x1 PUSH1 0xA0 SHL SUB NOT AND PUSH1 0x1 PUSH1 0x1 PUSH1 0xA0 SHL SUB DUP9 AND SWAP1 DUP2 OR SWAP1 SWAP2 SSTORE DUP5 MSTORE PUSH1 0x3 SWAP1 SWAP2 MSTORE SWAP1 SWAP2 KECCAK256 SLOAD PUSH2 0xBE8 SWAP2 PUSH2 0xB68 JUMP JUMPDEST PUSH1 0x1 PUSH1 0x1 PUSH1 0xA0 SHL SUB DUP4 AND PUSH1 0x0 DUP2 DUP2 MSTORE PUSH1 0x3 PUSH1 0x20 MSTORE PUSH1 0x40 DUP1 DUP3 KECCAK256 SWAP4 SWAP1 SWAP4 SSTORE SWAP2 MLOAD DUP4 SWAP3 SWAP1 PUSH32 0xDDF252AD1BE2C89B69C2B068FC378DAA952BA7F163C4A11628F55A4DF523B3EF SWAP1 DUP3 SWAP1 LOG4 POP POP JUMP JUMPDEST PUSH1 0x7 DUP1 SLOAD PUSH1 0x0 DUP4 DUP2 MSTORE PUSH1 0x8 PUSH1 0x20 MSTORE PUSH1 0x40 DUP2 KECCAK256 DUP3 SWAP1 SSTORE PUSH1 0x1 DUP3 ADD DUP4 SSTORE SWAP2 SWAP1 SWAP2 MSTORE PUSH32 0xA66CC928B5EDB82AF9BD49922954155AB7B0942694BEA4CE44661D9A8736C688 ADD SSTORE JUMP JUMPDEST PUSH1 0x0 DUP2 DUP2 MSTORE PUSH1 0x2 PUSH1 0x20 MSTORE PUSH1 0x40 SWAP1 KECCAK256 SLOAD PUSH1 0x1 PUSH1 0x1 PUSH1 0xA0 SHL SUB AND ISZERO PUSH2 0xCB1 JUMPI PUSH1 0x0 DUP2 DUP2 MSTORE PUSH1 0x2 PUSH1 0x20 MSTORE PUSH1 0x40 SWAP1 KECCAK256 DUP1 SLOAD PUSH1 0x1 PUSH1 0x1 PUSH1 0xA0 SHL SUB NOT AND SWAP1 SSTORE JUMPDEST POP JUMP JUMPDEST PUSH1 0x0 DUP3 DUP3 GT ISZERO PUSH2 0xCC3 JUMPI PUSH1 0x0 DUP1 REVERT JUMPDEST POP SWAP1 SUB SWAP1 JUMP JUMPDEST DUP3 DUP1 SLOAD PUSH1 0x1 DUP2 PUSH1 0x1 AND ISZERO PUSH2 0x100 MUL SUB AND PUSH1 0x2 SWAP1 DIV SWAP1 PUSH1 0x0 MSTORE PUSH1 0x20 PUSH1 0x0 KECCAK256 SWAP1 PUSH1 0x1F ADD PUSH1 0x20 SWAP1 DIV DUP2 ADD SWAP3 DUP3 PUSH1 0x1F LT PUSH2 0xD0A JUMPI DUP1 MLOAD PUSH1 0xFF NOT AND DUP4 DUP1 ADD OR DUP6 SSTORE PUSH2 0xD37 JUMP JUMPDEST DUP3 DUP1 ADD PUSH1 0x1 ADD DUP6 SSTORE DUP3 ISZERO PUSH2 0xD37 JUMPI SWAP2 DUP3 ADD JUMPDEST DUP3 DUP2 GT ISZERO PUSH2 0xD37 JUMPI DUP3 MLOAD DUP3 SSTORE SWAP2 PUSH1 0x20 ADD SWAP2 SWAP1 PUSH1 0x1 ADD SWAP1 PUSH2 0xD1C JUMP JUMPDEST POP PUSH2 0xD43 SWAP3 SWAP2 POP PUSH2 0xD67 JUMP JUMPDEST POP SWAP1 JUMP JUMPDEST DUP2 SLOAD DUP2 DUP4 SSTORE DUP2 DUP2 GT ISZERO PUSH2 0x43B JUMPI PUSH1 0x0 DUP4 DUP2 MSTORE PUSH1 0x20 SWAP1 KECCAK256 PUSH2 0x43B SWAP2 DUP2 ADD SWAP1 DUP4 ADD JUMPDEST PUSH2 0x337 SWAP2 SWAP1 JUMPDEST DUP1 DUP3 GT ISZERO PUSH2 0xD43 JUMPI PUSH1 0x0 DUP2 SSTORE PUSH1 0x1 ADD PUSH2 0xD6D JUMP JUMPDEST DUP1 CALLDATALOAD PUSH2 0x488 DUP2 PUSH2 0x11E5 JUMP JUMPDEST DUP1 CALLDATALOAD PUSH2 0x488 DUP2 PUSH2 0x11F9 JUMP JUMPDEST DUP1 CALLDATALOAD PUSH2 0x488 DUP2 PUSH2 0x1202 JUMP JUMPDEST DUP1 MLOAD PUSH2 0x488 DUP2 PUSH2 0x1202 JUMP JUMPDEST PUSH1 0x0 DUP3 PUSH1 0x1F DUP4 ADD SLT PUSH2 0xDBE JUMPI PUSH1 0x0 DUP1 REVERT JUMPDEST DUP2 CALLDATALOAD PUSH2 0xDD1 PUSH2 0xDCC DUP3 PUSH2 0x1134 JUMP JUMPDEST PUSH2 0x110D JUMP JUMPDEST SWAP2 POP DUP1 DUP3 MSTORE PUSH1 0x20 DUP4 ADD PUSH1 0x20 DUP4 ADD DUP6 DUP4 DUP4 ADD GT ISZERO PUSH2 0xDED JUMPI PUSH1 0x0 DUP1 REVERT JUMPDEST PUSH2 0xDF8 DUP4 DUP3 DUP5 PUSH2 0x11A3 JUMP JUMPDEST POP POP POP SWAP3 SWAP2 POP POP JUMP JUMPDEST DUP1 CALLDATALOAD PUSH2 0x488 DUP2 PUSH2 0x120B JUMP JUMPDEST PUSH1 0x0 PUSH1 0x20 DUP3 DUP5 SUB SLT ISZERO PUSH2 0xE1E JUMPI PUSH1 0x0 DUP1 REVERT JUMPDEST PUSH1 0x0 PUSH2 0x7C8 DUP5 DUP5 PUSH2 0xD81 JUMP JUMPDEST PUSH1 0x0 DUP1 PUSH1 0x40 DUP4 DUP6 SUB SLT ISZERO PUSH2 0xE3D JUMPI PUSH1 0x0 DUP1 REVERT JUMPDEST PUSH1 0x0 PUSH2 0xE49 DUP6 DUP6 PUSH2 0xD81 JUMP JUMPDEST SWAP3 POP POP PUSH1 0x20 PUSH2 0xE5A DUP6 DUP3 DUP7 ADD PUSH2 0xD81 JUMP JUMPDEST SWAP2 POP POP SWAP3 POP SWAP3 SWAP1 POP JUMP JUMPDEST PUSH1 0x0 DUP1 PUSH1 0x0 PUSH1 0x60 DUP5 DUP7 SUB SLT ISZERO PUSH2 0xE79 JUMPI PUSH1 0x0 DUP1 REVERT JUMPDEST PUSH1 0x0 PUSH2 0xE85 DUP7 DUP7 PUSH2 0xD81 JUMP JUMPDEST SWAP4 POP POP PUSH1 0x20 PUSH2 0xE96 DUP7 DUP3 DUP8 ADD PUSH2 0xD81 JUMP JUMPDEST SWAP3 POP POP PUSH1 0x40 PUSH2 0xEA7 DUP7 DUP3 DUP8 ADD PUSH2 0xE01 JUMP JUMPDEST SWAP2 POP POP SWAP3 POP SWAP3 POP SWAP3 JUMP JUMPDEST PUSH1 0x0 DUP1 PUSH1 0x0 DUP1 PUSH1 0x80 DUP6 DUP8 SUB SLT ISZERO PUSH2 0xEC7 JUMPI PUSH1 0x0 DUP1 REVERT JUMPDEST PUSH1 0x0 PUSH2 0xED3 DUP8 DUP8 PUSH2 0xD81 JUMP JUMPDEST SWAP5 POP POP PUSH1 0x20 PUSH2 0xEE4 DUP8 DUP3 DUP9 ADD PUSH2 0xD81 JUMP JUMPDEST SWAP4 POP POP PUSH1 0x40 PUSH2 0xEF5 DUP8 DUP3 DUP9 ADD PUSH2 0xE01 JUMP JUMPDEST SWAP3 POP POP PUSH1 0x60 DUP6 ADD CALLDATALOAD PUSH8 0xFFFFFFFFFFFFFFFF DUP2 GT ISZERO PUSH2 0xF12 JUMPI PUSH1 0x0 DUP1 REVERT JUMPDEST PUSH2 0xF1E DUP8 DUP3 DUP9 ADD PUSH2 0xDAD JUMP JUMPDEST SWAP2 POP POP SWAP3 SWAP6 SWAP2 SWAP5 POP SWAP3 POP JUMP JUMPDEST PUSH1 0x0 DUP1 PUSH1 0x40 DUP4 DUP6 SUB SLT ISZERO PUSH2 0xF3D JUMPI PUSH1 0x0 DUP1 REVERT JUMPDEST PUSH1 0x0 PUSH2 0xF49 DUP6 DUP6 PUSH2 0xD81 JUMP JUMPDEST SWAP3 POP POP PUSH1 0x20 PUSH2 0xE5A DUP6 DUP3 DUP7 ADD PUSH2 0xD8C JUMP JUMPDEST PUSH1 0x0 DUP1 PUSH1 0x40 DUP4 DUP6 SUB SLT ISZERO PUSH2 0xF6D JUMPI PUSH1 0x0 DUP1 REVERT JUMPDEST PUSH1 0x0 PUSH2 0xF79 DUP6 DUP6 PUSH2 0xD81 JUMP JUMPDEST SWAP3 POP POP PUSH1 0x20 DUP4 ADD CALLDATALOAD PUSH8 0xFFFFFFFFFFFFFFFF DUP2 GT ISZERO PUSH2 0xF96 JUMPI PUSH1 0x0 DUP1 REVERT JUMPDEST PUSH2 0xE5A DUP6 DUP3 DUP7 ADD PUSH2 0xDAD JUMP JUMPDEST PUSH1 0x0 DUP1 PUSH1 0x40 DUP4 DUP6 SUB SLT ISZERO PUSH2 0xFB5 JUMPI PUSH1 0x0 DUP1 REVERT JUMPDEST PUSH1 0x0 PUSH2 0xFC1 DUP6 DUP6 PUSH2 0xD81 JUMP JUMPDEST SWAP3 POP POP PUSH1 0x20 PUSH2 0xE5A DUP6 DUP3 DUP7 ADD PUSH2 0xE01 JUMP JUMPDEST PUSH1 0x0 PUSH1 0x20 DUP3 DUP5 SUB SLT ISZERO PUSH2 0xFE4 JUMPI PUSH1 0x0 DUP1 REVERT JUMPDEST PUSH1 0x0 PUSH2 0x7C8 DUP5 DUP5 PUSH2 0xD97 JUMP JUMPDEST PUSH1 0x0 PUSH1 0x20 DUP3 DUP5 SUB SLT ISZERO PUSH2 0x1002 JUMPI PUSH1 0x0 DUP1 REVERT JUMPDEST PUSH1 0x0 PUSH2 0x7C8 DUP5 DUP5 PUSH2 0xDA2 JUMP JUMPDEST PUSH1 0x0 PUSH1 0x20 DUP3 DUP5 SUB SLT ISZERO PUSH2 0x1020 JUMPI PUSH1 0x0 DUP1 REVERT JUMPDEST PUSH1 0x0 PUSH2 0x7C8 DUP5 DUP5 PUSH2 0xE01 JUMP JUMPDEST PUSH2 0x1035 DUP2 PUSH2 0x1192 JUMP JUMPDEST DUP3 MSTORE POP POP JUMP JUMPDEST PUSH2 0x1035 DUP2 PUSH2 0x1169 JUMP JUMPDEST PUSH2 0x1035 DUP2 PUSH2 0x1174 JUMP JUMPDEST PUSH1 0x0 PUSH2 0x1058 DUP3 PUSH2 0x115C JUMP JUMPDEST PUSH2 0x1062 DUP2 DUP6 PUSH2 0x1160 JUMP JUMPDEST SWAP4 POP PUSH2 0x1072 DUP2 DUP6 PUSH1 0x20 DUP7 ADD PUSH2 0x11AF JUMP JUMPDEST PUSH2 0x107B DUP2 PUSH2 0x11DB JUMP JUMPDEST SWAP1 SWAP4 ADD SWAP4 SWAP3 POP POP POP JUMP JUMPDEST PUSH2 0x1035 DUP2 PUSH2 0x337 JUMP JUMPDEST PUSH1 0x20 DUP2 ADD PUSH2 0x488 DUP3 DUP5 PUSH2 0x103B JUMP JUMPDEST PUSH1 0x80 DUP2 ADD PUSH2 0x10AA DUP3 DUP8 PUSH2 0x102C JUMP JUMPDEST PUSH2 0x10B7 PUSH1 0x20 DUP4 ADD DUP7 PUSH2 0x103B JUMP JUMPDEST PUSH2 0x10C4 PUSH1 0x40 DUP4 ADD DUP6 PUSH2 0x1085 JUMP JUMPDEST DUP2 DUP2 SUB PUSH1 0x60 DUP4 ADD MSTORE PUSH2 0x10D6 DUP2 DUP5 PUSH2 0x104D JUMP JUMPDEST SWAP7 SWAP6 POP POP POP POP POP POP JUMP JUMPDEST PUSH1 0x20 DUP2 ADD PUSH2 0x488 DUP3 DUP5 PUSH2 0x1044 JUMP JUMPDEST PUSH1 0x20 DUP1 DUP3 MSTORE DUP2 ADD PUSH2 0xB7A DUP2 DUP5 PUSH2 0x104D JUMP JUMPDEST PUSH1 0x20 DUP2 ADD PUSH2 0x488 DUP3 DUP5 PUSH2 0x1085 JUMP JUMPDEST PUSH1 0x40 MLOAD DUP2 DUP2 ADD PUSH8 0xFFFFFFFFFFFFFFFF DUP2 GT DUP3 DUP3 LT OR ISZERO PUSH2 0x112C JUMPI PUSH1 0x0 DUP1 REVERT JUMPDEST PUSH1 0x40 MSTORE SWAP2 SWAP1 POP JUMP JUMPDEST PUSH1 0x0 PUSH8 0xFFFFFFFFFFFFFFFF DUP3 GT ISZERO PUSH2 0x114B JUMPI PUSH1 0x0 DUP1 REVERT JUMPDEST POP PUSH1 0x20 PUSH1 0x1F SWAP2 SWAP1 SWAP2 ADD PUSH1 0x1F NOT AND ADD SWAP1 JUMP JUMPDEST MLOAD SWAP1 JUMP JUMPDEST SWAP1 DUP2 MSTORE PUSH1 0x20 ADD SWAP1 JUMP JUMPDEST PUSH1 0x0 PUSH2 0x488 DUP3 PUSH2 0x1186 JUMP JUMPDEST ISZERO ISZERO SWAP1 JUMP JUMPDEST PUSH1 0x1 PUSH1 0x1 PUSH1 0xE0 SHL SUB NOT AND SWAP1 JUMP JUMPDEST PUSH1 0x1 PUSH1 0x1 PUSH1 0xA0 SHL SUB AND SWAP1 JUMP JUMPDEST PUSH1 0x0 PUSH2 0x488 DUP3 PUSH1 0x0 PUSH2 0x488 DUP3 PUSH2 0x1169 JUMP JUMPDEST DUP3 DUP2 DUP4 CALLDATACOPY POP PUSH1 0x0 SWAP2 ADD MSTORE JUMP JUMPDEST PUSH1 0x0 JUMPDEST DUP4 DUP2 LT ISZERO PUSH2 0x11CA JUMPI DUP2 DUP2 ADD MLOAD DUP4 DUP3 ADD MSTORE PUSH1 0x20 ADD PUSH2 0x11B2 JUMP JUMPDEST DUP4 DUP2 GT ISZERO PUSH2 0x63C JUMPI POP POP PUSH1 0x0 SWAP2 ADD MSTORE JUMP JUMPDEST PUSH1 0x1F ADD PUSH1 0x1F NOT AND SWAP1 JUMP JUMPDEST PUSH2 0x11EE DUP2 PUSH2 0x1169 JUMP JUMPDEST DUP2 EQ PUSH2 0xCB1 JUMPI PUSH1 0x0 DUP1 REVERT JUMPDEST PUSH2 0x11EE DUP2 PUSH2 0x1174 JUMP JUMPDEST PUSH2 0x11EE DUP2 PUSH2 0x1179 JUMP JUMPDEST PUSH2 0x11EE DUP2 PUSH2 0x337 JUMP INVALID LOG3 PUSH6 0x627A7A723158 KECCAK256 PUSH31 0xCC7066C395900AE5913214BDD7E4A59D618395E445F12620243FDEAEDD086A PUSH13 0x6578706572696D656E74616CF5 PUSH5 0x736F6C6343 STOP SDIV LT STOP BLOCKHASH LOG3 PUSH6 0x627A7A723158 KECCAK256 MSIZE SWAP1 SWAP8 0xC0 DUP3 PUSH15 0x44267B1CF5FDA47D4617CB7FBED741 0xF6 0x2B 0xE9 0xEE 0xDA SUB DUP1 0xDF PUSH10 0x89406C6578706572696D PUSH6 0x6E74616CF564 PUSH20 0x6F6C634300051000400000000000000000000000 "
		},
		"gasEstimates": {
			"creation": {
				"codeDepositCost": "1896200",
				"executionCost": "infinite",
				"totalCost": "infinite"
			},
			"external": {
				"baseTokenURI()": "infinite",
				"createNewPhotoNFT(string,string,uint256,string)": "infinite",
				"getTokenURI(string)": "infinite",
				"photoAddresses(uint256)": "infinite",
				"photoNFTData()": "infinite",
				"photoNFTMarketplace()": "infinite"
			}
		},
		"methodIdentifiers": {
			"baseTokenURI()": "d547cfb7",
			"createNewPhotoNFT(string,string,uint256,string)": "71552f6c",
			"getTokenURI(string)": "d3e1f6e3",
			"photoAddresses(uint256)": "dc0985c3",
			"photoNFTData()": "ec039514",
			"photoNFTMarketplace()": "c4188f11"
		}
	},
	"abi": [
		{
			"inputs": [
				{
					"internalType": "contract PhotoNFTMarketplace",
					"name": "_photoNFTMarketplace",
					"type": "address"
				},
				{
					"internalType": "contract PhotoNFTData",
					"name": "_photoNFTData",
					"type": "address"
				}
			],
			"payable": false,
			"stateMutability": "nonpayable",
			"type": "constructor"
		},
		{
			"anonymous": false,
			"inputs": [
				{
					"indexed": false,
					"internalType": "uint256",
					"name": "tokenId",
					"type": "uint256"
				},
				{
					"indexed": false,
					"internalType": "uint256",
					"name": "reputationCount",
					"type": "uint256"
				}
			],
			"name": "AddReputation",
			"type": "event"
		},
		{
			"anonymous": false,
			"inputs": [
				{
					"indexed": false,
					"internalType": "address",
					"name": "owner",
					"type": "address"
				},
				{
					"indexed": false,
					"internalType": "contract PhotoNFT",
					"name": "photoNFT",
					"type": "address"
				},
				{
					"indexed": false,
					"internalType": "string",
					"name": "nftName",
					"type": "string"
				},
				{
					"indexed": false,
					"internalType": "string",
					"name": "nftSymbol",
					"type": "string"
				},
				{
					"indexed": false,
					"internalType": "uint256",
					"name": "photoPrice",
					"type": "uint256"
				},
				{
					"indexed": false,
					"internalType": "string",
					"name": "ipfsHashOfPhoto",
					"type": "string"
				}
			],
			"name": "PhotoNFTCreated",
			"type": "event"
		},
		{
			"constant": true,
			"inputs": [],
			"name": "baseTokenURI",
			"outputs": [
				{
					"internalType": "string",
					"name": "",
					"type": "string"
				}
			],
			"payable": false,
			"stateMutability": "view",
			"type": "function"
		},
		{
			"constant": false,
			"inputs": [
				{
					"internalType": "string",
					"name": "nftName",
					"type": "string"
				},
				{
					"internalType": "string",
					"name": "nftSymbol",
					"type": "string"
				},
				{
					"internalType": "uint256",
					"name": "photoPrice",
					"type": "uint256"
				},
				{
					"internalType": "string",
					"name": "ipfsHashOfPhoto",
					"type": "string"
				}
			],
			"name": "createNewPhotoNFT",
			"outputs": [
				{
					"internalType": "bool",
					"name": "",
					"type": "bool"
				}
			],
			"payable": false,
			"stateMutability": "nonpayable",
			"type": "function"
		},
		{
			"constant": true,
			"inputs": [
				{
					"internalType": "string",
					"name": "_ipfsHashOfPhoto",
					"type": "string"
				}
			],
			"name": "getTokenURI",
			"outputs": [
				{
					"internalType": "string",
					"name": "",
					"type": "string"
				}
			],
			"payable": false,
			"stateMutability": "view",
			"type": "function"
		},
		{
			"constant": true,
			"inputs": [
				{
					"internalType": "uint256",
					"name": "",
					"type": "uint256"
				}
			],
			"name": "photoAddresses",
			"outputs": [
				{
					"internalType": "address",
					"name": "",
					"type": "address"
				}
			],
			"payable": false,
			"stateMutability": "view",
			"type": "function"
		},
		{
			"constant": true,
			"inputs": [],
			"name": "photoNFTData",
			"outputs": [
				{
					"internalType": "contract PhotoNFTData",
					"name": "",
					"type": "address"
				}
			],
			"payable": false,
			"stateMutability": "view",
			"type": "function"
		},
		{
			"constant": true,
			"inputs": [],
			"name": "photoNFTMarketplace",
			"outputs": [
				{
					"internalType": "contract PhotoNFTMarketplace",
					"name": "",
					"type": "address"
				}
			],
			"payable": false,
			"stateMutability": "view",
			"type": "function"
		}
	]
}