{
	"data": {
		"bytecode": {
			"linkReferences": {},
			"object": "608060405234801561001057600080fd5b50604051610cd3380380610cd383398101604081905261002f91610068565b600080546001600160a01b0319166001600160a01b03929092169190911781556002556100c7565b8051610062816100b0565b92915050565b60006020828403121561007a57600080fd5b60006100868484610057565b949350505050565b6000610062826100a4565b60006100628261008e565b6001600160a01b031690565b6100b981610099565b81146100c457600080fd5b50565b610bfd806100d66000396000f3fe608060405234801561001057600080fd5b506004361061007d5760003560e01c806380a279c41161005b57806380a279c4146100bd578063a9f752e5146100d0578063ab7a6c3e146100fc578063ec0395141461011c5761007d565b8063493c21761461008257806349b1d3e714610097578063759c4bf3146100aa575b600080fd5b6100956100903660046107cc565b610131565b005b6100956100a5366004610819565b610228565b6100956100b8366004610792565b610333565b6100956100cb366004610792565b6104b6565b6100e36100de366004610730565b610606565b6040516100f39493929190610a5b565b60405180910390f35b61010f61010a366004610774565b61063a565b6040516100f39190610b1c565b610124610698565b6040516100f39190610a99565b8261013a6106d7565b6101438561063a565b905080606001516327b832b760e11b146101785760405162461bcd60e51b815260040161016f90610b0c565b60405180910390fd5b6101838585856106a7565b60208101516040516323b872dd60e01b81526001600160a01b038416916323b872dd916101b7913091889190600401610a19565b600060405180830381600087803b1580156101d157600080fd5b505af11580156101e5573d6000803e3d6000fd5b50506810d85b98d95b1b195960ba1b60608401525050604051600080516020610b9b83398151915290610219908790610a27565b60405180910390a15050505050565b6040516323b872dd60e01b81526001600160a01b038416906323b872dd90610258903390309087906004016109f1565b600060405180830381600087803b15801561027257600080fd5b505af1158015610286573d6000803e3d6000fd5b505060028054600190810182556040805160808101825233815260208082018981528284018981526327b832b760e11b606085019081526001600160a01b038d811660009081529488905293869020945185546001600160a01b0319169416939093178455905194830194909455925193810193909355905160039092019190915551600080516020610b9b833981519152925061032691508590610a41565b60405180910390a1505050565b600054604051634dd5bfa560e11b81526001600160a01b0390911690639bab7f4a90610363908590600401610aa7565b602060405180830381600087803b15801561037d57600080fd5b505af1158015610391573d6000803e3d6000fd5b505050506040513d601f19601f820116820180604052506103b59190810190610756565b506001600160a01b038281166000908152600160205260409020805490911633146103f25760405162461bcd60e51b815260040161016f90610aec565b80600301546327b832b760e11b1461041c5760405162461bcd60e51b815260040161016f90610b0c565b805460018201546040516323b872dd60e01b81526001600160a01b03868116936323b872dd9361045493309390921691600401610a19565b600060405180830381600087803b15801561046e57600080fd5b505af1158015610482573d6000803e3d6000fd5b50506810d85b98d95b1b195960ba1b60038401555050604051600080516020610b9b83398151915290610326908590610a27565b600054604051634dd5bfa560e11b81526001600160a01b0390911690639bab7f4a906104e6908590600401610acd565b602060405180830381600087803b15801561050057600080fd5b505af1158015610514573d6000803e3d6000fd5b505050506040513d601f19601f820116820180604052506105389190810190610756565b506001600160a01b038281166000908152600160205260409020805490911633146105755760405162461bcd60e51b815260040161016f90610afc565b60018101546040516323b872dd60e01b81526001600160a01b038516916323b872dd916105a99133913091906004016109f1565b600060405180830381600087803b1580156105c357600080fd5b505af11580156105d7573d6000803e3d6000fd5b50506327b832b760e11b60038401555050604051600080516020610b9b83398151915290610326908590610a41565b600160208190526000918252604090912080549181015460028201546003909201546001600160a01b039093169290919084565b6106426106d7565b61064a6106d7565b50506001600160a01b03908116600090815260016020818152604092839020835160808101855281549095168552918201549084015260028101549183019190915260030154606082015290565b6000546001600160a01b031681565b6001600160a01b03928316600090815260016020526040902080546001600160a01b031916919093161790915550565b60408051608081018252600080825260208201819052918101829052606081019190915290565b803561070981610b68565b92915050565b805161070981610b7f565b803561070981610b88565b803561070981610b91565b60006020828403121561074257600080fd5b600061074e84846106fe565b949350505050565b60006020828403121561076857600080fd5b600061074e848461070f565b60006020828403121561078657600080fd5b600061074e848461071a565b600080604083850312156107a557600080fd5b60006107b1858561071a565b92505060206107c285828601610725565b9150509250929050565b6000806000606084860312156107e157600080fd5b60006107ed868661071a565b93505060206107fe86828701610725565b925050604061080f868287016106fe565b9150509250925092565b60008060006060848603121561082e57600080fd5b600061083a868661071a565b935050602061084b86828701610725565b925050604061080f86828701610725565b61086581610b5d565b82525050565b61086581610b33565b61086581610b43565b61086581610b46565b6000610893602683610b2a565b7f54726164652063616e2062652063616e63656c6c6564206f6e6c79206279207381526532b63632b91760d11b602082015260400192915050565b60006108db602183610b2a565b7f54726164652063616e206265206f70656e206f6e6c792062792073656c6c65728152601760f91b602082015260400192915050565b600061091e601283610b2a565b712a3930b2329034b9903737ba1027b832b71760711b815260200192915050565b6810d85b98d95b1b195960ba1b9052565b600061095d600983610b2a565b6810d85b98d95b1b195960ba1b815260200192915050565b6327b832b760e11b9052565b600061098e600483610b2a565b6327b832b760e11b815260200192915050565b805160808301906109b2848261086b565b5060208201516109c56020850182610874565b5060408201516109d86040850182610874565b5060608201516109eb6060850182610874565b50505050565b606081016109ff828661085c565b610a0c602083018561086b565b61074e6040830184610874565b606081016109ff828661086b565b60408101610a35828461086b565b6107096020830161093f565b60408101610a4f828461086b565b61070960208301610975565b60808101610a69828761086b565b610a766020830186610874565b610a836040830185610874565b610a906060830184610874565b95945050505050565b60208101610709828461087d565b60408101610ab5828461087d565b8181036020830152610ac681610950565b9392505050565b60408101610adb828461087d565b8181036020830152610ac681610981565b6020808252810161070981610886565b60208082528101610709816108ce565b6020808252810161070981610911565b6080810161070982846109a1565b90815260200190565b600061070982610b51565b151590565b90565b600061070982610b33565b6001600160a01b031690565b600061070982610b46565b610b7181610b33565b8114610b7c57600080fd5b50565b610b7181610b3e565b610b7181610b46565b610b7181610b4356feee0bd10dbd5c2151f43ed2fa6af0584fbad842aa901d657f39fffd140822ae70a365627a7a723158204aa27432e71a89a4af4fa81b552ea56683afd35fdc51734ffafe5002a08d23aa6c6578706572696d656e74616cf564736f6c63430005100040",
			"opcodes": "PUSH1 0x80 PUSH1 0x40 MSTORE CALLVALUE DUP1 ISZERO PUSH2 0x10 JUMPI PUSH1 0x0 DUP1 REVERT JUMPDEST POP PUSH1 0x40 MLOAD PUSH2 0xCD3 CODESIZE SUB DUP1 PUSH2 0xCD3 DUP4 CODECOPY DUP2 ADD PUSH1 0x40 DUP2 SWAP1 MSTORE PUSH2 0x2F SWAP2 PUSH2 0x68 JUMP JUMPDEST PUSH1 0x0 DUP1 SLOAD PUSH1 0x1 PUSH1 0x1 PUSH1 0xA0 SHL SUB NOT AND PUSH1 0x1 PUSH1 0x1 PUSH1 0xA0 SHL SUB SWAP3 SWAP1 SWAP3 AND SWAP2 SWAP1 SWAP2 OR DUP2 SSTORE PUSH1 0x2 SSTORE PUSH2 0xC7 JUMP JUMPDEST DUP1 MLOAD PUSH2 0x62 DUP2 PUSH2 0xB0 JUMP JUMPDEST SWAP3 SWAP2 POP POP JUMP JUMPDEST PUSH1 0x0 PUSH1 0x20 DUP3 DUP5 SUB SLT ISZERO PUSH2 0x7A JUMPI PUSH1 0x0 DUP1 REVERT JUMPDEST PUSH1 0x0 PUSH2 0x86 DUP5 DUP5 PUSH2 0x57 JUMP JUMPDEST SWAP5 SWAP4 POP POP POP POP JUMP JUMPDEST PUSH1 0x0 PUSH2 0x62 DUP3 PUSH2 0xA4 JUMP JUMPDEST PUSH1 0x0 PUSH2 0x62 DUP3 PUSH2 0x8E JUMP JUMPDEST PUSH1 0x1 PUSH1 0x1 PUSH1 0xA0 SHL SUB AND SWAP1 JUMP JUMPDEST PUSH2 0xB9 DUP2 PUSH2 0x99 JUMP JUMPDEST DUP2 EQ PUSH2 0xC4 JUMPI PUSH1 0x0 DUP1 REVERT JUMPDEST POP JUMP JUMPDEST PUSH2 0xBFD DUP1 PUSH2 0xD6 PUSH1 0x0 CODECOPY PUSH1 0x0 RETURN INVALID PUSH1 0x80 PUSH1 0x40 MSTORE CALLVALUE DUP1 ISZERO PUSH2 0x10 JUMPI PUSH1 0x0 DUP1 REVERT JUMPDEST POP PUSH1 0x4 CALLDATASIZE LT PUSH2 0x7D JUMPI PUSH1 0x0 CALLDATALOAD PUSH1 0xE0 SHR DUP1 PUSH4 0x80A279C4 GT PUSH2 0x5B JUMPI DUP1 PUSH4 0x80A279C4 EQ PUSH2 0xBD JUMPI DUP1 PUSH4 0xA9F752E5 EQ PUSH2 0xD0 JUMPI DUP1 PUSH4 0xAB7A6C3E EQ PUSH2 0xFC JUMPI DUP1 PUSH4 0xEC039514 EQ PUSH2 0x11C JUMPI PUSH2 0x7D JUMP JUMPDEST DUP1 PUSH4 0x493C2176 EQ PUSH2 0x82 JUMPI DUP1 PUSH4 0x49B1D3E7 EQ PUSH2 0x97 JUMPI DUP1 PUSH4 0x759C4BF3 EQ PUSH2 0xAA JUMPI JUMPDEST PUSH1 0x0 DUP1 REVERT JUMPDEST PUSH2 0x95 PUSH2 0x90 CALLDATASIZE PUSH1 0x4 PUSH2 0x7CC JUMP JUMPDEST PUSH2 0x131 JUMP JUMPDEST STOP JUMPDEST PUSH2 0x95 PUSH2 0xA5 CALLDATASIZE PUSH1 0x4 PUSH2 0x819 JUMP JUMPDEST PUSH2 0x228 JUMP JUMPDEST PUSH2 0x95 PUSH2 0xB8 CALLDATASIZE PUSH1 0x4 PUSH2 0x792 JUMP JUMPDEST PUSH2 0x333 JUMP JUMPDEST PUSH2 0x95 PUSH2 0xCB CALLDATASIZE PUSH1 0x4 PUSH2 0x792 JUMP JUMPDEST PUSH2 0x4B6 JUMP JUMPDEST PUSH2 0xE3 PUSH2 0xDE CALLDATASIZE PUSH1 0x4 PUSH2 0x730 JUMP JUMPDEST PUSH2 0x606 JUMP JUMPDEST PUSH1 0x40 MLOAD PUSH2 0xF3 SWAP5 SWAP4 SWAP3 SWAP2 SWAP1 PUSH2 0xA5B JUMP JUMPDEST PUSH1 0x40 MLOAD DUP1 SWAP2 SUB SWAP1 RETURN JUMPDEST PUSH2 0x10F PUSH2 0x10A CALLDATASIZE PUSH1 0x4 PUSH2 0x774 JUMP JUMPDEST PUSH2 0x63A JUMP JUMPDEST PUSH1 0x40 MLOAD PUSH2 0xF3 SWAP2 SWAP1 PUSH2 0xB1C JUMP JUMPDEST PUSH2 0x124 PUSH2 0x698 JUMP JUMPDEST PUSH1 0x40 MLOAD PUSH2 0xF3 SWAP2 SWAP1 PUSH2 0xA99 JUMP JUMPDEST DUP3 PUSH2 0x13A PUSH2 0x6D7 JUMP JUMPDEST PUSH2 0x143 DUP6 PUSH2 0x63A JUMP JUMPDEST SWAP1 POP DUP1 PUSH1 0x60 ADD MLOAD PUSH4 0x27B832B7 PUSH1 0xE1 SHL EQ PUSH2 0x178 JUMPI PUSH1 0x40 MLOAD PUSH3 0x461BCD PUSH1 0xE5 SHL DUP2 MSTORE PUSH1 0x4 ADD PUSH2 0x16F SWAP1 PUSH2 0xB0C JUMP JUMPDEST PUSH1 0x40 MLOAD DUP1 SWAP2 SUB SWAP1 REVERT JUMPDEST PUSH2 0x183 DUP6 DUP6 DUP6 PUSH2 0x6A7 JUMP JUMPDEST PUSH1 0x20 DUP2 ADD MLOAD PUSH1 0x40 MLOAD PUSH4 0x23B872DD PUSH1 0xE0 SHL DUP2 MSTORE PUSH1 0x1 PUSH1 0x1 PUSH1 0xA0 SHL SUB DUP5 AND SWAP2 PUSH4 0x23B872DD SWAP2 PUSH2 0x1B7 SWAP2 ADDRESS SWAP2 DUP9 SWAP2 SWAP1 PUSH1 0x4 ADD PUSH2 0xA19 JUMP JUMPDEST PUSH1 0x0 PUSH1 0x40 MLOAD DUP1 DUP4 SUB DUP2 PUSH1 0x0 DUP8 DUP1 EXTCODESIZE ISZERO DUP1 ISZERO PUSH2 0x1D1 JUMPI PUSH1 0x0 DUP1 REVERT JUMPDEST POP GAS CALL ISZERO DUP1 ISZERO PUSH2 0x1E5 JUMPI RETURNDATASIZE PUSH1 0x0 DUP1 RETURNDATACOPY RETURNDATASIZE PUSH1 0x0 REVERT JUMPDEST POP POP PUSH9 0x10D85B98D95B1B1959 PUSH1 0xBA SHL PUSH1 0x60 DUP5 ADD MSTORE POP POP PUSH1 0x40 MLOAD PUSH1 0x0 DUP1 MLOAD PUSH1 0x20 PUSH2 0xB9B DUP4 CODECOPY DUP2 MLOAD SWAP2 MSTORE SWAP1 PUSH2 0x219 SWAP1 DUP8 SWAP1 PUSH2 0xA27 JUMP JUMPDEST PUSH1 0x40 MLOAD DUP1 SWAP2 SUB SWAP1 LOG1 POP POP POP POP POP JUMP JUMPDEST PUSH1 0x40 MLOAD PUSH4 0x23B872DD PUSH1 0xE0 SHL DUP2 MSTORE PUSH1 0x1 PUSH1 0x1 PUSH1 0xA0 SHL SUB DUP5 AND SWAP1 PUSH4 0x23B872DD SWAP1 PUSH2 0x258 SWAP1 CALLER SWAP1 ADDRESS SWAP1 DUP8 SWAP1 PUSH1 0x4 ADD PUSH2 0x9F1 JUMP JUMPDEST PUSH1 0x0 PUSH1 0x40 MLOAD DUP1 DUP4 SUB DUP2 PUSH1 0x0 DUP8 DUP1 EXTCODESIZE ISZERO DUP1 ISZERO PUSH2 0x272 JUMPI PUSH1 0x0 DUP1 REVERT JUMPDEST POP GAS CALL ISZERO DUP1 ISZERO PUSH2 0x286 JUMPI RETURNDATASIZE PUSH1 0x0 DUP1 RETURNDATACOPY RETURNDATASIZE PUSH1 0x0 REVERT JUMPDEST POP POP PUSH1 0x2 DUP1 SLOAD PUSH1 0x1 SWAP1 DUP2 ADD DUP3 SSTORE PUSH1 0x40 DUP1 MLOAD PUSH1 0x80 DUP2 ADD DUP3 MSTORE CALLER DUP2 MSTORE PUSH1 0x20 DUP1 DUP3 ADD DUP10 DUP2 MSTORE DUP3 DUP5 ADD DUP10 DUP2 MSTORE PUSH4 0x27B832B7 PUSH1 0xE1 SHL PUSH1 0x60 DUP6 ADD SWAP1 DUP2 MSTORE PUSH1 0x1 PUSH1 0x1 PUSH1 0xA0 SHL SUB DUP14 DUP2 AND PUSH1 0x0 SWAP1 DUP2 MSTORE SWAP5 DUP9 SWAP1 MSTORE SWAP4 DUP7 SWAP1 KECCAK256 SWAP5 MLOAD DUP6 SLOAD PUSH1 0x1 PUSH1 0x1 PUSH1 0xA0 SHL SUB NOT AND SWAP5 AND SWAP4 SWAP1 SWAP4 OR DUP5 SSTORE SWAP1 MLOAD SWAP5 DUP4 ADD SWAP5 SWAP1 SWAP5 SSTORE SWAP3 MLOAD SWAP4 DUP2 ADD SWAP4 SWAP1 SWAP4 SSTORE SWAP1 MLOAD PUSH1 0x3 SWAP1 SWAP3 ADD SWAP2 SWAP1 SWAP2 SSTORE MLOAD PUSH1 0x0 DUP1 MLOAD PUSH1 0x20 PUSH2 0xB9B DUP4 CODECOPY DUP2 MLOAD SWAP2 MSTORE SWAP3 POP PUSH2 0x326 SWAP2 POP DUP6 SWAP1 PUSH2 0xA41 JUMP JUMPDEST PUSH1 0x40 MLOAD DUP1 SWAP2 SUB SWAP1 LOG1 POP POP POP JUMP JUMPDEST PUSH1 0x0 SLOAD PUSH1 0x40 MLOAD PUSH4 0x4DD5BFA5 PUSH1 0xE1 SHL DUP2 MSTORE PUSH1 0x1 PUSH1 0x1 PUSH1 0xA0 SHL SUB SWAP1 SWAP2 AND SWAP1 PUSH4 0x9BAB7F4A SWAP1 PUSH2 0x363 SWAP1 DUP6 SWAP1 PUSH1 0x4 ADD PUSH2 0xAA7 JUMP JUMPDEST PUSH1 0x20 PUSH1 0x40 MLOAD DUP1 DUP4 SUB DUP2 PUSH1 0x0 DUP8 DUP1 EXTCODESIZE ISZERO DUP1 ISZERO PUSH2 0x37D JUMPI PUSH1 0x0 DUP1 REVERT JUMPDEST POP GAS CALL ISZERO DUP1 ISZERO PUSH2 0x391 JUMPI RETURNDATASIZE PUSH1 0x0 DUP1 RETURNDATACOPY RETURNDATASIZE PUSH1 0x0 REVERT JUMPDEST POP POP POP POP PUSH1 0x40 MLOAD RETURNDATASIZE PUSH1 0x1F NOT PUSH1 0x1F DUP3 ADD AND DUP3 ADD DUP1 PUSH1 0x40 MSTORE POP PUSH2 0x3B5 SWAP2 SWAP1 DUP2 ADD SWAP1 PUSH2 0x756 JUMP JUMPDEST POP PUSH1 0x1 PUSH1 0x1 PUSH1 0xA0 SHL SUB DUP3 DUP2 AND PUSH1 0x0 SWAP1 DUP2 MSTORE PUSH1 0x1 PUSH1 0x20 MSTORE PUSH1 0x40 SWAP1 KECCAK256 DUP1 SLOAD SWAP1 SWAP2 AND CALLER EQ PUSH2 0x3F2 JUMPI PUSH1 0x40 MLOAD PUSH3 0x461BCD PUSH1 0xE5 SHL DUP2 MSTORE PUSH1 0x4 ADD PUSH2 0x16F SWAP1 PUSH2 0xAEC JUMP JUMPDEST DUP1 PUSH1 0x3 ADD SLOAD PUSH4 0x27B832B7 PUSH1 0xE1 SHL EQ PUSH2 0x41C JUMPI PUSH1 0x40 MLOAD PUSH3 0x461BCD PUSH1 0xE5 SHL DUP2 MSTORE PUSH1 0x4 ADD PUSH2 0x16F SWAP1 PUSH2 0xB0C JUMP JUMPDEST DUP1 SLOAD PUSH1 0x1 DUP3 ADD SLOAD PUSH1 0x40 MLOAD PUSH4 0x23B872DD PUSH1 0xE0 SHL DUP2 MSTORE PUSH1 0x1 PUSH1 0x1 PUSH1 0xA0 SHL SUB DUP7 DUP2 AND SWAP4 PUSH4 0x23B872DD SWAP4 PUSH2 0x454 SWAP4 ADDRESS SWAP4 SWAP1 SWAP3 AND SWAP2 PUSH1 0x4 ADD PUSH2 0xA19 JUMP JUMPDEST PUSH1 0x0 PUSH1 0x40 MLOAD DUP1 DUP4 SUB DUP2 PUSH1 0x0 DUP8 DUP1 EXTCODESIZE ISZERO DUP1 ISZERO PUSH2 0x46E JUMPI PUSH1 0x0 DUP1 REVERT JUMPDEST POP GAS CALL ISZERO DUP1 ISZERO PUSH2 0x482 JUMPI RETURNDATASIZE PUSH1 0x0 DUP1 RETURNDATACOPY RETURNDATASIZE PUSH1 0x0 REVERT JUMPDEST POP POP PUSH9 0x10D85B98D95B1B1959 PUSH1 0xBA SHL PUSH1 0x3 DUP5 ADD SSTORE POP POP PUSH1 0x40 MLOAD PUSH1 0x0 DUP1 MLOAD PUSH1 0x20 PUSH2 0xB9B DUP4 CODECOPY DUP2 MLOAD SWAP2 MSTORE SWAP1 PUSH2 0x326 SWAP1 DUP6 SWAP1 PUSH2 0xA27 JUMP JUMPDEST PUSH1 0x0 SLOAD PUSH1 0x40 MLOAD PUSH4 0x4DD5BFA5 PUSH1 0xE1 SHL DUP2 MSTORE PUSH1 0x1 PUSH1 0x1 PUSH1 0xA0 SHL SUB SWAP1 SWAP2 AND SWAP1 PUSH4 0x9BAB7F4A SWAP1 PUSH2 0x4E6 SWAP1 DUP6 SWAP1 PUSH1 0x4 ADD PUSH2 0xACD JUMP JUMPDEST PUSH1 0x20 PUSH1 0x40 MLOAD DUP1 DUP4 SUB DUP2 PUSH1 0x0 DUP8 DUP1 EXTCODESIZE ISZERO DUP1 ISZERO PUSH2 0x500 JUMPI PUSH1 0x0 DUP1 REVERT JUMPDEST POP GAS CALL ISZERO DUP1 ISZERO PUSH2 0x514 JUMPI RETURNDATASIZE PUSH1 0x0 DUP1 RETURNDATACOPY RETURNDATASIZE PUSH1 0x0 REVERT JUMPDEST POP POP POP POP PUSH1 0x40 MLOAD RETURNDATASIZE PUSH1 0x1F NOT PUSH1 0x1F DUP3 ADD AND DUP3 ADD DUP1 PUSH1 0x40 MSTORE POP PUSH2 0x538 SWAP2 SWAP1 DUP2 ADD SWAP1 PUSH2 0x756 JUMP JUMPDEST POP PUSH1 0x1 PUSH1 0x1 PUSH1 0xA0 SHL SUB DUP3 DUP2 AND PUSH1 0x0 SWAP1 DUP2 MSTORE PUSH1 0x1 PUSH1 0x20 MSTORE PUSH1 0x40 SWAP1 KECCAK256 DUP1 SLOAD SWAP1 SWAP2 AND CALLER EQ PUSH2 0x575 JUMPI PUSH1 0x40 MLOAD PUSH3 0x461BCD PUSH1 0xE5 SHL DUP2 MSTORE PUSH1 0x4 ADD PUSH2 0x16F SWAP1 PUSH2 0xAFC JUMP JUMPDEST PUSH1 0x1 DUP2 ADD SLOAD PUSH1 0x40 MLOAD PUSH4 0x23B872DD PUSH1 0xE0 SHL DUP2 MSTORE PUSH1 0x1 PUSH1 0x1 PUSH1 0xA0 SHL SUB DUP6 AND SWAP2 PUSH4 0x23B872DD SWAP2 PUSH2 0x5A9 SWAP2 CALLER SWAP2 ADDRESS SWAP2 SWAP1 PUSH1 0x4 ADD PUSH2 0x9F1 JUMP JUMPDEST PUSH1 0x0 PUSH1 0x40 MLOAD DUP1 DUP4 SUB DUP2 PUSH1 0x0 DUP8 DUP1 EXTCODESIZE ISZERO DUP1 ISZERO PUSH2 0x5C3 JUMPI PUSH1 0x0 DUP1 REVERT JUMPDEST POP GAS CALL ISZERO DUP1 ISZERO PUSH2 0x5D7 JUMPI RETURNDATASIZE PUSH1 0x0 DUP1 RETURNDATACOPY RETURNDATASIZE PUSH1 0x0 REVERT JUMPDEST POP POP PUSH4 0x27B832B7 PUSH1 0xE1 SHL PUSH1 0x3 DUP5 ADD SSTORE POP POP PUSH1 0x40 MLOAD PUSH1 0x0 DUP1 MLOAD PUSH1 0x20 PUSH2 0xB9B DUP4 CODECOPY DUP2 MLOAD SWAP2 MSTORE SWAP1 PUSH2 0x326 SWAP1 DUP6 SWAP1 PUSH2 0xA41 JUMP JUMPDEST PUSH1 0x1 PUSH1 0x20 DUP2 SWAP1 MSTORE PUSH1 0x0 SWAP2 DUP3 MSTORE PUSH1 0x40 SWAP1 SWAP2 KECCAK256 DUP1 SLOAD SWAP2 DUP2 ADD SLOAD PUSH1 0x2 DUP3 ADD SLOAD PUSH1 0x3 SWAP1 SWAP3 ADD SLOAD PUSH1 0x1 PUSH1 0x1 PUSH1 0xA0 SHL SUB SWAP1 SWAP4 AND SWAP3 SWAP1 SWAP2 SWAP1 DUP5 JUMP JUMPDEST PUSH2 0x642 PUSH2 0x6D7 JUMP JUMPDEST PUSH2 0x64A PUSH2 0x6D7 JUMP JUMPDEST POP POP PUSH1 0x1 PUSH1 0x1 PUSH1 0xA0 SHL SUB SWAP1 DUP2 AND PUSH1 0x0 SWAP1 DUP2 MSTORE PUSH1 0x1 PUSH1 0x20 DUP2 DUP2 MSTORE PUSH1 0x40 SWAP3 DUP4 SWAP1 KECCAK256 DUP4 MLOAD PUSH1 0x80 DUP2 ADD DUP6 MSTORE DUP2 SLOAD SWAP1 SWAP6 AND DUP6 MSTORE SWAP2 DUP3 ADD SLOAD SWAP1 DUP5 ADD MSTORE PUSH1 0x2 DUP2 ADD SLOAD SWAP2 DUP4 ADD SWAP2 SWAP1 SWAP2 MSTORE PUSH1 0x3 ADD SLOAD PUSH1 0x60 DUP3 ADD MSTORE SWAP1 JUMP JUMPDEST PUSH1 0x0 SLOAD PUSH1 0x1 PUSH1 0x1 PUSH1 0xA0 SHL SUB AND DUP2 JUMP JUMPDEST PUSH1 0x1 PUSH1 0x1 PUSH1 0xA0 SHL SUB SWAP3 DUP4 AND PUSH1 0x0 SWAP1 DUP2 MSTORE PUSH1 0x1 PUSH1 0x20 MSTORE PUSH1 0x40 SWAP1 KECCAK256 DUP1 SLOAD PUSH1 0x1 PUSH1 0x1 PUSH1 0xA0 SHL SUB NOT AND SWAP2 SWAP1 SWAP4 AND OR SWAP1 SWAP2 SSTORE POP JUMP JUMPDEST PUSH1 0x40 DUP1 MLOAD PUSH1 0x80 DUP2 ADD DUP3 MSTORE PUSH1 0x0 DUP1 DUP3 MSTORE PUSH1 0x20 DUP3 ADD DUP2 SWAP1 MSTORE SWAP2 DUP2 ADD DUP3 SWAP1 MSTORE PUSH1 0x60 DUP2 ADD SWAP2 SWAP1 SWAP2 MSTORE SWAP1 JUMP JUMPDEST DUP1 CALLDATALOAD PUSH2 0x709 DUP2 PUSH2 0xB68 JUMP JUMPDEST SWAP3 SWAP2 POP POP JUMP JUMPDEST DUP1 MLOAD PUSH2 0x709 DUP2 PUSH2 0xB7F JUMP JUMPDEST DUP1 CALLDATALOAD PUSH2 0x709 DUP2 PUSH2 0xB88 JUMP JUMPDEST DUP1 CALLDATALOAD PUSH2 0x709 DUP2 PUSH2 0xB91 JUMP JUMPDEST PUSH1 0x0 PUSH1 0x20 DUP3 DUP5 SUB SLT ISZERO PUSH2 0x742 JUMPI PUSH1 0x0 DUP1 REVERT JUMPDEST PUSH1 0x0 PUSH2 0x74E DUP5 DUP5 PUSH2 0x6FE JUMP JUMPDEST SWAP5 SWAP4 POP POP POP POP JUMP JUMPDEST PUSH1 0x0 PUSH1 0x20 DUP3 DUP5 SUB SLT ISZERO PUSH2 0x768 JUMPI PUSH1 0x0 DUP1 REVERT JUMPDEST PUSH1 0x0 PUSH2 0x74E DUP5 DUP5 PUSH2 0x70F JUMP JUMPDEST PUSH1 0x0 PUSH1 0x20 DUP3 DUP5 SUB SLT ISZERO PUSH2 0x786 JUMPI PUSH1 0x0 DUP1 REVERT JUMPDEST PUSH1 0x0 PUSH2 0x74E DUP5 DUP5 PUSH2 0x71A JUMP JUMPDEST PUSH1 0x0 DUP1 PUSH1 0x40 DUP4 DUP6 SUB SLT ISZERO PUSH2 0x7A5 JUMPI PUSH1 0x0 DUP1 REVERT JUMPDEST PUSH1 0x0 PUSH2 0x7B1 DUP6 DUP6 PUSH2 0x71A JUMP JUMPDEST SWAP3 POP POP PUSH1 0x20 PUSH2 0x7C2 DUP6 DUP3 DUP7 ADD PUSH2 0x725 JUMP JUMPDEST SWAP2 POP POP SWAP3 POP SWAP3 SWAP1 POP JUMP JUMPDEST PUSH1 0x0 DUP1 PUSH1 0x0 PUSH1 0x60 DUP5 DUP7 SUB SLT ISZERO PUSH2 0x7E1 JUMPI PUSH1 0x0 DUP1 REVERT JUMPDEST PUSH1 0x0 PUSH2 0x7ED DUP7 DUP7 PUSH2 0x71A JUMP JUMPDEST SWAP4 POP POP PUSH1 0x20 PUSH2 0x7FE DUP7 DUP3 DUP8 ADD PUSH2 0x725 JUMP JUMPDEST SWAP3 POP POP PUSH1 0x40 PUSH2 0x80F DUP7 DUP3 DUP8 ADD PUSH2 0x6FE JUMP JUMPDEST SWAP2 POP POP SWAP3 POP SWAP3 POP SWAP3 JUMP JUMPDEST PUSH1 0x0 DUP1 PUSH1 0x0 PUSH1 0x60 DUP5 DUP7 SUB SLT ISZERO PUSH2 0x82E JUMPI PUSH1 0x0 DUP1 REVERT JUMPDEST PUSH1 0x0 PUSH2 0x83A DUP7 DUP7 PUSH2 0x71A JUMP JUMPDEST SWAP4 POP POP PUSH1 0x20 PUSH2 0x84B DUP7 DUP3 DUP8 ADD PUSH2 0x725 JUMP JUMPDEST SWAP3 POP POP PUSH1 0x40 PUSH2 0x80F DUP7 DUP3 DUP8 ADD PUSH2 0x725 JUMP JUMPDEST PUSH2 0x865 DUP2 PUSH2 0xB5D JUMP JUMPDEST DUP3 MSTORE POP POP JUMP JUMPDEST PUSH2 0x865 DUP2 PUSH2 0xB33 JUMP JUMPDEST PUSH2 0x865 DUP2 PUSH2 0xB43 JUMP JUMPDEST PUSH2 0x865 DUP2 PUSH2 0xB46 JUMP JUMPDEST PUSH1 0x0 PUSH2 0x893 PUSH1 0x26 DUP4 PUSH2 0xB2A JUMP JUMPDEST PUSH32 0x54726164652063616E2062652063616E63656C6C6564206F6E6C792062792073 DUP2 MSTORE PUSH6 0x32B63632B917 PUSH1 0xD1 SHL PUSH1 0x20 DUP3 ADD MSTORE PUSH1 0x40 ADD SWAP3 SWAP2 POP POP JUMP JUMPDEST PUSH1 0x0 PUSH2 0x8DB PUSH1 0x21 DUP4 PUSH2 0xB2A JUMP JUMPDEST PUSH32 0x54726164652063616E206265206F70656E206F6E6C792062792073656C6C6572 DUP2 MSTORE PUSH1 0x17 PUSH1 0xF9 SHL PUSH1 0x20 DUP3 ADD MSTORE PUSH1 0x40 ADD SWAP3 SWAP2 POP POP JUMP JUMPDEST PUSH1 0x0 PUSH2 0x91E PUSH1 0x12 DUP4 PUSH2 0xB2A JUMP JUMPDEST PUSH18 0x2A3930B2329034B9903737BA1027B832B717 PUSH1 0x71 SHL DUP2 MSTORE PUSH1 0x20 ADD SWAP3 SWAP2 POP POP JUMP JUMPDEST PUSH9 0x10D85B98D95B1B1959 PUSH1 0xBA SHL SWAP1 MSTORE JUMP JUMPDEST PUSH1 0x0 PUSH2 0x95D PUSH1 0x9 DUP4 PUSH2 0xB2A JUMP JUMPDEST PUSH9 0x10D85B98D95B1B1959 PUSH1 0xBA SHL DUP2 MSTORE PUSH1 0x20 ADD SWAP3 SWAP2 POP POP JUMP JUMPDEST PUSH4 0x27B832B7 PUSH1 0xE1 SHL SWAP1 MSTORE JUMP JUMPDEST PUSH1 0x0 PUSH2 0x98E PUSH1 0x4 DUP4 PUSH2 0xB2A JUMP JUMPDEST PUSH4 0x27B832B7 PUSH1 0xE1 SHL DUP2 MSTORE PUSH1 0x20 ADD SWAP3 SWAP2 POP POP JUMP JUMPDEST DUP1 MLOAD PUSH1 0x80 DUP4 ADD SWAP1 PUSH2 0x9B2 DUP5 DUP3 PUSH2 0x86B JUMP JUMPDEST POP PUSH1 0x20 DUP3 ADD MLOAD PUSH2 0x9C5 PUSH1 0x20 DUP6 ADD DUP3 PUSH2 0x874 JUMP JUMPDEST POP PUSH1 0x40 DUP3 ADD MLOAD PUSH2 0x9D8 PUSH1 0x40 DUP6 ADD DUP3 PUSH2 0x874 JUMP JUMPDEST POP PUSH1 0x60 DUP3 ADD MLOAD PUSH2 0x9EB PUSH1 0x60 DUP6 ADD DUP3 PUSH2 0x874 JUMP JUMPDEST POP POP POP POP JUMP JUMPDEST PUSH1 0x60 DUP2 ADD PUSH2 0x9FF DUP3 DUP7 PUSH2 0x85C JUMP JUMPDEST PUSH2 0xA0C PUSH1 0x20 DUP4 ADD DUP6 PUSH2 0x86B JUMP JUMPDEST PUSH2 0x74E PUSH1 0x40 DUP4 ADD DUP5 PUSH2 0x874 JUMP JUMPDEST PUSH1 0x60 DUP2 ADD PUSH2 0x9FF DUP3 DUP7 PUSH2 0x86B JUMP JUMPDEST PUSH1 0x40 DUP2 ADD PUSH2 0xA35 DUP3 DUP5 PUSH2 0x86B JUMP JUMPDEST PUSH2 0x709 PUSH1 0x20 DUP4 ADD PUSH2 0x93F JUMP JUMPDEST PUSH1 0x40 DUP2 ADD PUSH2 0xA4F DUP3 DUP5 PUSH2 0x86B JUMP JUMPDEST PUSH2 0x709 PUSH1 0x20 DUP4 ADD PUSH2 0x975 JUMP JUMPDEST PUSH1 0x80 DUP2 ADD PUSH2 0xA69 DUP3 DUP8 PUSH2 0x86B JUMP JUMPDEST PUSH2 0xA76 PUSH1 0x20 DUP4 ADD DUP7 PUSH2 0x874 JUMP JUMPDEST PUSH2 0xA83 PUSH1 0x40 DUP4 ADD DUP6 PUSH2 0x874 JUMP JUMPDEST PUSH2 0xA90 PUSH1 0x60 DUP4 ADD DUP5 PUSH2 0x874 JUMP JUMPDEST SWAP6 SWAP5 POP POP POP POP POP JUMP JUMPDEST PUSH1 0x20 DUP2 ADD PUSH2 0x709 DUP3 DUP5 PUSH2 0x87D JUMP JUMPDEST PUSH1 0x40 DUP2 ADD PUSH2 0xAB5 DUP3 DUP5 PUSH2 0x87D JUMP JUMPDEST DUP2 DUP2 SUB PUSH1 0x20 DUP4 ADD MSTORE PUSH2 0xAC6 DUP2 PUSH2 0x950 JUMP JUMPDEST SWAP4 SWAP3 POP POP POP JUMP JUMPDEST PUSH1 0x40 DUP2 ADD PUSH2 0xADB DUP3 DUP5 PUSH2 0x87D JUMP JUMPDEST DUP2 DUP2 SUB PUSH1 0x20 DUP4 ADD MSTORE PUSH2 0xAC6 DUP2 PUSH2 0x981 JUMP JUMPDEST PUSH1 0x20 DUP1 DUP3 MSTORE DUP2 ADD PUSH2 0x709 DUP2 PUSH2 0x886 JUMP JUMPDEST PUSH1 0x20 DUP1 DUP3 MSTORE DUP2 ADD PUSH2 0x709 DUP2 PUSH2 0x8CE JUMP JUMPDEST PUSH1 0x20 DUP1 DUP3 MSTORE DUP2 ADD PUSH2 0x709 DUP2 PUSH2 0x911 JUMP JUMPDEST PUSH1 0x80 DUP2 ADD PUSH2 0x709 DUP3 DUP5 PUSH2 0x9A1 JUMP JUMPDEST SWAP1 DUP2 MSTORE PUSH1 0x20 ADD SWAP1 JUMP JUMPDEST PUSH1 0x0 PUSH2 0x709 DUP3 PUSH2 0xB51 JUMP JUMPDEST ISZERO ISZERO SWAP1 JUMP JUMPDEST SWAP1 JUMP JUMPDEST PUSH1 0x0 PUSH2 0x709 DUP3 PUSH2 0xB33 JUMP JUMPDEST PUSH1 0x1 PUSH1 0x1 PUSH1 0xA0 SHL SUB AND SWAP1 JUMP JUMPDEST PUSH1 0x0 PUSH2 0x709 DUP3 PUSH2 0xB46 JUMP JUMPDEST PUSH2 0xB71 DUP2 PUSH2 0xB33 JUMP JUMPDEST DUP2 EQ PUSH2 0xB7C JUMPI PUSH1 0x0 DUP1 REVERT JUMPDEST POP JUMP JUMPDEST PUSH2 0xB71 DUP2 PUSH2 0xB3E JUMP JUMPDEST PUSH2 0xB71 DUP2 PUSH2 0xB46 JUMP JUMPDEST PUSH2 0xB71 DUP2 PUSH2 0xB43 JUMP INVALID 0xEE SIGNEXTEND 0xD1 0xD 0xBD 0x5C 0x21 MLOAD DELEGATECALL RETURNDATACOPY 0xD2 STATICCALL PUSH11 0xF0584FBAD842AA901D657F CODECOPY SELFDESTRUCT REVERT EQ ADDMOD 0x22 0xAE PUSH17 0xA365627A7A723158204AA27432E71A89A4 0xAF 0x4F 0xA8 SHL SSTORE 0x2E 0xA5 PUSH7 0x83AFD35FDC5173 0x4F STATICCALL INVALID POP MUL LOG0 DUP14 0x23 0xAA PUSH13 0x6578706572696D656E74616CF5 PUSH5 0x736F6C6343 STOP SDIV LT STOP BLOCKHASH "
		},
		"gasEstimates": {
			"creation": {
				"codeDepositCost": "613800",
				"executionCost": "infinite",
				"totalCost": "infinite"
			},
			"external": {
				"cancelTrade(address,uint256)": "infinite",
				"getTrade(address)": "infinite",
				"openTrade(address,uint256)": "infinite",
				"openTradeWhenCreateNewPhotoNFT(address,uint256,uint256)": "infinite",
				"photoNFTData()": "infinite",
				"trades(address)": "infinite",
				"transferOwnershipOfPhotoNFT(address,uint256,address)": "infinite"
			},
			"internal": {
				"_updateSeller(contract PhotoNFT,uint256,address)": "20955"
			}
		},
		"methodIdentifiers": {
			"cancelTrade(address,uint256)": "759c4bf3",
			"getTrade(address)": "ab7a6c3e",
			"openTrade(address,uint256)": "80a279c4",
			"openTradeWhenCreateNewPhotoNFT(address,uint256,uint256)": "49b1d3e7",
			"photoNFTData()": "ec039514",
			"trades(address)": "a9f752e5",
			"transferOwnershipOfPhotoNFT(address,uint256,address)": "493c2176"
		}
	},
	"abi": [
		{
			"inputs": [
				{
					"internalType": "contract PhotoNFTData",
					"name": "_photoNFTData",
					"type": "address"
				}
			],
			"payable": false,
			"stateMutability": "nonpayable",
			"type": "constructor"
		},
		{
			"anonymous": false,
			"inputs": [
				{
					"indexed": false,
					"internalType": "address",
					"name": "ad",
					"type": "address"
				},
				{
					"indexed": false,
					"internalType": "bytes32",
					"name": "status",
					"type": "bytes32"
				}
			],
			"name": "TradeStatusChange",
			"type": "event"
		},
		{
			"constant": false,
			"inputs": [
				{
					"internalType": "contract PhotoNFT",
					"name": "photoNFT",
					"type": "address"
				},
				{
					"internalType": "uint256",
					"name": "_photoId",
					"type": "uint256"
				}
			],
			"name": "cancelTrade",
			"outputs": [],
			"payable": false,
			"stateMutability": "nonpayable",
			"type": "function"
		},
		{
			"constant": true,
			"inputs": [
				{
					"internalType": "contract PhotoNFT",
					"name": "photoNFT",
					"type": "address"
				}
			],
			"name": "getTrade",
			"outputs": [
				{
					"components": [
						{
							"internalType": "address",
							"name": "seller",
							"type": "address"
						},
						{
							"internalType": "uint256",
							"name": "photoId",
							"type": "uint256"
						},
						{
							"internalType": "uint256",
							"name": "photoPrice",
							"type": "uint256"
						},
						{
							"internalType": "bytes32",
							"name": "status",
							"type": "bytes32"
						}
					],
					"internalType": "struct PhotoNFTTradable.Trade",
					"name": "trade_",
					"type": "tuple"
				}
			],
			"payable": false,
			"stateMutability": "view",
			"type": "function"
		},
		{
			"constant": false,
			"inputs": [
				{
					"internalType": "contract PhotoNFT",
					"name": "photoNFT",
					"type": "address"
				},
				{
					"internalType": "uint256",
					"name": "_photoId",
					"type": "uint256"
				}
			],
			"name": "openTrade",
			"outputs": [],
			"payable": false,
			"stateMutability": "nonpayable",
			"type": "function"
		},
		{
			"constant": false,
			"inputs": [
				{
					"internalType": "contract PhotoNFT",
					"name": "photoNFT",
					"type": "address"
				},
				{
					"internalType": "uint256",
					"name": "_photoId",
					"type": "uint256"
				},
				{
					"internalType": "uint256",
					"name": "_photoPrice",
					"type": "uint256"
				}
			],
			"name": "openTradeWhenCreateNewPhotoNFT",
			"outputs": [],
			"payable": false,
			"stateMutability": "nonpayable",
			"type": "function"
		},
		{
			"constant": true,
			"inputs": [],
			"name": "photoNFTData",
			"outputs": [
				{
					"internalType": "contract PhotoNFTData",
					"name": "",
					"type": "address"
				}
			],
			"payable": false,
			"stateMutability": "view",
			"type": "function"
		},
		{
			"constant": true,
			"inputs": [
				{
					"internalType": "address",
					"name": "",
					"type": "address"
				}
			],
			"name": "trades",
			"outputs": [
				{
					"internalType": "address",
					"name": "seller",
					"type": "address"
				},
				{
					"internalType": "uint256",
					"name": "photoId",
					"type": "uint256"
				},
				{
					"internalType": "uint256",
					"name": "photoPrice",
					"type": "uint256"
				},
				{
					"internalType": "bytes32",
					"name": "status",
					"type": "bytes32"
				}
			],
			"payable": false,
			"stateMutability": "view",
			"type": "function"
		},
		{
			"constant": false,
			"inputs": [
				{
					"internalType": "contract PhotoNFT",
					"name": "_photoNFT",
					"type": "address"
				},
				{
					"internalType": "uint256",
					"name": "_photoId",
					"type": "uint256"
				},
				{
					"internalType": "address",
					"name": "_buyer",
					"type": "address"
				}
			],
			"name": "transferOwnershipOfPhotoNFT",
			"outputs": [],
			"payable": false,
			"stateMutability": "nonpayable",
			"type": "function"
		}
	]
}