{
  "contractName": "PhotoNFT",
  "abi": [
    {
      "inputs": [],
      "payable": false,
      "stateMutability": "nonpayable",
      "type": "constructor"
    },
    {
      "anonymous": false,
      "inputs": [
        {
          "indexed": true,
          "internalType": "address",
          "name": "owner",
          "type": "address"
        },
        {
          "indexed": true,
          "internalType": "address",
          "name": "approved",
          "type": "address"
        },
        {
          "indexed": true,
          "internalType": "uint256",
          "name": "tokenId",
          "type": "uint256"
        }
      ],
      "name": "Approval",
      "type": "event"
    },
    {
      "anonymous": false,
      "inputs": [
        {
          "indexed": true,
          "internalType": "address",
          "name": "owner",
          "type": "address"
        },
        {
          "indexed": true,
          "internalType": "address",
          "name": "operator",
          "type": "address"
        },
        {
          "indexed": false,
          "internalType": "bool",
          "name": "approved",
          "type": "bool"
        }
      ],
      "name": "ApprovalForAll",
      "type": "event"
    },
    {
      "anonymous": false,
      "inputs": [
        {
          "indexed": false,
          "internalType": "address",
          "name": "owner",
          "type": "address"
        },
        {
          "indexed": false,
          "internalType": "uint256",
          "name": "photoId",
          "type": "uint256"
        }
      ],
      "name": "PhotoNFTCreated",
      "type": "event"
    },
    {
      "anonymous": false,
      "inputs": [
        {
          "indexed": false,
          "internalType": "address",
          "name": "user",
          "type": "address"
        },
        {
          "indexed": false,
          "internalType": "address",
          "name": "currentOwner",
          "type": "address"
        },
        {
          "indexed": false,
          "internalType": "address",
          "name": "contractAddress",
          "type": "address"
        }
      ],
      "name": "PhotoNFTStatus",
      "type": "event"
    },
    {
      "anonymous": false,
      "inputs": [
        {
          "indexed": true,
          "internalType": "address",
          "name": "from",
          "type": "address"
        },
        {
          "indexed": true,
          "internalType": "address",
          "name": "to",
          "type": "address"
        },
        {
          "indexed": true,
          "internalType": "uint256",
          "name": "tokenId",
          "type": "uint256"
        }
      ],
      "name": "Transfer",
      "type": "event"
    },
    {
      "constant": false,
      "inputs": [
        {
          "internalType": "address",
          "name": "to",
          "type": "address"
        },
        {
          "internalType": "uint256",
          "name": "tokenId",
          "type": "uint256"
        }
      ],
      "name": "approve",
      "outputs": [],
      "payable": false,
      "stateMutability": "nonpayable",
      "type": "function"
    },
    {
      "constant": true,
      "inputs": [
        {
          "internalType": "address",
          "name": "owner",
          "type": "address"
        }
      ],
      "name": "balanceOf",
      "outputs": [
        {
          "internalType": "uint256",
          "name": "",
          "type": "uint256"
        }
      ],
      "payable": false,
      "stateMutability": "view",
      "type": "function"
    },
    {
      "constant": true,
      "inputs": [],
      "name": "currentPhotoId",
      "outputs": [
        {
          "internalType": "uint256",
          "name": "",
          "type": "uint256"
        }
      ],
      "payable": false,
      "stateMutability": "view",
      "type": "function"
    },
    {
      "constant": true,
      "inputs": [
        {
          "internalType": "uint256",
          "name": "tokenId",
          "type": "uint256"
        }
      ],
      "name": "getApproved",
      "outputs": [
        {
          "internalType": "address",
          "name": "",
          "type": "address"
        }
      ],
      "payable": false,
      "stateMutability": "view",
      "type": "function"
    },
    {
      "constant": true,
      "inputs": [
        {
          "internalType": "address",
          "name": "owner",
          "type": "address"
        },
        {
          "internalType": "address",
          "name": "operator",
          "type": "address"
        }
      ],
      "name": "isApprovedForAll",
      "outputs": [
        {
          "internalType": "bool",
          "name": "",
          "type": "bool"
        }
      ],
      "payable": false,
      "stateMutability": "view",
      "type": "function"
    },
    {
      "constant": true,
      "inputs": [],
      "name": "name",
      "outputs": [
        {
          "internalType": "string",
          "name": "",
          "type": "string"
        }
      ],
      "payable": false,
      "stateMutability": "view",
      "type": "function"
    },
    {
      "constant": true,
      "inputs": [
        {
          "internalType": "uint256",
          "name": "tokenId",
          "type": "uint256"
        }
      ],
      "name": "ownerOf",
      "outputs": [
        {
          "internalType": "address",
          "name": "",
          "type": "address"
        }
      ],
      "payable": false,
      "stateMutability": "view",
      "type": "function"
    },
    {
      "constant": true,
      "inputs": [
        {
          "internalType": "uint256",
          "name": "",
          "type": "uint256"
        }
      ],
      "name": "photos",
      "outputs": [
        {
          "internalType": "uint256",
          "name": "photoId",
          "type": "uint256"
        },
        {
          "internalType": "address",
          "name": "ownerAddress",
          "type": "address"
        },
        {
          "internalType": "string",
          "name": "photoName",
          "type": "string"
        },
        {
          "internalType": "uint256",
          "name": "photoPrice",
          "type": "uint256"
        },
        {
          "internalType": "string",
          "name": "ipfsHashOfPhoto",
          "type": "string"
        },
        {
          "internalType": "enum PhotoNFT.State",
          "name": "status",
          "type": "uint8"
        },
        {
          "internalType": "uint256",
          "name": "reputation",
          "type": "uint256"
        }
      ],
      "payable": false,
      "stateMutability": "view",
      "type": "function"
    },
    {
      "constant": false,
      "inputs": [
        {
          "internalType": "address",
          "name": "from",
          "type": "address"
        },
        {
          "internalType": "address",
          "name": "to",
          "type": "address"
        },
        {
          "internalType": "uint256",
          "name": "tokenId",
          "type": "uint256"
        }
      ],
      "name": "safeTransferFrom",
      "outputs": [],
      "payable": false,
      "stateMutability": "nonpayable",
      "type": "function"
    },
    {
      "constant": false,
      "inputs": [
        {
          "internalType": "address",
          "name": "from",
          "type": "address"
        },
        {
          "internalType": "address",
          "name": "to",
          "type": "address"
        },
        {
          "internalType": "uint256",
          "name": "tokenId",
          "type": "uint256"
        },
        {
          "internalType": "bytes",
          "name": "_data",
          "type": "bytes"
        }
      ],
      "name": "safeTransferFrom",
      "outputs": [],
      "payable": false,
      "stateMutability": "nonpayable",
      "type": "function"
    },
    {
      "constant": false,
      "inputs": [
        {
          "internalType": "address",
          "name": "to",
          "type": "address"
        },
        {
          "internalType": "bool",
          "name": "approved",
          "type": "bool"
        }
      ],
      "name": "setApprovalForAll",
      "outputs": [],
      "payable": false,
      "stateMutability": "nonpayable",
      "type": "function"
    },
    {
      "constant": true,
      "inputs": [
        {
          "internalType": "bytes4",
          "name": "interfaceId",
          "type": "bytes4"
        }
      ],
      "name": "supportsInterface",
      "outputs": [
        {
          "internalType": "bool",
          "name": "",
          "type": "bool"
        }
      ],
      "payable": false,
      "stateMutability": "view",
      "type": "function"
    },
    {
      "constant": true,
      "inputs": [],
      "name": "symbol",
      "outputs": [
        {
          "internalType": "string",
          "name": "",
          "type": "string"
        }
      ],
      "payable": false,
      "stateMutability": "view",
      "type": "function"
    },
    {
      "constant": true,
      "inputs": [
        {
          "internalType": "uint256",
          "name": "index",
          "type": "uint256"
        }
      ],
      "name": "tokenByIndex",
      "outputs": [
        {
          "internalType": "uint256",
          "name": "",
          "type": "uint256"
        }
      ],
      "payable": false,
      "stateMutability": "view",
      "type": "function"
    },
    {
      "constant": true,
      "inputs": [
        {
          "internalType": "address",
          "name": "owner",
          "type": "address"
        },
        {
          "internalType": "uint256",
          "name": "index",
          "type": "uint256"
        }
      ],
      "name": "tokenOfOwnerByIndex",
      "outputs": [
        {
          "internalType": "uint256",
          "name": "",
          "type": "uint256"
        }
      ],
      "payable": false,
      "stateMutability": "view",
      "type": "function"
    },
    {
      "constant": true,
      "inputs": [
        {
          "internalType": "uint256",
          "name": "tokenId",
          "type": "uint256"
        }
      ],
      "name": "tokenURI",
      "outputs": [
        {
          "internalType": "string",
          "name": "",
          "type": "string"
        }
      ],
      "payable": false,
      "stateMutability": "view",
      "type": "function"
    },
    {
      "constant": true,
      "inputs": [],
      "name": "totalSupply",
      "outputs": [
        {
          "internalType": "uint256",
          "name": "",
          "type": "uint256"
        }
      ],
      "payable": false,
      "stateMutability": "view",
      "type": "function"
    },
    {
      "constant": false,
      "inputs": [
        {
          "internalType": "address",
          "name": "from",
          "type": "address"
        },
        {
          "internalType": "address",
          "name": "to",
          "type": "address"
        },
        {
          "internalType": "uint256",
          "name": "tokenId",
          "type": "uint256"
        }
      ],
      "name": "transferFrom",
      "outputs": [],
      "payable": false,
      "stateMutability": "nonpayable",
      "type": "function"
    },
    {
      "constant": false,
      "inputs": [
        {
          "internalType": "string",
          "name": "tokenURI",
          "type": "string"
        },
        {
          "internalType": "uint256",
          "name": "photoPrice",
          "type": "uint256"
        },
        {
          "internalType": "string",
          "name": "photoName",
          "type": "string"
        }
      ],
      "name": "mint",
      "outputs": [
        {
          "internalType": "bool",
          "name": "",
          "type": "bool"
        }
      ],
      "payable": false,
      "stateMutability": "nonpayable",
      "type": "function"
    },
    {
      "constant": true,
      "inputs": [
        {
          "internalType": "uint256",
          "name": "index",
          "type": "uint256"
        }
      ],
      "name": "getPhoto",
      "outputs": [
        {
          "components": [
            {
              "internalType": "uint256",
              "name": "photoId",
              "type": "uint256"
            },
            {
              "internalType": "address",
              "name": "ownerAddress",
              "type": "address"
            },
            {
              "internalType": "string",
              "name": "photoName",
              "type": "string"
            },
            {
              "internalType": "uint256",
              "name": "photoPrice",
              "type": "uint256"
            },
            {
              "internalType": "string",
              "name": "ipfsHashOfPhoto",
              "type": "string"
            },
            {
              "internalType": "enum PhotoNFT.State",
              "name": "status",
              "type": "uint8"
            },
            {
              "internalType": "uint256",
              "name": "reputation",
              "type": "uint256"
            }
          ],
          "internalType": "struct PhotoNFT.Photo",
          "name": "_photo",
          "type": "tuple"
        }
      ],
      "payable": false,
      "stateMutability": "view",
      "type": "function"
    },
    {
      "constant": true,
      "inputs": [],
      "name": "getAllPhotos",
      "outputs": [
        {
          "components": [
            {
              "internalType": "uint256",
              "name": "photoId",
              "type": "uint256"
            },
            {
              "internalType": "address",
              "name": "ownerAddress",
              "type": "address"
            },
            {
              "internalType": "string",
              "name": "photoName",
              "type": "string"
            },
            {
              "internalType": "uint256",
              "name": "photoPrice",
              "type": "uint256"
            },
            {
              "internalType": "string",
              "name": "ipfsHashOfPhoto",
              "type": "string"
            },
            {
              "internalType": "enum PhotoNFT.State",
              "name": "status",
              "type": "uint8"
            },
            {
              "internalType": "uint256",
              "name": "reputation",
              "type": "uint256"
            }
          ],
          "internalType": "struct PhotoNFT.Photo[]",
          "name": "_photos",
          "type": "tuple[]"
        }
      ],
      "payable": false,
      "stateMutability": "view",
      "type": "function"
    },
    {
      "constant": false,
      "inputs": [
        {
          "internalType": "uint256",
          "name": "photoId",
          "type": "uint256"
        }
      ],
      "name": "openTrade",
      "outputs": [],
      "payable": false,
      "stateMutability": "nonpayable",
      "type": "function"
    },
    {
      "constant": false,
      "inputs": [
        {
          "internalType": "uint256",
          "name": "photoId",
          "type": "uint256"
        }
      ],
      "name": "cancelTrade",
      "outputs": [],
      "payable": false,
      "stateMutability": "nonpayable",
      "type": "function"
    },
    {
      "constant": false,
      "inputs": [
        {
          "internalType": "uint256",
          "name": "photoId",
          "type": "uint256"
        }
      ],
      "name": "buyNFT",
      "outputs": [
        {
          "internalType": "bool",
          "name": "",
          "type": "bool"
        }
      ],
      "payable": true,
      "stateMutability": "payable",
      "type": "function"
    }
  ],
  "bytecode": "0x60806040523480156200001157600080fd5b506040805180820182526008815267141a1bdd1bd3919560c21b6020808301919091528251808401909352601883527f434a482d50686f746f4e46542d6d61726b6574706c616365000000000000000090830152908181620000836301ffc9a760e01b6001600160e01b036200010a16565b6200009e6380ac58cd60e01b6001600160e01b036200010a16565b620000b963780e9d6360e01b6001600160e01b036200010a16565b8151620000ce90600990602085019062000147565b508051620000e490600a90602084019062000147565b5062000100635b5e139f60e01b6001600160e01b036200010a16565b50505050620001ec565b6001600160e01b031980821614156200012257600080fd5b6001600160e01b0319166000908152602081905260409020805460ff19166001179055565b828054600181600116156101000203166002900490600052602060002090601f016020900481019282601f106200018a57805160ff1916838001178555620001ba565b82800160010185558215620001ba579182015b82811115620001ba5782518255916020019190600101906200019d565b50620001c8929150620001cc565b5090565b620001e991905b80821115620001c85760008155600101620001d3565b90565b6123c980620001fc6000396000f3fe60806040526004361061014b5760003560e01c80634f6ccce7116100b6578063af2a5d6f1161006f578063af2a5d6f146103a3578063b4a5b646146103d6578063b6be128a146103eb578063b88d4fde14610418578063c87b56dd14610438578063e985e9c5146104585761014b565b80634f6ccce7146102fb57806351ed82881461031b5780636352211e1461032e57806370a082311461034e57806395d89b411461036e578063a22cb465146103835761014b565b806318160ddd1161010857806318160ddd1461023757806323b872dd14610259578063254d9945146102795780632f745c591461029957806342842e0e146102b957806348c31171146102d95761014b565b806301ffc9a71461015057806306bdc9491461018657806306fdde03146101a6578063081812fc146101c8578063095ea7b3146101f557806309ec6cc714610217575b600080fd5b34801561015c57600080fd5b5061017061016b366004611d26565b610478565b60405161017d9190612141565b60405180910390f35b34801561019257600080fd5b506101706101a1366004611d62565b61049b565b3480156101b257600080fd5b506101bb610652565b60405161017d919061214f565b3480156101d457600080fd5b506101e86101e3366004611dd4565b6106e9565b60405161017d91906120c3565b34801561020157600080fd5b50610215610210366004611cf6565b610719565b005b34801561022357600080fd5b50610215610232366004611dd4565b6107c6565b34801561024357600080fd5b5061024c6108e6565b60405161017d91906121d1565b34801561026557600080fd5b50610215610274366004611c00565b6108ec565b34801561028557600080fd5b50610215610294366004611dd4565b61090f565b3480156102a557600080fd5b5061024c6102b4366004611cf6565b610a23565b3480156102c557600080fd5b506102156102d4366004611c00565b610a71565b3480156102e557600080fd5b506102ee610a8c565b60405161017d9190612130565b34801561030757600080fd5b5061024c610316366004611dd4565b610c68565b610170610329366004611dd4565b610c9c565b34801561033a57600080fd5b506101e8610349366004611dd4565b610f49565b34801561035a57600080fd5b5061024c610369366004611ba8565b610f6b565b34801561037a57600080fd5b506101bb610f9c565b34801561038f57600080fd5b5061021561039e366004611cc6565b610ffd565b3480156103af57600080fd5b506103c36103be366004611dd4565b611082565b60405161017d97969594939291906121df565b3480156103e257600080fd5b5061024c6111f1565b3480156103f757600080fd5b5061040b610406366004611dd4565b6111f7565b60405161017d91906121c0565b34801561042457600080fd5b50610215610433366004611c4d565b6113b6565b34801561044457600080fd5b506101bb610453366004611dd4565b6113dc565b34801561046457600080fd5b50610170610473366004611bc6565b61148f565b6001600160e01b0319811660009081526020819052604090205460ff165b919050565b60006104a933600c546114bd565b6104b1611a14565b506040805160e081018252600c5481523360208083019182529282018581526060830187905260808301889052600160a08401819052600060c08501819052600d8054928301808255915284517fd7b6990105719101dabeb77144f2a3385c8033acd3af97e9423a695e81ad1eb5600790930292830190815593517fd7b6990105719101dabeb77144f2a3385c8033acd3af97e9423a695e81ad1eb6830180546001600160a01b0319166001600160a01b0390921691909117905591518051949592948694936105a5937fd7b6990105719101dabeb77144f2a3385c8033acd3af97e9423a695e81ad1eb701920190611a65565b5060608201516003820155608082015180516105cb916004840191602090910190611a65565b5060a082015160058201805460ff1916600183818111156105e857fe5b021790555060c08201518160060155505050610606600c54866114de565b7fbe502fc2f1f80fde5e0e7685f68d843bb4db212bea1fa28814a133fe4401157933600c54604051610639929190612115565b60405180910390a150600c805460010190559392505050565b60098054604080516020601f60026000196101006001881615020190951694909404938401819004810282018101909252828152606093909290918301828280156106de5780601f106106b3576101008083540402835291602001916106de565b820191906000526020600020905b8154815290600101906020018083116106c157829003601f168201915b505050505090505b90565b60006106f48261150f565b6106fd57600080fd5b506000908152600260205260409020546001600160a01b031690565b600061072482610f49565b9050806001600160a01b0316836001600160a01b0316141561074557600080fd5b336001600160a01b03821614806107615750610761813361148f565b61076a57600080fd5b60008281526002602052604080822080546001600160a01b0319166001600160a01b0387811691821790925591518593918516917f8c5be1e5ebec7d5bd14f71427d1e84f3dd0314c0f7b2291e5b200ac8c7c3b92591a4505050565b336001600160a01b0316600d82815481106107dd57fe5b60009182526020909120600160079092020101546001600160a01b0316146108205760405162461bcd60e51b8152600401610817906121b0565b60405180910390fd5b3061082a82610f49565b6001600160a01b0316146108505760405162461bcd60e51b815260040161081790612190565b6000600d828154811061085f57fe5b600091825260209091206005600790920201015460ff16600181111561088157fe5b1461089e5760405162461bcd60e51b815260040161081790612180565b6001600d82815481106108ad57fe5b60009182526020909120600560079092020101805460ff1916600183818111156108d357fe5b02179055506108e330338361152c565b50565b60075490565b6108f6338261154b565b6108ff57600080fd5b61090a83838361152c565b505050565b336001600160a01b0316600d828154811061092657fe5b60009182526020909120600160079092020101546001600160a01b0316146109605760405162461bcd60e51b8152600401610817906121b0565b3361096a82610f49565b6001600160a01b0316146109905760405162461bcd60e51b815260040161081790612170565b6001600d828154811061099f57fe5b600091825260209091206005600790920201015460ff1660018111156109c157fe5b146109de5760405162461bcd60e51b815260040161081790612160565b6000600d82815481106109ed57fe5b60009182526020909120600560079092020101805460ff191660018381811115610a1357fe5b02179055506108e333308361152c565b6000610a2e83610f6b565b8210610a3957600080fd5b6001600160a01b0383166000908152600560205260409020805483908110610a5d57fe5b906000526020600020015490505b92915050565b61090a838383604051806020016040528060008152506113b6565b6060600d805480602002602001604051908101604052809291908181526020016000905b82821015610c5f5760008481526020908190206040805160e08101825260078602909201805483526001808201546001600160a01b0316848601526002808301805485516101009482161594909402600019011691909104601f8101879004870283018701855280835294959294938601939192909190830182828015610b785780601f10610b4d57610100808354040283529160200191610b78565b820191906000526020600020905b815481529060010190602001808311610b5b57829003601f168201915b5050509183525050600382015460208083019190915260048301805460408051601f60026000196101006001871615020190941693909304928301859004850281018501825282815294019392830182828015610c165780601f10610beb57610100808354040283529160200191610c16565b820191906000526020600020905b815481529060010190602001808311610bf957829003601f168201915b5050509183525050600582015460209091019060ff166001811115610c3757fe5b6001811115610c4257fe5b815260200160068201548152505081526020019060010190610ab0565b50505050905090565b6000610c726108e6565b8210610c7d57600080fd5b60078281548110610c8a57fe5b90600052602060002001549050919050565b6000610ca6611a14565b600d8381548110610cb357fe5b60009182526020918290206040805160e081018252600793909302909101805483526001808201546001600160a01b0316848601526002808301805485516101009482161594909402600019011691909104601f8101879004870283018701855280835294959294938601939192909190830182828015610d755780601f10610d4a57610100808354040283529160200191610d75565b820191906000526020600020905b815481529060010190602001808311610d5857829003601f168201915b5050509183525050600382015460208083019190915260048301805460408051601f60026000196101006001871615020190941693909304928301859004850281018501825282815294019392830182828015610e135780601f10610de857610100808354040283529160200191610e13565b820191906000526020600020905b815481529060010190602001808311610df657829003601f168201915b5050509183525050600582015460209091019060ff166001811115610e3457fe5b6001811115610e3f57fe5b8152600691909101546020918201528101516060820151919250908190348114610e7b5760405162461bcd60e51b8152600401610817906121a0565b6040516001600160a01b0383169082156108fc029083906000818181858888f19350505050158015610eb1573d6000803e3d6000fd5b50600033905080600d8881548110610ec557fe5b906000526020600020906007020160010160006101000a8154816001600160a01b0302191690836001600160a01b031602179055506001600d8881548110610f0957fe5b60009182526020909120600560079092020101805460ff191660018381811115610f2f57fe5b0217905550610f3f30338961152c565b5050505050919050565b6000818152600160205260408120546001600160a01b031680610a6b57600080fd5b60006001600160a01b038216610f8057600080fd5b506001600160a01b031660009081526003602052604090205490565b600a8054604080516020601f60026000196101006001881615020190951694909404938401819004810282018101909252828152606093909290918301828280156106de5780601f106106b3576101008083540402835291602001916106de565b6001600160a01b03821633141561101357600080fd5b3360008181526004602090815260408083206001600160a01b038716808552925291829020805460ff191685151517905590519091907f17307eab39ab6107e8899845ad3d59bd9653f200f220920489ca2b5937696c3190611076908590612141565b60405180910390a35050565b600d818154811061108f57fe5b6000918252602091829020600791909102018054600180830154600280850180546040805161010096831615969096026000190190911692909204601f81018890048802850188019092528184529396506001600160a01b03909116949192918301828280156111405780601f1061111557610100808354040283529160200191611140565b820191906000526020600020905b81548152906001019060200180831161112357829003601f168201915b50505050600383015460048401805460408051602060026001851615610100026000190190941693909304601f810184900484028201840190925281815295969395939450908301828280156111d75780601f106111ac576101008083540402835291602001916111d7565b820191906000526020600020905b8154815290600101906020018083116111ba57829003601f168201915b505050506005830154600690930154919260ff1691905087565b600c5481565b6111ff611a14565b611207611a14565b600d838154811061121457fe5b60009182526020918290206040805160e081018252600793909302909101805483526001808201546001600160a01b0316848601526002808301805485516101009482161594909402600019011691909104601f81018790048702830187018552808352949592949386019391929091908301828280156112d65780601f106112ab576101008083540402835291602001916112d6565b820191906000526020600020905b8154815290600101906020018083116112b957829003601f168201915b5050509183525050600382015460208083019190915260048301805460408051601f600260001961010060018716150201909416939093049283018590048502810185018252828152940193928301828280156113745780601f1061134957610100808354040283529160200191611374565b820191906000526020600020905b81548152906001019060200180831161135757829003601f168201915b5050509183525050600582015460209091019060ff16600181111561139557fe5b60018111156113a057fe5b8152600691909101546020909101529392505050565b6113c18484846108ec565b6113cd848484846115aa565b6113d657600080fd5b50505050565b60606113e78261150f565b6113f057600080fd5b6000828152600b602090815260409182902080548351601f6002600019610100600186161502019093169290920491820184900484028101840190945280845290918301828280156114835780601f1061145857610100808354040283529160200191611483565b820191906000526020600020905b81548152906001019060200180831161146657829003601f168201915b50505050509050919050565b6001600160a01b03918216600090815260046020908152604080832093909416825291909152205460ff1690565b6114c7828261166f565b6114d18282611721565b6114da8161175f565b5050565b6114e78261150f565b6114f057600080fd5b6000828152600b60209081526040909120825161090a92840190611a65565b6000908152600160205260409020546001600160a01b0316151590565b6115378383836117a3565b61154183826118b0565b61090a8282611721565b60008061155783610f49565b9050806001600160a01b0316846001600160a01b031614806115925750836001600160a01b0316611587846106e9565b6001600160a01b0316145b806115a257506115a2818561148f565b949350505050565b60006115be846001600160a01b03166119a5565b6115ca575060016115a2565b604051630a85bd0160e11b81526000906001600160a01b0386169063150b7a02906115ff9033908a90899089906004016120d1565b602060405180830381600087803b15801561161957600080fd5b505af115801561162d573d6000803e3d6000fd5b505050506040513d601f19601f820116820180604052506116519190810190611d44565b6001600160e01b031916630a85bd0160e11b14915050949350505050565b6001600160a01b03821661168257600080fd5b61168b8161150f565b1561169557600080fd5b600081815260016020818152604080842080546001600160a01b0319166001600160a01b03881690811790915584526003909152909120546116d6916119ab565b6001600160a01b0383166000818152600360205260408082209390935591518392907fddf252ad1be2c89b69c2b068fc378daa952ba7f163c4a11628f55a4df523b3ef908290a45050565b6001600160a01b0390911660009081526005602081815260408084208054868652600684529185208290559282526001810183559183529091200155565b600780546000838152600860205260408120829055600182018355919091527fa66cc928b5edb82af9bd49922954155ab7b0942694bea4ce44661d9a8736c6880155565b826001600160a01b03166117b682610f49565b6001600160a01b0316146117c957600080fd5b6001600160a01b0382166117dc57600080fd5b6117e5816119c4565b6001600160a01b03831660009081526003602052604090205461180f90600163ffffffff6119ff16565b6001600160a01b03808516600090815260036020526040808220939093559084168152205461184590600163ffffffff6119ab16565b6001600160a01b038084166000818152600360209081526040808320959095558582526001905283812080546001600160a01b031916831790559251849391928716917fddf252ad1be2c89b69c2b068fc378daa952ba7f163c4a11628f55a4df523b3ef91a4505050565b6001600160a01b0382166000908152600560205260408120546118da90600163ffffffff6119ff16565b600083815260066020526040902054909150808214611975576001600160a01b038416600090815260056020526040812080548490811061191757fe5b906000526020600020015490508060056000876001600160a01b03166001600160a01b03168152602001908152602001600020838154811061195557fe5b600091825260208083209091019290925591825260069052604090208190555b6001600160a01b038416600090815260056020526040902080549061199e906000198301611ae3565b5050505050565b3b151590565b6000828201838110156119bd57600080fd5b9392505050565b6000818152600260205260409020546001600160a01b0316156108e357600090815260026020526040902080546001600160a01b0319169055565b600082821115611a0e57600080fd5b50900390565b6040518060e001604052806000815260200160006001600160a01b0316815260200160608152602001600081526020016060815260200160006001811115611a5857fe5b8152602001600081525090565b828054600181600116156101000203166002900490600052602060002090601f016020900481019282601f10611aa657805160ff1916838001178555611ad3565b82800160010185558215611ad3579182015b82811115611ad3578251825591602001919060010190611ab8565b50611adf929150611b03565b5090565b81548183558181111561090a5760008381526020902061090a9181019083015b6106e691905b80821115611adf5760008155600101611b09565b8035610a6b81612357565b8035610a6b8161236b565b8035610a6b81612374565b8051610a6b81612374565b600082601f830112611b5a57600080fd5b8135611b6d611b688261227c565b612255565b91508082526020830160208301858383011115611b8957600080fd5b611b9483828461230b565b50505092915050565b8035610a6b8161237d565b600060208284031215611bba57600080fd5b60006115a28484611b1d565b60008060408385031215611bd957600080fd5b6000611be58585611b1d565b9250506020611bf685828601611b1d565b9150509250929050565b600080600060608486031215611c1557600080fd5b6000611c218686611b1d565b9350506020611c3286828701611b1d565b9250506040611c4386828701611b9d565b9150509250925092565b60008060008060808587031215611c6357600080fd5b6000611c6f8787611b1d565b9450506020611c8087828801611b1d565b9350506040611c9187828801611b9d565b925050606085013567ffffffffffffffff811115611cae57600080fd5b611cba87828801611b49565b91505092959194509250565b60008060408385031215611cd957600080fd5b6000611ce58585611b1d565b9250506020611bf685828601611b28565b60008060408385031215611d0957600080fd5b6000611d158585611b1d565b9250506020611bf685828601611b9d565b600060208284031215611d3857600080fd5b60006115a28484611b33565b600060208284031215611d5657600080fd5b60006115a28484611b3e565b600080600060608486031215611d7757600080fd5b833567ffffffffffffffff811115611d8e57600080fd5b611d9a86828701611b49565b9350506020611dab86828701611b9d565b925050604084013567ffffffffffffffff811115611dc857600080fd5b611c4386828701611b49565b600060208284031215611de657600080fd5b60006115a28484611b9d565b60006119bd838361201e565b611e07816122ea565b82525050565b611e07816122b7565b6000611e21826122aa565b611e2b81856122ae565b935083602082028501611e3d856122a4565b8060005b85811015611e775784840389528151611e5a8582611df2565b9450611e65836122a4565b60209a909a0199925050600101611e41565b5091979650505050505050565b611e07816122c2565b6000611e98826122aa565b611ea281856122ae565b9350611eb2818560208601612317565b611ebb81612343565b9093019392505050565b611e07816122f5565b6000611edb6018836122ae565b7f537461747573206d7573742062652043616e63656c6c65640000000000000000815260200192915050565b6000611f146019836122ae565b7f4e4654206d757374206265206f776e6564206279207573657200000000000000815260200192915050565b6000611f4d6013836122ae565b7229ba30ba3ab99036bab9ba1031329027b832b760691b815260200192915050565b6000611f7c601d836122ae565b7f4e4654206d757374206265206f776e656420627920636f6e7472616374000000815260200192915050565b6000611fb5602a836122ae565b7f6d73672e76616c75652073686f756c6420626520657175616c20746f2074686581526908189d5e505b5bdd5b9d60b21b602082015260400192915050565b6000612001600e836122ae565b6d3234b33332b932b73a103ab9b2b960911b815260200192915050565b805160009060e084019061203285826120ba565b5060208301516120456020860182611e0d565b506040830151848203604086015261205d8282611e8d565b915050606083015161207260608601826120ba565b506080830151848203608086015261208a8282611e8d565b91505060a083015161209f60a0860182611ec5565b5060c08301516120b260c08601826120ba565b509392505050565b611e07816106e6565b60208101610a6b8284611e0d565b608081016120df8287611dfe565b6120ec6020830186611e0d565b6120f960408301856120ba565b818103606083015261210b8184611e8d565b9695505050505050565b604081016121238285611dfe565b6119bd60208301846120ba565b602080825281016119bd8184611e16565b60208101610a6b8284611e84565b602080825281016119bd8184611e8d565b60208082528101610a6b81611ece565b60208082528101610a6b81611f07565b60208082528101610a6b81611f40565b60208082528101610a6b81611f6f565b60208082528101610a6b81611fa8565b60208082528101610a6b81611ff4565b602080825281016119bd818461201e565b60208101610a6b82846120ba565b60e081016121ed828a6120ba565b6121fa6020830189611e0d565b818103604083015261220c8188611e8d565b905061221b60608301876120ba565b818103608083015261222d8186611e8d565b905061223c60a0830185611ec5565b61224960c08301846120ba565b98975050505050505050565b60405181810167ffffffffffffffff8111828210171561227457600080fd5b604052919050565b600067ffffffffffffffff82111561229357600080fd5b506020601f91909101601f19160190565b60200190565b5190565b90815260200190565b6000610a6b826122de565b151590565b6001600160e01b03191690565b806104968161234d565b6001600160a01b031690565b6000610a6b82612300565b6000610a6b826122d4565b6000610a6b826122b7565b82818337506000910152565b60005b8381101561233257818101518382015260200161231a565b838111156113d65750506000910152565b601f01601f191690565b600281106108e357fe5b612360816122b7565b81146108e357600080fd5b612360816122c2565b612360816122c7565b612360816106e656fea365627a7a723158208b06c78834008b7724308569ee05a0bbd7bb0ca678836ea45cd21788d86d42536c6578706572696d656e74616cf564736f6c63430005100040",
  "source": "pragma solidity ^0.5.16;\npragma experimental ABIEncoderV2;\n\nimport { ERC721Full } from \"./openzeppelin-solidity/contracts/token/ERC721/ERC721Full.sol\";\nimport { SafeMath } from \"./openzeppelin-solidity/contracts/math/SafeMath.sol\";\n\n\n/**\n * @notice - This is the NFT contract for a photo\n */\ncontract PhotoNFT is ERC721Full {\n    using SafeMath for uint256;\n\n    uint256 public currentPhotoId;\n\n    event PhotoNFTCreated (\n        address owner,\n        uint photoId\n    );\n\n    //for debug\n    event PhotoNFTStatus (\n        address user, \n        address currentOwner, \n        address contractAddress\n    );\n\n    enum State { Open, Cancelled }\n\n    struct Photo {  /// [Key]: index of array\n        // PhotoNFT photoNFT;\n        // string photoNFTName;\n        // string photoNFTSymbol;\n        uint256 photoId;\n        address ownerAddress;\n        string photoName;\n        uint photoPrice;\n        string ipfsHashOfPhoto;\n        State status;  /// \"Open\" =0,  \"Cancelled\" = 1, \n        uint256 reputation;\n    }\n\n    Photo[] public photos;\n    \n    constructor( ) \n        public \n        ERC721Full(\"PhotoNFT\", \"CJH-PhotoNFT-marketplace\") \n    {\n        // mint(owner, _tokenURI);\n        //set contract to approve transfer\n        // setApprovalForAll(address(this), true);\n    }\n\n    /** \n     * @dev mint a photoNFT\n     * @dev tokenURI - URL include ipfs hash\n     * photoPrice - price of photo when it is minted\n     */\n    function mint(string memory tokenURI, uint photoPrice, string memory photoName) public returns (bool) {\n        /// Mint a new PhotoNFT\n        // address memory to = msg.sender\n        _mint(msg.sender, currentPhotoId);\n        //after mint save the Photo to photos array\n        Photo memory photo = Photo({\n            photoId : currentPhotoId, \n            ownerAddress: msg.sender,\n            photoPrice: photoPrice,\n            photoName : photoName,\n            ipfsHashOfPhoto: tokenURI,\n            status: State.Cancelled,  //Cancelled\n            reputation: 0\n        });\n        photos.push(photo);\n        _setTokenURI(currentPhotoId, tokenURI);\n        //emit Event\n        emit PhotoNFTCreated(msg.sender, currentPhotoId);\n        currentPhotoId++;\n    }\n\n    function getPhoto(uint index) public view returns (Photo memory _photo) {\n        Photo memory photo = photos[index];\n        return photo;\n    }\n\n    function getAllPhotos() public view returns (Photo[] memory _photos) {\n        return photos;\n    }\n\n    function openTrade(uint photoId) public {\n        require(photos[photoId].ownerAddress == msg.sender, \"different user\");\n        require(ownerOf(photoId) == msg.sender, \"NFT must be owned by user\");\n        require(photos[photoId].status == State.Cancelled, \"Status must be Cancelled\");\n\n        photos[photoId].status = State.Open;\n\n        //approve contract to transfer\n        // approve(address(this), photoId);\n        _transferFrom(msg.sender, address(this), photoId);\n    }\n\n    function cancelTrade(uint photoId) public {\n        require(photos[photoId].ownerAddress == msg.sender, \"different user\");\n        require(ownerOf(photoId) == address(this), \"NFT must be owned by contract\"); \n        require(photos[photoId].status == State.Open, \"Status must be Open\");\n\n        // //change photo status to \"Cancelled\"\n        photos[photoId].status = State.Cancelled;\n        \n        //approve sender to transfer\n        // approve(address(this), photoId);\n        _transferFrom(address(this), msg.sender, photoId);\n    }\n\n    function buyNFT(uint photoId) public payable returns (bool) {\n\n        Photo memory photo = photos[photoId];\n        \n\n        address _seller = photo.ownerAddress;                     /// Owner\n        address payable seller = address(uint160(_seller));  /// Convert owner address with payable\n        uint buyAmount = photo.photoPrice;\n        require (msg.value == buyAmount, \"msg.value should be equal to the buyAmount\");\n        \n \n        /// Bought-amount is transferred into a seller wallet\n        seller.transfer(buyAmount);\n\n        address buyer = msg.sender;\n\n        //update the photo data\n        photos[photoId].ownerAddress = buyer;\n        photos[photoId].status = State.Cancelled; // set the state to \"Cancelled\"\n        _transferFrom(address(this),  msg.sender, photoId);\n    }\n}\n",
  "sourcePath": "D:\\dev_data\\nft\\MyNFT\\contracts\\PhotoNFT.sol",
  "compiler": {
    "name": "solc",
    "version": "0.5.16+commit.9c3226ce.Emscripten.clang"
  },
  "schemaVersion": "3.4.3",
  "updatedAt": "2021-10-02T12:21:27.265Z",
  "networkType": "ethereum",
  "devdoc": {
    "methods": {
      "approve(address,uint256)": {
        "details": "Approves another address to transfer the given token ID The zero address indicates there is no approved address. There can only be one approved address per token at a given time. Can only be called by the token owner or an approved operator.",
        "params": {
          "to": "address to be approved for the given token ID",
          "tokenId": "uint256 ID of the token to be approved"
        }
      },
      "balanceOf(address)": {
        "details": "Gets the balance of the specified address",
        "params": {
          "owner": "address to query the balance of"
        },
        "return": "uint256 representing the amount owned by the passed address"
      },
      "getApproved(uint256)": {
        "details": "Gets the approved address for a token ID, or zero if no address set Reverts if the token ID does not exist.",
        "params": {
          "tokenId": "uint256 ID of the token to query the approval of"
        },
        "return": "address currently approved for the given token ID"
      },
      "isApprovedForAll(address,address)": {
        "details": "Tells whether an operator is approved by a given owner",
        "params": {
          "operator": "operator address which you want to query the approval of",
          "owner": "owner address which you want to query the approval of"
        },
        "return": "bool whether the given operator is approved by the given owner"
      },
      "mint(string,uint256,string)": {
        "details": "mint a photoNFTtokenURI - URL include ipfs hash photoPrice - price of photo when it is minted"
      },
      "name()": {
        "details": "Gets the token name",
        "return": "string representing the token name"
      },
      "ownerOf(uint256)": {
        "details": "Gets the owner of the specified token ID",
        "params": {
          "tokenId": "uint256 ID of the token to query the owner of"
        },
        "return": "owner address currently marked as the owner of the given token ID"
      },
      "safeTransferFrom(address,address,uint256)": {
        "details": "Safely transfers the ownership of a given token ID to another address If the target address is a contract, it must implement `onERC721Received`, which is called upon a safe transfer, and return the magic value `bytes4(keccak256(\"onERC721Received(address,address,uint256,bytes)\"))`; otherwise, the transfer is reverted.     * Requires the msg sender to be the owner, approved, or operator",
        "params": {
          "from": "current owner of the token",
          "to": "address to receive the ownership of the given token ID",
          "tokenId": "uint256 ID of the token to be transferred"
        }
      },
      "safeTransferFrom(address,address,uint256,bytes)": {
        "details": "Safely transfers the ownership of a given token ID to another address If the target address is a contract, it must implement `onERC721Received`, which is called upon a safe transfer, and return the magic value `bytes4(keccak256(\"onERC721Received(address,address,uint256,bytes)\"))`; otherwise, the transfer is reverted. Requires the msg sender to be the owner, approved, or operator",
        "params": {
          "_data": "bytes data to send along with a safe transfer check",
          "from": "current owner of the token",
          "to": "address to receive the ownership of the given token ID",
          "tokenId": "uint256 ID of the token to be transferred"
        }
      },
      "setApprovalForAll(address,bool)": {
        "details": "Sets or unsets the approval of a given operator An operator is allowed to transfer all tokens of the sender on their behalf",
        "params": {
          "approved": "representing the status of the approval to be set",
          "to": "operator address to set the approval"
        }
      },
      "supportsInterface(bytes4)": {
        "details": "implement supportsInterface(bytes4) using a lookup table"
      },
      "symbol()": {
        "details": "Gets the token symbol",
        "return": "string representing the token symbol"
      },
      "tokenByIndex(uint256)": {
        "details": "Gets the token ID at a given index of all the tokens in this contract Reverts if the index is greater or equal to the total number of tokens",
        "params": {
          "index": "uint256 representing the index to be accessed of the tokens list"
        },
        "return": "uint256 token ID at the given index of the tokens list"
      },
      "tokenOfOwnerByIndex(address,uint256)": {
        "details": "Gets the token ID at a given index of the tokens list of the requested owner",
        "params": {
          "index": "uint256 representing the index to be accessed of the requested tokens list",
          "owner": "address owning the tokens list to be accessed"
        },
        "return": "uint256 token ID at the given index of the tokens list owned by the requested address"
      },
      "tokenURI(uint256)": {
        "details": "Returns an URI for a given token ID Throws if the token ID does not exist. May return an empty string.",
        "params": {
          "tokenId": "uint256 ID of the token to query"
        }
      },
      "totalSupply()": {
        "details": "Gets the total amount of tokens stored by the contract",
        "return": "uint256 representing the total amount of tokens"
      },
      "transferFrom(address,address,uint256)": {
        "details": "Transfers the ownership of a given token ID to another address Usage of this method is discouraged, use `safeTransferFrom` whenever possible Requires the msg sender to be the owner, approved, or operator",
        "params": {
          "from": "current owner of the token",
          "to": "address to receive the ownership of the given token ID",
          "tokenId": "uint256 ID of the token to be transferred"
        }
      }
    }
  },
  "userdoc": {
    "methods": {},
    "notice": "- This is the NFT contract for a photo"
  }
}